{"abi":[{"type":"constructor","inputs":[{"name":"bullaClaim","type":"address","internalType":"address"},{"name":"_owner","type":"address","internalType":"address"},{"name":"_protocolFeeBPS","type":"uint16","internalType":"uint16"}],"stateMutability":"nonpayable"},{"type":"function","name":"_bullaClaim","inputs":[],"outputs":[{"name":"","type":"address","internalType":"contract IBullaClaimV2"}],"stateMutability":"view"},{"type":"function","name":"acceptLoan","inputs":[{"name":"offerId","type":"uint256","internalType":"uint256"}],"outputs":[{"name":"","type":"uint256","internalType":"uint256"}],"stateMutability":"payable"},{"type":"function","name":"acceptLoanWithReceiver","inputs":[{"name":"offerId","type":"uint256","internalType":"uint256"},{"name":"receiver","type":"address","internalType":"address"}],"outputs":[{"name":"","type":"uint256","internalType":"uint256"}],"stateMutability":"payable"},{"type":"function","name":"addToCallbackWhitelist","inputs":[{"name":"callbackContract","type":"address","internalType":"address"},{"name":"selector","type":"bytes4","internalType":"bytes4"}],"outputs":[],"stateMutability":"nonpayable"},{"type":"function","name":"addToFeeTokenWhitelist","inputs":[{"name":"token","type":"address","internalType":"address"}],"outputs":[],"stateMutability":"nonpayable"},{"type":"function","name":"admin","inputs":[],"outputs":[{"name":"","type":"address","internalType":"address"}],"stateMutability":"view"},{"type":"function","name":"approve","inputs":[{"name":"to","type":"address","internalType":"address"},{"name":"tokenId","type":"uint256","internalType":"uint256"}],"outputs":[],"stateMutability":"nonpayable"},{"type":"function","name":"balanceOf","inputs":[{"name":"owner","type":"address","internalType":"address"}],"outputs":[{"name":"","type":"uint256","internalType":"uint256"}],"stateMutability":"view"},{"type":"function","name":"callbackWhitelist","inputs":[{"name":"","type":"address","internalType":"address"},{"name":"","type":"bytes4","internalType":"bytes4"}],"outputs":[{"name":"","type":"bool","internalType":"bool"}],"stateMutability":"view"},{"type":"function","name":"getApproved","inputs":[{"name":"tokenId","type":"uint256","internalType":"uint256"}],"outputs":[{"name":"","type":"address","internalType":"address"}],"stateMutability":"view"},{"type":"function","name":"getLoan","inputs":[{"name":"claimId","type":"uint256","internalType":"uint256"}],"outputs":[{"name":"","type":"tuple","internalType":"struct Loan","components":[{"name":"claimAmount","type":"uint256","internalType":"uint256"},{"name":"paidAmount","type":"uint256","internalType":"uint256"},{"name":"status","type":"uint8","internalType":"enum Status"},{"name":"binding","type":"uint8","internalType":"enum ClaimBinding"},{"name":"debtor","type":"address","internalType":"address"},{"name":"creditor","type":"address","internalType":"address"},{"name":"token","type":"address","internalType":"address"},{"name":"controller","type":"address","internalType":"address"},{"name":"dueBy","type":"uint256","internalType":"uint256"},{"name":"acceptedAt","type":"uint256","internalType":"uint256"},{"name":"interestConfig","type":"tuple","internalType":"struct InterestConfig","components":[{"name":"interestRateBps","type":"uint16","internalType":"uint16"},{"name":"numberOfPeriodsPerYear","type":"uint16","internalType":"uint16"}]},{"name":"interestComputationState","type":"tuple","internalType":"struct InterestComputationState","components":[{"name":"accruedInterest","type":"uint256","internalType":"uint256"},{"name":"latestPeriodNumber","type":"uint256","internalType":"uint256"},{"name":"protocolFeeBps","type":"uint16","internalType":"uint16"},{"name":"totalGrossInterestPaid","type":"uint256","internalType":"uint256"}]}]}],"stateMutability":"view"},{"type":"function","name":"getLoanOffer","inputs":[{"name":"offerId","type":"uint256","internalType":"uint256"}],"outputs":[{"name":"","type":"tuple","internalType":"struct LoanOffer","components":[{"name":"params","type":"tuple","internalType":"struct LoanRequestParams","components":[{"name":"termLength","type":"uint256","internalType":"uint256"},{"name":"interestConfig","type":"tuple","internalType":"struct InterestConfig","components":[{"name":"interestRateBps","type":"uint16","internalType":"uint16"},{"name":"numberOfPeriodsPerYear","type":"uint16","internalType":"uint16"}]},{"name":"loanAmount","type":"uint256","internalType":"uint256"},{"name":"creditor","type":"address","internalType":"address"},{"name":"debtor","type":"address","internalType":"address"},{"name":"description","type":"string","internalType":"string"},{"name":"token","type":"address","internalType":"address"},{"name":"impairmentGracePeriod","type":"uint256","internalType":"uint256"},{"name":"expiresAt","type":"uint256","internalType":"uint256"},{"name":"callbackContract","type":"address","internalType":"address"},{"name":"callbackSelector","type":"bytes4","internalType":"bytes4"}]},{"name":"requestedByCreditor","type":"bool","internalType":"bool"}]}],"stateMutability":"view"},{"type":"function","name":"getLoanOfferMetadata","inputs":[{"name":"offerId","type":"uint256","internalType":"uint256"}],"outputs":[{"name":"","type":"tuple","internalType":"struct ClaimMetadata","components":[{"name":"tokenURI","type":"string","internalType":"string"},{"name":"attachmentURI","type":"string","internalType":"string"}]}],"stateMutability":"view"},{"type":"function","name":"getTotalAmountDue","inputs":[{"name":"claimId","type":"uint256","internalType":"uint256"}],"outputs":[{"name":"remainingPrincipal","type":"uint256","internalType":"uint256"},{"name":"grossInterest","type":"uint256","internalType":"uint256"}],"stateMutability":"view"},{"type":"function","name":"impairLoan","inputs":[{"name":"claimId","type":"uint256","internalType":"uint256"}],"outputs":[],"stateMutability":"nonpayable"},{"type":"function","name":"isApprovedForAll","inputs":[{"name":"owner","type":"address","internalType":"address"},{"name":"operator","type":"address","internalType":"address"}],"outputs":[{"name":"","type":"bool","internalType":"bool"}],"stateMutability":"view"},{"type":"function","name":"isCallbackWhitelisted","inputs":[{"name":"callbackContract","type":"address","internalType":"address"},{"name":"selector","type":"bytes4","internalType":"bytes4"}],"outputs":[{"name":"","type":"bool","internalType":"bool"}],"stateMutability":"view"},{"type":"function","name":"loanOfferCount","inputs":[],"outputs":[{"name":"","type":"uint256","internalType":"uint256"}],"stateMutability":"view"},{"type":"function","name":"markLoanAsPaid","inputs":[{"name":"claimId","type":"uint256","internalType":"uint256"}],"outputs":[],"stateMutability":"nonpayable"},{"type":"function","name":"offerLoan","inputs":[{"name":"offer","type":"tuple","internalType":"struct LoanRequestParams","components":[{"name":"termLength","type":"uint256","internalType":"uint256"},{"name":"interestConfig","type":"tuple","internalType":"struct InterestConfig","components":[{"name":"interestRateBps","type":"uint16","internalType":"uint16"},{"name":"numberOfPeriodsPerYear","type":"uint16","internalType":"uint16"}]},{"name":"loanAmount","type":"uint256","internalType":"uint256"},{"name":"creditor","type":"address","internalType":"address"},{"name":"debtor","type":"address","internalType":"address"},{"name":"description","type":"string","internalType":"string"},{"name":"token","type":"address","internalType":"address"},{"name":"impairmentGracePeriod","type":"uint256","internalType":"uint256"},{"name":"expiresAt","type":"uint256","internalType":"uint256"},{"name":"callbackContract","type":"address","internalType":"address"},{"name":"callbackSelector","type":"bytes4","internalType":"bytes4"}]}],"outputs":[{"name":"","type":"uint256","internalType":"uint256"}],"stateMutability":"nonpayable"},{"type":"function","name":"offerLoanWithMetadata","inputs":[{"name":"offer","type":"tuple","internalType":"struct LoanRequestParams","components":[{"name":"termLength","type":"uint256","internalType":"uint256"},{"name":"interestConfig","type":"tuple","internalType":"struct InterestConfig","components":[{"name":"interestRateBps","type":"uint16","internalType":"uint16"},{"name":"numberOfPeriodsPerYear","type":"uint16","internalType":"uint16"}]},{"name":"loanAmount","type":"uint256","internalType":"uint256"},{"name":"creditor","type":"address","internalType":"address"},{"name":"debtor","type":"address","internalType":"address"},{"name":"description","type":"string","internalType":"string"},{"name":"token","type":"address","internalType":"address"},{"name":"impairmentGracePeriod","type":"uint256","internalType":"uint256"},{"name":"expiresAt","type":"uint256","internalType":"uint256"},{"name":"callbackContract","type":"address","internalType":"address"},{"name":"callbackSelector","type":"bytes4","internalType":"bytes4"}]},{"name":"metadata","type":"tuple","internalType":"struct ClaimMetadata","components":[{"name":"tokenURI","type":"string","internalType":"string"},{"name":"attachmentURI","type":"string","internalType":"string"}]}],"outputs":[{"name":"","type":"uint256","internalType":"uint256"}],"stateMutability":"nonpayable"},{"type":"function","name":"owner","inputs":[],"outputs":[{"name":"","type":"address","internalType":"address"}],"stateMutability":"view"},{"type":"function","name":"ownerOf","inputs":[{"name":"tokenId","type":"uint256","internalType":"uint256"}],"outputs":[{"name":"","type":"address","internalType":"address"}],"stateMutability":"view"},{"type":"function","name":"payLoan","inputs":[{"name":"claimId","type":"uint256","internalType":"uint256"},{"name":"paymentAmount","type":"uint256","internalType":"uint256"}],"outputs":[],"stateMutability":"nonpayable"},{"type":"function","name":"protocolFeeBPS","inputs":[],"outputs":[{"name":"","type":"uint16","internalType":"uint16"}],"stateMutability":"view"},{"type":"function","name":"protocolFeeTokenWhitelist","inputs":[{"name":"","type":"address","internalType":"address"}],"outputs":[{"name":"","type":"bool","internalType":"bool"}],"stateMutability":"view"},{"type":"function","name":"protocolFeesByToken","inputs":[{"name":"","type":"address","internalType":"address"}],"outputs":[{"name":"","type":"uint256","internalType":"uint256"}],"stateMutability":"view"},{"type":"function","name":"rejectLoanOffer","inputs":[{"name":"offerId","type":"uint256","internalType":"uint256"}],"outputs":[],"stateMutability":"nonpayable"},{"type":"function","name":"removeFromCallbackWhitelist","inputs":[{"name":"callbackContract","type":"address","internalType":"address"},{"name":"selector","type":"bytes4","internalType":"bytes4"}],"outputs":[],"stateMutability":"nonpayable"},{"type":"function","name":"removeFromFeeTokenWhitelist","inputs":[{"name":"token","type":"address","internalType":"address"}],"outputs":[],"stateMutability":"nonpayable"},{"type":"function","name":"renounceOwnership","inputs":[],"outputs":[],"stateMutability":"nonpayable"},{"type":"function","name":"safeTransferFrom","inputs":[{"name":"from","type":"address","internalType":"address"},{"name":"to","type":"address","internalType":"address"},{"name":"tokenId","type":"uint256","internalType":"uint256"}],"outputs":[],"stateMutability":"nonpayable"},{"type":"function","name":"safeTransferFrom","inputs":[{"name":"from","type":"address","internalType":"address"},{"name":"to","type":"address","internalType":"address"},{"name":"tokenId","type":"uint256","internalType":"uint256"},{"name":"data","type":"bytes","internalType":"bytes"}],"outputs":[],"stateMutability":"nonpayable"},{"type":"function","name":"setApprovalForAll","inputs":[{"name":"operator","type":"address","internalType":"address"},{"name":"approved","type":"bool","internalType":"bool"}],"outputs":[],"stateMutability":"nonpayable"},{"type":"function","name":"setProtocolFee","inputs":[{"name":"_protocolFeeBPS","type":"uint16","internalType":"uint16"}],"outputs":[],"stateMutability":"nonpayable"},{"type":"function","name":"supportsInterface","inputs":[{"name":"interfaceId","type":"bytes4","internalType":"bytes4"}],"outputs":[{"name":"","type":"bool","internalType":"bool"}],"stateMutability":"view"},{"type":"function","name":"transferFrom","inputs":[{"name":"from","type":"address","internalType":"address"},{"name":"to","type":"address","internalType":"address"},{"name":"tokenId","type":"uint256","internalType":"uint256"}],"outputs":[],"stateMutability":"nonpayable"},{"type":"function","name":"transferOwnership","inputs":[{"name":"newOwner","type":"address","internalType":"address"}],"outputs":[],"stateMutability":"nonpayable"},{"type":"function","name":"whitelistedProtocolFeeTokens","inputs":[{"name":"","type":"uint256","internalType":"uint256"}],"outputs":[{"name":"","type":"address","internalType":"address"}],"stateMutability":"view"},{"type":"function","name":"withdrawAllFees","inputs":[],"outputs":[],"stateMutability":"nonpayable"},{"type":"event","name":"Approval","inputs":[{"name":"owner","type":"address","indexed":true,"internalType":"address"},{"name":"approved","type":"address","indexed":true,"internalType":"address"},{"name":"tokenId","type":"uint256","indexed":true,"internalType":"uint256"}],"anonymous":false},{"type":"event","name":"ApprovalForAll","inputs":[{"name":"owner","type":"address","indexed":true,"internalType":"address"},{"name":"operator","type":"address","indexed":true,"internalType":"address"},{"name":"approved","type":"bool","indexed":false,"internalType":"bool"}],"anonymous":false},{"type":"event","name":"CallbackRemovedFromWhitelist","inputs":[{"name":"callbackContract","type":"address","indexed":true,"internalType":"address"},{"name":"selector","type":"bytes4","indexed":true,"internalType":"bytes4"}],"anonymous":false},{"type":"event","name":"CallbackWhitelisted","inputs":[{"name":"callbackContract","type":"address","indexed":true,"internalType":"address"},{"name":"selector","type":"bytes4","indexed":true,"internalType":"bytes4"}],"anonymous":false},{"type":"event","name":"FeeWithdrawn","inputs":[{"name":"admin","type":"address","indexed":true,"internalType":"address"},{"name":"token","type":"address","indexed":true,"internalType":"address"},{"name":"amount","type":"uint256","indexed":false,"internalType":"uint256"}],"anonymous":false},{"type":"event","name":"LoanOfferAccepted","inputs":[{"name":"offerId","type":"uint256","indexed":true,"internalType":"uint256"},{"name":"claimId","type":"uint256","indexed":true,"internalType":"uint256"},{"name":"receiver","type":"address","indexed":true,"internalType":"address"},{"name":"fee","type":"uint256","indexed":false,"internalType":"uint256"},{"name":"metadata","type":"tuple","indexed":false,"internalType":"struct ClaimMetadata","components":[{"name":"tokenURI","type":"string","internalType":"string"},{"name":"attachmentURI","type":"string","internalType":"string"}]}],"anonymous":false},{"type":"event","name":"LoanOfferRejected","inputs":[{"name":"offerId","type":"uint256","indexed":true,"internalType":"uint256"},{"name":"rejectedBy","type":"address","indexed":true,"internalType":"address"}],"anonymous":false},{"type":"event","name":"LoanOffered","inputs":[{"name":"offerId","type":"uint256","indexed":true,"internalType":"uint256"},{"name":"offeredBy","type":"address","indexed":true,"internalType":"address"},{"name":"loanOffer","type":"tuple","indexed":false,"internalType":"struct LoanRequestParams","components":[{"name":"termLength","type":"uint256","internalType":"uint256"},{"name":"interestConfig","type":"tuple","internalType":"struct InterestConfig","components":[{"name":"interestRateBps","type":"uint16","internalType":"uint16"},{"name":"numberOfPeriodsPerYear","type":"uint16","internalType":"uint16"}]},{"name":"loanAmount","type":"uint256","internalType":"uint256"},{"name":"creditor","type":"address","internalType":"address"},{"name":"debtor","type":"address","internalType":"address"},{"name":"description","type":"string","internalType":"string"},{"name":"token","type":"address","internalType":"address"},{"name":"impairmentGracePeriod","type":"uint256","internalType":"uint256"},{"name":"expiresAt","type":"uint256","internalType":"uint256"},{"name":"callbackContract","type":"address","internalType":"address"},{"name":"callbackSelector","type":"bytes4","internalType":"bytes4"}]},{"name":"metadata","type":"tuple","indexed":false,"internalType":"struct ClaimMetadata","components":[{"name":"tokenURI","type":"string","internalType":"string"},{"name":"attachmentURI","type":"string","internalType":"string"}]}],"anonymous":false},{"type":"event","name":"LoanPayment","inputs":[{"name":"claimId","type":"uint256","indexed":true,"internalType":"uint256"},{"name":"grossInterestPaid","type":"uint256","indexed":false,"internalType":"uint256"},{"name":"principalPaid","type":"uint256","indexed":false,"internalType":"uint256"},{"name":"protocolFee","type":"uint256","indexed":false,"internalType":"uint256"}],"anonymous":false},{"type":"event","name":"OwnershipTransferred","inputs":[{"name":"previousOwner","type":"address","indexed":true,"internalType":"address"},{"name":"newOwner","type":"address","indexed":true,"internalType":"address"}],"anonymous":false},{"type":"event","name":"ProtocolFeeUpdated","inputs":[{"name":"oldFee","type":"uint16","indexed":false,"internalType":"uint16"},{"name":"newFee","type":"uint16","indexed":false,"internalType":"uint16"}],"anonymous":false},{"type":"event","name":"TokenAddedToFeesWhitelist","inputs":[{"name":"token","type":"address","indexed":true,"internalType":"address"}],"anonymous":false},{"type":"event","name":"TokenRemovedFromFeesWhitelist","inputs":[{"name":"token","type":"address","indexed":true,"internalType":"address"}],"anonymous":false},{"type":"event","name":"Transfer","inputs":[{"name":"from","type":"address","indexed":true,"internalType":"address"},{"name":"to","type":"address","indexed":true,"internalType":"address"},{"name":"tokenId","type":"uint256","indexed":true,"internalType":"uint256"}],"anonymous":false},{"type":"error","name":"CallbackFailed","inputs":[{"name":"data","type":"bytes","internalType":"bytes"}]},{"type":"error","name":"CallbackNotWhitelisted","inputs":[]},{"type":"error","name":"IncorrectFee","inputs":[]},{"type":"error","name":"InvalidGracePeriod","inputs":[]},{"type":"error","name":"InvalidProtocolFee","inputs":[]},{"type":"error","name":"InvalidTermLength","inputs":[]},{"type":"error","name":"LoanOfferExpired","inputs":[]},{"type":"error","name":"LoanOfferNotFound","inputs":[]},{"type":"error","name":"NativeTokenNotSupported","inputs":[]},{"type":"error","name":"NotController","inputs":[{"name":"sender","type":"address","internalType":"address"}]},{"type":"error","name":"NotCreditor","inputs":[]},{"type":"error","name":"NotCreditorOrDebtor","inputs":[]},{"type":"error","name":"NotDebtor","inputs":[]},{"type":"error","name":"OwnableInvalidOwner","inputs":[{"name":"owner","type":"address","internalType":"address"}]},{"type":"error","name":"OwnableUnauthorizedAccount","inputs":[{"name":"account","type":"address","internalType":"address"}]}],"bytecode":{"object":"0x60a060405234801561000f575f5ffd5b50604051615b8c380380615b8c83398101604081905261002e91610168565b6001600160a01b038084166080528290811661006357604051631e4fbdf760e01b81525f600482015260240160405180910390fd5b61006c816100fe565b5061271061ffff8216111561009457604051631752ff0760e31b815260040160405180910390fd5b6002805461ffff191661ffff8316179055604080516060810182525f818301818152825282516020808201909452908152918101919091528051600a9081906100dd908261024a565b50602082015160018201906100f2908261024a565b50905050505050610304565b5f80546001600160a01b038381166001600160a01b0319831681178455604051919092169283917f8be0079c531659141344cd1fd0a4f28419497f9722a3daafe3b4186f6b6457e09190a35050565b80516001600160a01b0381168114610163575f5ffd5b919050565b5f5f5f6060848603121561017a575f5ffd5b6101838461014d565b92506101916020850161014d565b9150604084015161ffff811681146101a7575f5ffd5b809150509250925092565b634e487b7160e01b5f52604160045260245ffd5b600181811c908216806101da57607f821691505b6020821081036101f857634e487b7160e01b5f52602260045260245ffd5b50919050565b601f82111561024557805f5260205f20601f840160051c810160208510156102235750805b601f840160051c820191505b81811015610242575f815560010161022f565b50505b505050565b81516001600160401b03811115610263576102636101b2565b6102778161027184546101c6565b846101fe565b6020601f8211600181146102a9575f83156102925750848201515b5f19600385901b1c1916600184901b178455610242565b5f84815260208120601f198516915b828110156102d857878501518255602094850194600190920191016102b8565b50848210156102f557868401515f19600387901b60f8161c191681555b50505050600190811b01905550565b6080516157d66103b65f395f81816104080152818161098201528181610a3201528181610b1301528181610bc201528181610cab01528181610ea1015281816116940152818161175801528181611a0101528181611a8c01528181611d6c01528181611e30015281816120230152818161230b015281816124e0015281816125ac015281816129e00152818161329d015281816133c4015281816134ed01528181613ae40152613ba701526157d65ff3fe6080604052600436106102ab575f3560e01c8063715018a611610165578063adfbe22f116100c6578063db4e08991161007c578063e985e9c511610062578063e985e9c51461082f578063f2fde38b1461084e578063f851a44014610635575f5ffd5b8063db4e0899146107e4578063e4467f3514610810575f5ffd5b8063b88d4fde116100ac578063b88d4fde14610793578063b9108c03146107b2578063d4251f9e146107c5575f5ffd5b8063adfbe22f1461076c578063af236af41461077f575f5ffd5b806396daa3221161011b578063a22cb46511610101578063a22cb465146106aa578063a5cc6a7f146106c9578063a64d6beb146106f7575f5ffd5b806396daa3221461065e578063a15c24f31461068b575f5ffd5b8063880461461161014b57806388046146146105f757806389306e61146106165780638da5cb5b14610635575f5ffd5b8063715018a6146105c457806382459995146105d8575f5ffd5b806339737e071161020f5780636208d89c116101c5578063631f1a3c116101ab578063631f1a3c1461055a5780636352211e1461058657806370a08231146105a5575f5ffd5b80636208d89c1461051c578063623fb7ce1461053b575f5ffd5b80634be18e94116101f55780634be18e94146104b2578063504006ca146104d1578063520eb076146104fd575f5ffd5b806339737e071461046857806342842e0e14610493575f5ffd5b80631bc7cd3d116102645780632b538af51161024a5780632b538af5146103f75780632d1982ff1461042a578063307a808814610449575f5ffd5b80631bc7cd3d146103a457806323b872dd146103d8575f5ffd5b8063081812fc11610294578063081812fc1461031c578063095ea7b314610360578063150a642214610381575f5ffd5b806301ffc9a7146102af57806304dbf913146102e3575b5f5ffd5b3480156102ba575f5ffd5b506102ce6102c9366004614581565b61086d565b60405190151581526020015b60405180910390f35b3480156102ee575f5ffd5b506102ce6102fd3660046145c6565b600660209081525f928352604080842090915290825290205460ff1681565b348015610327575f5ffd5b5061033b6103363660046145f9565b610951565b60405173ffffffffffffffffffffffffffffffffffffffff90911681526020016102da565b34801561036b575f5ffd5b5061037f61037a366004614610565b610a01565b005b34801561038c575f5ffd5b5061039660015481565b6040519081526020016102da565b3480156103af575f5ffd5b506103c36103be3660046145f9565b610b70565b604080519283526020830191909152016102da565b3480156103e3575f5ffd5b5061037f6103f236600461463a565b610b91565b348015610402575f5ffd5b5061033b7f000000000000000000000000000000000000000000000000000000000000000081565b348015610435575f5ffd5b5061039661044436600461468f565b610d09565b348015610454575f5ffd5b5061037f6104633660046145c6565b610d23565b348015610473575f5ffd5b506103966104823660046146fa565b60046020525f908152604090205481565b34801561049e575f5ffd5b5061037f6104ad36600461463a565b610e19565b3480156104bd575f5ffd5b5061033b6104cc3660046145f9565b610e33565b3480156104dc575f5ffd5b506104f06104eb3660046145f9565b610e68565b6040516102da9190614766565b348015610508575f5ffd5b5061037f6105173660046145c6565b6111c2565b348015610527575f5ffd5b5061037f6105363660046145f9565b61126d565b348015610546575f5ffd5b5061037f6105553660046145f9565b611663565b348015610565575f5ffd5b506105796105743660046145f9565b6117c9565b6040516102da9190614904565b348015610591575f5ffd5b5061033b6105a03660046145f9565b6119d0565b3480156105b0575f5ffd5b506103966105bf3660046146fa565b611a45565b3480156105cf575f5ffd5b5061037f611af7565b3480156105e3575f5ffd5b5061037f6105f23660046146fa565b611b0a565b348015610602575f5ffd5b5061037f6106113660046145f9565b611d3b565b348015610621575f5ffd5b5061037f610630366004614a3a565b611e74565b348015610640575f5ffd5b505f5473ffffffffffffffffffffffffffffffffffffffff1661033b565b348015610669575f5ffd5b506002546106789061ffff1681565b60405161ffff90911681526020016102da565b348015610696575f5ffd5b506103966106a5366004614a5a565b612188565b3480156106b5575f5ffd5b5061037f6106c4366004614a99565b6122be565b3480156106d4575f5ffd5b506102ce6106e33660046146fa565b60056020525f908152604090205460ff1681565b348015610702575f5ffd5b506102ce6107113660046145c6565b73ffffffffffffffffffffffffffffffffffffffff82165f9081526006602090815260408083207fffffffff000000000000000000000000000000000000000000000000000000008516845290915290205460ff1692915050565b61039661077a3660046145f9565b61234c565b34801561078a575f5ffd5b5061037f612358565b34801561079e575f5ffd5b5061037f6107ad366004614bd4565b6124af565b6103966107c0366004614c4f565b61261e565b3480156107d0575f5ffd5b5061037f6107df3660046146fa565b61262a565b3480156107ef575f5ffd5b506108036107fe3660046145f9565b612749565b6040516102da9190614ca8565b34801561081b575f5ffd5b5061037f61082a366004614cc9565b6128d5565b34801561083a575f5ffd5b506102ce610849366004614ce4565b612991565b348015610859575f5ffd5b5061037f6108683660046146fa565b612a4b565b5f7fffffffff0000000000000000000000000000000000000000000000000000000082167ff1b5a49f0000000000000000000000000000000000000000000000000000000014806108ff57507f80ac58cd000000000000000000000000000000000000000000000000000000007fffffffff000000000000000000000000000000000000000000000000000000008316145b8061094b57507f01ffc9a7000000000000000000000000000000000000000000000000000000007fffffffff000000000000000000000000000000000000000000000000000000008316145b92915050565b6040517f081812fc000000000000000000000000000000000000000000000000000000008152600481018290525f907f000000000000000000000000000000000000000000000000000000000000000073ffffffffffffffffffffffffffffffffffffffff169063081812fc906024015b602060405180830381865afa1580156109dd573d5f5f3e3d5ffd5b505050506040513d601f19601f8201168201806040525081019061094b9190614d1b565b6040517f5aef2447000000000000000000000000000000000000000000000000000000008152600481018290525f907f000000000000000000000000000000000000000000000000000000000000000073ffffffffffffffffffffffffffffffffffffffff1690635aef24479060240161016060405180830381865afa158015610a8d573d5f5f3e3d5ffd5b505050506040513d601f19601f82011682018060405250810190610ab19190614d52565b9050610ac1816101000151612ab0565b6040517f52ec852900000000000000000000000000000000000000000000000000000000815233600482015273ffffffffffffffffffffffffffffffffffffffff8481166024830152604482018490527f000000000000000000000000000000000000000000000000000000000000000016906352ec8529906064015f604051808303815f87803b158015610b54575f5ffd5b505af1158015610b66573d5f5f3e3d5ffd5b505050505b505050565b5f5f5f610b7c84610e68565b9050610b8781612b01565b9250925050915091565b6040517f5aef2447000000000000000000000000000000000000000000000000000000008152600481018290525f907f000000000000000000000000000000000000000000000000000000000000000073ffffffffffffffffffffffffffffffffffffffff1690635aef24479060240161016060405180830381865afa158015610c1d573d5f5f3e3d5ffd5b505050506040513d601f19601f82011682018060405250810190610c419190614d52565b9050610c51816101000151612ab0565b6040517faf9fe4de00000000000000000000000000000000000000000000000000000000815233600482015273ffffffffffffffffffffffffffffffffffffffff85811660248301528481166044830152606482018490527f0000000000000000000000000000000000000000000000000000000000000000169063af9fe4de906084015f604051808303815f87803b158015610cec575f5ffd5b505af1158015610cfe573d5f5f3e3d5ffd5b505050505b50505050565b5f610d1c83610d1784614e31565b612b25565b9392505050565b610d2b612e28565b73ffffffffffffffffffffffffffffffffffffffff82161580610d6e57507fffffffff000000000000000000000000000000000000000000000000000000008116155b610e155773ffffffffffffffffffffffffffffffffffffffff82165f8181526006602090815260408083207fffffffff000000000000000000000000000000000000000000000000000000008616808552925280832080547fffffffffffffffffffffffffffffffffffffffffffffffffffffffffffffff00166001179055519092917f177c467a5dec0610cb3afa435a1f7efa9cd39bf81ff2273f06ae7668a00e310b91a35b5050565b610b6b83838360405180602001604052805f8152506124af565b60038181548110610e42575f80fd5b5f9182526020909120015473ffffffffffffffffffffffffffffffffffffffff16905081565b610e7061435c565b6040517f5aef2447000000000000000000000000000000000000000000000000000000008152600481018390525f907f000000000000000000000000000000000000000000000000000000000000000073ffffffffffffffffffffffffffffffffffffffff1690635aef24479060240161016060405180830381865afa158015610efc573d5f5f3e3d5ffd5b505050506040513d601f19601f82011682018060405250810190610f209190614d52565b9050610f30816101000151612ab0565b5f8381526008602090815260408083208151608080820184528254825283518085018552600184015461ffff8082168352620100009091048116828801528387019190915284519182018552600284015482526003840154958201959095526004830154909416848401526005820154606080860191909152928101939093526006015460ff16151590820152908261012001516005811115610fd557610fd5614715565b1480610ff7575060018261012001516005811115610ff557610ff5614715565b145b8061101857506005826101200151600581111561101657611016614715565b145b156110bc5773__$4bbbaa6d90f42a60403c514cce5191a63a$__63ff7f44438360200151845f015161104a9190614ecc565b835f0151846020015185604001516040518563ffffffff1660e01b81526004016110779493929190614edf565b608060405180830381865af4158015611092573d5f5f3e3d5ffd5b505050506040513d601f19601f820116820180604052508101906110b69190614f34565b60408201525b604051806101800160405280835f015181526020018360200151815260200183610120015160058111156110f2576110f2614715565b8152602001836101400151600281111561110e5761110e614715565b81526020018360a0015173ffffffffffffffffffffffffffffffffffffffff1681526020018360c0015173ffffffffffffffffffffffffffffffffffffffff1681526020018360e0015173ffffffffffffffffffffffffffffffffffffffff16815260200183610100015173ffffffffffffffffffffffffffffffffffffffff16815260200183604001518152602001825f0151815260200182602001518152602001826040015181525092505050919050565b6111ca612e28565b73ffffffffffffffffffffffffffffffffffffffff82165f8181526006602090815260408083207fffffffff000000000000000000000000000000000000000000000000000000008616808552925280832080547fffffffffffffffffffffffffffffffffffffffffffffffffffffffffffffff00169055519092917f36112db5f88f36037ce600104320a87f5636f34183686bbc76a66ec5588fccc991a35050565b5f81815260076020908152604080832081516101a08101835281548184019081528351808501909452600183015461ffff8082168652620100009091041694840194909452606081019290925260028101546080830152600381015473ffffffffffffffffffffffffffffffffffffffff90811660a084015260048201541660c083015260058101805492939192849291849160e08501919061130f90614fa0565b80601f016020809104026020016040519081016040528092919081815260200182805461133b90614fa0565b80156113865780601f1061135d57610100808354040283529160200191611386565b820191905f5260205f20905b81548152906001019060200180831161136957829003601f168201915b5050509183525050600682015473ffffffffffffffffffffffffffffffffffffffff908116602080840191909152600784015460408401526008840154606080850191909152600990940154808316608085015274010000000000000000000000000000000000000000900460e01b7fffffffff000000000000000000000000000000000000000000000000000000001660a090930192909252928452600a949094015460ff161515929093019190915282519091015191925016611477576040517f1d044d6100000000000000000000000000000000000000000000000000000000815260040160405180910390fd5b80516060015173ffffffffffffffffffffffffffffffffffffffff1633148015906114bd575080516080015173ffffffffffffffffffffffffffffffffffffffff163314155b156114f4576040517f5d6db4c200000000000000000000000000000000000000000000000000000000815260040160405180910390fd5b5f8281526007602052604081208181556001810180547fffffffffffffffffffffffffffffffffffffffffffffffffffffffff00000000169055600281018290556003810180547fffffffffffffffffffffffff0000000000000000000000000000000000000000908116909155600482018054909116905590818161157d6005830182614465565b506006810180547fffffffffffffffffffffffff00000000000000000000000000000000000000001690555f6007820181905560088201819055600991820180547fffffffffffffffff000000000000000000000000000000000000000000000000169055600a9390930180547fffffffffffffffffffffffffffffffffffffffffffffffffffffffffffffff001690558483526020525060408120906116248282614465565b611631600183015f614465565b5050604051339083907f5c6eae33ff1cd222fb8964d3a9cb61f3c59d868bb587b0ad1f131fb6d99328ad905f90a35050565b6040517f5aef2447000000000000000000000000000000000000000000000000000000008152600481018290525f907f000000000000000000000000000000000000000000000000000000000000000073ffffffffffffffffffffffffffffffffffffffff1690635aef24479060240161016060405180830381865afa1580156116ef573d5f5f3e3d5ffd5b505050506040513d601f19601f820116820180604052508101906117139190614d52565b9050611723816101000151612ab0565b6040517f3081ed8a000000000000000000000000000000000000000000000000000000008152336004820152602481018390527f000000000000000000000000000000000000000000000000000000000000000073ffffffffffffffffffffffffffffffffffffffff1690633081ed8a906044015b5f604051808303815f87803b1580156117af575f5ffd5b505af11580156117c1573d5f5f3e3d5ffd5b505050505050565b6117d161449c565b600154821061180c576040517f1d044d6100000000000000000000000000000000000000000000000000000000815260040160405180910390fd5b5f8281526007602090815260409182902082516101a08101845281548185019081528451808601909552600183015461ffff8082168752620100009091041693850193909352606081019390935260028101546080840152600381015473ffffffffffffffffffffffffffffffffffffffff90811660a085015260048201541660c0840152600581018054919284929091849160e0850191906118ae90614fa0565b80601f01602080910402602001604051908101604052809291908181526020018280546118da90614fa0565b80156119255780601f106118fc57610100808354040283529160200191611925565b820191905f5260205f20905b81548152906001019060200180831161190857829003601f168201915b5050509183525050600682015473ffffffffffffffffffffffffffffffffffffffff9081166020808401919091526007840154604084015260088401546060840152600990930154908116608083015274010000000000000000000000000000000000000000900460e01b7fffffffff000000000000000000000000000000000000000000000000000000001660a090910152908252600a929092015460ff16151591015292915050565b6040517f6352211e000000000000000000000000000000000000000000000000000000008152600481018290525f907f000000000000000000000000000000000000000000000000000000000000000073ffffffffffffffffffffffffffffffffffffffff1690636352211e906024016109c2565b6040517f70a0823100000000000000000000000000000000000000000000000000000000815273ffffffffffffffffffffffffffffffffffffffff82811660048301525f917f0000000000000000000000000000000000000000000000000000000000000000909116906370a0823190602401602060405180830381865afa158015611ad3573d5f5f3e3d5ffd5b505050506040513d601f19601f8201168201806040525081019061094b9190614feb565b611aff612e28565b611b085f612e7a565b565b611b12612e28565b73ffffffffffffffffffffffffffffffffffffffff81165f9081526005602052604090205460ff1615611cf85773ffffffffffffffffffffffffffffffffffffffff81165f90815260056020526040812080547fffffffffffffffffffffffffffffffffffffffffffffffffffffffffffffff001690555b600354811015611cf6578173ffffffffffffffffffffffffffffffffffffffff1660038281548110611bbe57611bbe615002565b5f9182526020909120015473ffffffffffffffffffffffffffffffffffffffff1603611cee5760038054611bf490600190614ecc565b81548110611c0457611c04615002565b5f918252602090912001546003805473ffffffffffffffffffffffffffffffffffffffff9092169183908110611c3c57611c3c615002565b905f5260205f20015f6101000a81548173ffffffffffffffffffffffffffffffffffffffff021916908373ffffffffffffffffffffffffffffffffffffffff1602179055506003805480611c9257611c9261502f565b5f8281526020902081017fffffffffffffffffffffffffffffffffffffffffffffffffffffffffffffffff90810180547fffffffffffffffffffffffff0000000000000000000000000000000000000000169055019055611cf6565b600101611b8a565b505b60405173ffffffffffffffffffffffffffffffffffffffff8216907fceeec53cbb10af8d416c74d15b37f2c8761d65af488132f6de71b01176ad2334905f90a250565b6040517f5aef2447000000000000000000000000000000000000000000000000000000008152600481018290525f907f000000000000000000000000000000000000000000000000000000000000000073ffffffffffffffffffffffffffffffffffffffff1690635aef24479060240161016060405180830381865afa158015611dc7573d5f5f3e3d5ffd5b505050506040513d601f19601f82011682018060405250810190611deb9190614d52565b9050611dfb816101000151612ab0565b6040517f2a982aeb000000000000000000000000000000000000000000000000000000008152336004820152602481018390527f000000000000000000000000000000000000000000000000000000000000000073ffffffffffffffffffffffffffffffffffffffff1690632a982aeb90604401611798565b5f611e7e83610e68565b90505f5f611e8b83612b01565b915091505f611e9a8583612eee565b90505f611eb0611eaa8388614ecc565b85612eee565b90506040518060800160405280838761016001515f0151611ed19190614ecc565b81526020018661016001516020015181526020018661016001516040015161ffff1681526020018387610160015160600151611f0d919061505c565b90525f8881526008602090815260409182902083516002820155908301516003820155908201516004820180547fffffffffffffffffffffffffffffffffffffffffffffffffffffffffffff00001661ffff909216919091179055606090910151600590910155611f7e818361505c565b5f888152600860205260408120600601549197509060ff1680611f9f575082155b611fc457611fbf838761014001515f015188610160015160400151612efd565b611fc6565b5f5b90505f611fd38285614ecc565b90505f611fe0848361505c565b9050831561208f576040517e8c1075000000000000000000000000000000000000000000000000000000008152336004820152602481018b9052604481018590527f000000000000000000000000000000000000000000000000000000000000000073ffffffffffffffffffffffffffffffffffffffff1690628c1075906064015f604051808303815f87803b158015612078575f5ffd5b505af115801561208a573d5f5f3e3d5ffd5b505050505b88156121395782156120d95760c088015173ffffffffffffffffffffffffffffffffffffffff165f90815260046020526040812080548592906120d390849061505c565b90915550505b60c08801516121009073ffffffffffffffffffffffffffffffffffffffff1633308c612f22565b8015612139576121398860a00151828a60c0015173ffffffffffffffffffffffffffffffffffffffff16612fdd9092919063ffffffff16565b60408051868152602081018690529081018490528a907f06283ce23ea8ff00b2f5df7b85dc1a077d69a207b3b48ecdaf73bf2189dd2e0f9060600160405180910390a250505050505050505050565b5f61094b82600a6040518060400160405290815f820180546121a990614fa0565b80601f01602080910402602001604051908101604052809291908181526020018280546121d590614fa0565b80156122205780601f106121f757610100808354040283529160200191612220565b820191905f5260205f20905b81548152906001019060200180831161220357829003601f168201915b5050505050815260200160018201805461223990614fa0565b80601f016020809104026020016040519081016040528092919081815260200182805461226590614fa0565b80156122b05780601f10612287576101008083540402835291602001916122b0565b820191905f5260205f20905b81548152906001019060200180831161229357829003601f168201915b505050505081525050612b25565b6040517fa22cb46500000000000000000000000000000000000000000000000000000000815273ffffffffffffffffffffffffffffffffffffffff838116600483015282151560248301527f0000000000000000000000000000000000000000000000000000000000000000169063a22cb465906044015f604051808303815f87803b1580156117af575f5ffd5b5f61094b33835f613092565b612360612e28565b5f5b6003548110156124ac575f6003828154811061238057612380615002565b5f91825260208083209091015473ffffffffffffffffffffffffffffffffffffffff16808352600490915260409091205490915080156124a25773ffffffffffffffffffffffffffffffffffffffff82165f9081526004602052604081205561241e6124005f5473ffffffffffffffffffffffffffffffffffffffff1690565b73ffffffffffffffffffffffffffffffffffffffff84169083612fdd565b8173ffffffffffffffffffffffffffffffffffffffff166124535f5473ffffffffffffffffffffffffffffffffffffffff1690565b73ffffffffffffffffffffffffffffffffffffffff167eed5939179dc194223f0edd1517ecee2210b22da7f82c8e4b1795e93b9f06aa8360405161249991815260200190565b60405180910390a35b5050600101612362565b50565b6040517f5aef2447000000000000000000000000000000000000000000000000000000008152600481018390525f907f000000000000000000000000000000000000000000000000000000000000000073ffffffffffffffffffffffffffffffffffffffff1690635aef24479060240161016060405180830381865afa15801561253b573d5f5f3e3d5ffd5b505050506040513d601f19601f8201168201806040525081019061255f9190614d52565b905061256f816101000151612ab0565b6040517ffcf391e000000000000000000000000000000000000000000000000000000000815273ffffffffffffffffffffffffffffffffffffffff7f0000000000000000000000000000000000000000000000000000000000000000169063fcf391e0906125e9903390899089908990899060040161506f565b5f604051808303815f87803b158015612600575f5ffd5b505af1158015612612573d5f5f3e3d5ffd5b505050505b5050505050565b5f610d1c338484613092565b612632612e28565b73ffffffffffffffffffffffffffffffffffffffff81165f9081526005602052604090205460ff166127065773ffffffffffffffffffffffffffffffffffffffff81165f81815260056020526040812080547fffffffffffffffffffffffffffffffffffffffffffffffffffffffffffffff001660019081179091556003805491820181559091527fc2575a0e9e593c00f959f8c92f12db2869c3395a3b0502d05e2516446f71f85b0180547fffffffffffffffffffffffff00000000000000000000000000000000000000001690911790555b60405173ffffffffffffffffffffffffffffffffffffffff8216907f8ac7e85f445e8ee1c850abbfcd9da63ccb7b527c076290946108a7c280247096905f90a250565b60408051808201909152606080825260208201526001548210612798576040517f1d044d6100000000000000000000000000000000000000000000000000000000815260040160405180910390fd5b5f828152600960205260409081902081518083019092528054829082906127be90614fa0565b80601f01602080910402602001604051908101604052809291908181526020018280546127ea90614fa0565b80156128355780601f1061280c57610100808354040283529160200191612835565b820191905f5260205f20905b81548152906001019060200180831161281857829003601f168201915b5050505050815260200160018201805461284e90614fa0565b80601f016020809104026020016040519081016040528092919081815260200182805461287a90614fa0565b80156128c55780601f1061289c576101008083540402835291602001916128c5565b820191905f5260205f20905b8154815290600101906020018083116128a857829003601f168201915b5050505050815250509050919050565b6128dd612e28565b61271061ffff8216111561291d576040517fba97f83800000000000000000000000000000000000000000000000000000000815260040160405180910390fd5b6002805461ffff8381167fffffffffffffffffffffffffffffffffffffffffffffffffffffffffffff000083168117909355604080519190921680825260208201939093527f26bc4a9b6ef30ec448ec7094c0f1002b0c6b8363d6a56be88ce399f1ac3d92f9910160405180910390a15050565b6040517fe985e9c500000000000000000000000000000000000000000000000000000000815273ffffffffffffffffffffffffffffffffffffffff838116600483015282811660248301525f917f00000000000000000000000000000000000000000000000000000000000000009091169063e985e9c590604401602060405180830381865afa158015612a27573d5f5f3e3d5ffd5b505050506040513d601f19601f82011682018060405250810190610d1c91906150e6565b612a53612e28565b73ffffffffffffffffffffffffffffffffffffffff8116612aa7576040517f1e4fbdf70000000000000000000000000000000000000000000000000000000081525f60048201526024015b60405180910390fd5b6124ac81612e7a565b73ffffffffffffffffffffffffffffffffffffffff811630146124ac576040517f66719b7a000000000000000000000000000000000000000000000000000000008152336004820152602401612a9e565b5f5f8260200151835f0151612b169190614ecc565b61016090930151519293915050565b5f80612b3760a08501608086016146fa565b73ffffffffffffffffffffffffffffffffffffffff163373ffffffffffffffffffffffffffffffffffffffff16149050612b718482613e3e565b600180545f9182612b8183615101565b919050559050604051806040016040528086612b9c90615178565b81528315156020918201525f83815260078252604090819020835180518255808401518051600184018054929096015161ffff90811662010000027fffffffffffffffffffffffffffffffffffffffffffffffffffffffff0000000090931691161717909355908201516002820155606082015160038201805473ffffffffffffffffffffffffffffffffffffffff9283167fffffffffffffffffffffffff000000000000000000000000000000000000000091821617909155608084015160048401805491909316911617905560a082015190919082906005820190612c839082615295565b5060c082015160068201805473ffffffffffffffffffffffffffffffffffffffff9283167fffffffffffffffffffffffff000000000000000000000000000000000000000090911617905560e08084015160078401556101008401516008840155610120840151600990930180546101409095015190911c74010000000000000000000000000000000000000000027fffffffffffffffff000000000000000000000000000000000000000000000000909416929091169190911791909117905560209190910151600a90910180549115157fffffffffffffffffffffffffffffffffffffffffffffffffffffffffffffff00909216919091179055835151151580612d9357505f846020015151115b15612dcf575f81815260096020526040902084518591908190612db69082615295565b5060208201516001820190612dcb9082615295565b5050505b3373ffffffffffffffffffffffffffffffffffffffff16817fa94a87c6a478ee9e74c583560db13c9b623c84cf97e82551f872fcd1a4800ffc8787604051612e18929190615488565b60405180910390a3949350505050565b5f5473ffffffffffffffffffffffffffffffffffffffff163314611b08576040517f118cdaa7000000000000000000000000000000000000000000000000000000008152336004820152602401612a9e565b5f805473ffffffffffffffffffffffffffffffffffffffff8381167fffffffffffffffffffffffff0000000000000000000000000000000000000000831681178455604051919092169283917f8be0079c531659141344cd1fd0a4f28419497f9722a3daafe3b4186f6b6457e09190a35050565b5f828218828410028218610d1c565b5f612f1a8461ffff8416612f1185876155d8565b61ffff1661414d565b949350505050565b5f6040517f23b872dd00000000000000000000000000000000000000000000000000000000815284600482015283602482015282604482015260205f6064835f8a5af13d15601f3d1160015f511416171691505080612617576040517f08c379a000000000000000000000000000000000000000000000000000000000815260206004820152601460248201527f5452414e534645525f46524f4d5f4641494c45440000000000000000000000006044820152606401612a9e565b5f6040517fa9059cbb00000000000000000000000000000000000000000000000000000000815283600482015282602482015260205f6044835f895af13d15601f3d1160015f511416171691505080610d03576040517f08c379a000000000000000000000000000000000000000000000000000000000815260206004820152600f60248201527f5452414e534645525f4641494c454400000000000000000000000000000000006044820152606401612a9e565b5f82815260076020908152604080832081516101a08101835281548184019081528351808501909452600183015461ffff8082168652620100009091041694840194909452606081019290925260028101546080830152600381015473ffffffffffffffffffffffffffffffffffffffff90811660a084015260048201541660c0830152600581018054859484929091849160e085019161313290614fa0565b80601f016020809104026020016040519081016040528092919081815260200182805461315e90614fa0565b80156131a95780601f10613180576101008083540402835291602001916131a9565b820191905f5260205f20905b81548152906001019060200180831161318c57829003601f168201915b5050509183525050600682015473ffffffffffffffffffffffffffffffffffffffff908116602080840191909152600784015460408401526008840154606080850191909152600990940154808316608085015274010000000000000000000000000000000000000000900460e01b7fffffffff000000000000000000000000000000000000000000000000000000001660a090930192909252928452600a949094015460ff16151592909301919091528251909101519192501661329a576040517f1d044d6100000000000000000000000000000000000000000000000000000000815260040160405180910390fd5b5f7f000000000000000000000000000000000000000000000000000000000000000073ffffffffffffffffffffffffffffffffffffffff166301a2cae86040518163ffffffff1660e01b8152600401602060405180830381865afa158015613304573d5f5f3e3d5ffd5b505050506040513d601f19601f820116820180604052508101906133289190614d1b565b8251608001516040517fbabcc53900000000000000000000000000000000000000000000000000000000815273ffffffffffffffffffffffffffffffffffffffff918216600482015291169063babcc53990602401602060405180830381865afa158015613398573d5f5f3e3d5ffd5b505050506040513d601f19601f820116820180604052508101906133bc91906150e6565b806134e357507f000000000000000000000000000000000000000000000000000000000000000073ffffffffffffffffffffffffffffffffffffffff166301a2cae86040518163ffffffff1660e01b8152600401602060405180830381865afa15801561342b573d5f5f3e3d5ffd5b505050506040513d601f19601f8201168201806040525081019061344f9190614d1b565b8251606001516040517fbabcc53900000000000000000000000000000000000000000000000000000000815273ffffffffffffffffffffffffffffffffffffffff918216600482015291169063babcc53990602401602060405180830381865afa1580156134bf573d5f5f3e3d5ffd5b505050506040513d601f19601f820116820180604052508101906134e391906150e6565b90505f8161357d577f000000000000000000000000000000000000000000000000000000000000000073ffffffffffffffffffffffffffffffffffffffff16638204c6276040518163ffffffff1660e01b8152600401602060405180830381865afa158015613554573d5f5f3e3d5ffd5b505050506040513d601f19601f820116820180604052508101906135789190614feb565b61357f565b5f5b90508034146135ba576040517fcd3cb2bb00000000000000000000000000000000000000000000000000000000815260040160405180910390fd5b82516101000151158015906135d457508251610100015142115b1561360b576040517f076802fc00000000000000000000000000000000000000000000000000000000815260040160405180910390fd5b8260200151156136715782516080015173ffffffffffffffffffffffffffffffffffffffff88811691161461366c576040517f2e15fb7c00000000000000000000000000000000000000000000000000000000815260040160405180910390fd5b613716565b82516060015173ffffffffffffffffffffffffffffffffffffffff8881169116146136c8576040517fe16e54be00000000000000000000000000000000000000000000000000000000815260040160405180910390fd5b73ffffffffffffffffffffffffffffffffffffffff851615613716576040517f2e15fb7c00000000000000000000000000000000000000000000000000000000815260040160405180910390fd5b5f73ffffffffffffffffffffffffffffffffffffffff861661373d5783516080015161373f565b855b90505f60095f8981526020019081526020015f206040518060400160405290815f8201805461376d90614fa0565b80601f016020809104026020016040519081016040528092919081815260200182805461379990614fa0565b80156137e45780601f106137bb576101008083540402835291602001916137e4565b820191905f5260205f20905b8154815290600101906020018083116137c757829003601f168201915b505050505081526020016001820180546137fd90614fa0565b80601f016020809104026020016040519081016040528092919081815260200182805461382990614fa0565b80156138745780601f1061384b57610100808354040283529160200191613874565b820191905f5260205f20905b81548152906001019060200180831161385757829003601f168201915b505050919092525050505f8981526007602052604081208181556001810180547fffffffffffffffffffffffffffffffffffffffffffffffffffffffff00000000169055600281018290556003810180547fffffffffffffffffffffffff0000000000000000000000000000000000000000908116909155600482018054909116905591925081816139096005830182614465565b506006810180547fffffffffffffffffffffffff00000000000000000000000000000000000000001690555f6007820181905560088201819055600991820180547fffffffffffffffff000000000000000000000000000000000000000000000000169055600a9390930180547fffffffffffffffffffffffffffffffffffffffffffffffffffffffffffffff001690558a83526020525060408120906139b08282614465565b6139bd600183015f614465565b50505f604051806101000160405280875f01516060015173ffffffffffffffffffffffffffffffffffffffff168152602001875f01516080015173ffffffffffffffffffffffffffffffffffffffff168152602001875f0151604001518152602001875f015160a001518152602001875f015160c0015173ffffffffffffffffffffffffffffffffffffffff168152602001600280811115613a6157613a61614715565b8152875151602090910190613a76904261505c565b8152875160e001516020909101528251519091505f90151580613a9d57505f836020015151115b15613b64578651608001516040517e4b382900000000000000000000000000000000000000000000000000000000815273ffffffffffffffffffffffffffffffffffffffff7f00000000000000000000000000000000000000000000000000000000000000001691624b3829918891613b1c91879089906004016156ad565b60206040518083038185885af1158015613b38573d5f5f3e3d5ffd5b50505050506040513d601f19601f82011682018060405250810190613b5d9190614feb565b9050613c22565b8651608001516040517f1461f12600000000000000000000000000000000000000000000000000000000815273ffffffffffffffffffffffffffffffffffffffff7f00000000000000000000000000000000000000000000000000000000000000001691631461f126918891613bde9187906004016156f7565b60206040518083038185885af1158015613bfa573d5f5f3e3d5ffd5b50505050506040513d601f19601f82011682018060405250810190613c1f9190614feb565b90505b6040518060800160405280428152602001885f015160200151815260200160405180608001604052805f81526020015f815260200189613c685760025461ffff16613c6a565b5f5b61ffff90811682525f60209283018190529284528a1515938201939093528482526008815260409182902084518155848201518051600183018054928501519187167fffffffffffffffffffffffffffffffffffffffffffffffffffffffff000000009093169290921762010000918716919091021790558483015180516002830155918201516003820155818301516004820180547fffffffffffffffffffffffffffffffffffffffffffffffffffffffffffff0000169190951617909355606090810151600584015592830151600690920180547fffffffffffffffffffffffffffffffffffffffffffffffffffffffffffffff0016921515929092179091558851918201519082015160c090920151613da19273ffffffffffffffffffffffffffffffffffffffff90911691908790612f22565b8651610120015173ffffffffffffffffffffffffffffffffffffffff1615613dde57865161012081015161014090910151613dde91908c846141fd565b8373ffffffffffffffffffffffffffffffffffffffff16818b7f63ed3086527ad0676b4719a7f0d73002be987ac3050d97a6e2dfc20fe0a2c7d28887604051613e28929190615725565b60405180910390a49a9950505050505050505050565b80158015613e875750613e5760c0830160a084016146fa565b73ffffffffffffffffffffffffffffffffffffffff163373ffffffffffffffffffffffffffffffffffffffff1614155b15613ebe576040517f5d6db4c200000000000000000000000000000000000000000000000000000000815260040160405180910390fd5b81355f03613ef8576040517fd88194e100000000000000000000000000000000000000000000000000000000815260040160405180910390fd5b5f613f0a610100840160e085016146fa565b73ffffffffffffffffffffffffffffffffffffffff1603613f57576040517fb10b947e00000000000000000000000000000000000000000000000000000000815260040160405180910390fd5b64ffffffffff6101008301351115613f9b576040517fd7c43e0f00000000000000000000000000000000000000000000000000000000815260040160405180910390fd5b5f826101200135118015613fb3575081610120013542115b15613fea576040517f076802fc00000000000000000000000000000000000000000000000000000000815260040160405180910390fd5b5f613ffd610160840161014085016146fa565b73ffffffffffffffffffffffffffffffffffffffff16146140d25760065f61402d610160850161014086016146fa565b73ffffffffffffffffffffffffffffffffffffffff16815260208101919091526040015f9081209061406761018085016101608601614581565b7fffffffff0000000000000000000000000000000000000000000000000000000016815260208101919091526040015f205460ff166140d2576040517f8e792a0500000000000000000000000000000000000000000000000000000000815260040160405180910390fd5b6040517f9d6c6ae700000000000000000000000000000000000000000000000000000000815273__$4bbbaa6d90f42a60403c514cce5191a63a$__90639d6c6ae79061412590602086019060040161573d565b5f6040518083038186803b15801561413b575f5ffd5b505af41580156117c1573d5f5f3e3d5ffd5b5f5f5f61415a8686614310565b91509150815f0361417e578381816141745761417461574b565b0492505050610d1c565b81841161419557614195600385150260111861434b565b5f848688095f868103871696879004966002600389028118808a02820302808a02820302808a02820302808a02820302808a02820302808a02909103029181900381900460010185841190960395909502919093039390930492909217029150509392505050565b6040805160248101849052604480820184905282518083039091018152606490910182526020810180517bffffffffffffffffffffffffffffffffffffffffffffffffffffffff167fffffffff00000000000000000000000000000000000000000000000000000000871617905290515f90819073ffffffffffffffffffffffffffffffffffffffff881690614294908590615778565b5f604051808303815f865af19150503d805f81146142cd576040519150601f19603f3d011682016040523d82523d5f602084013e6142d2565b606091505b509150915081610b6657806040517f30b9b6dd000000000000000000000000000000000000000000000000000000008152600401612a9e919061578e565b5f807fffffffffffffffffffffffffffffffffffffffffffffffffffffffffffffffff83850993909202808410938190039390930393915050565b634e487b715f52806020526024601cfd5b6040518061018001604052805f81526020015f81526020015f600581111561438657614386614715565b81526020015f81526020015f73ffffffffffffffffffffffffffffffffffffffff1681526020015f73ffffffffffffffffffffffffffffffffffffffff1681526020015f73ffffffffffffffffffffffffffffffffffffffff1681526020015f73ffffffffffffffffffffffffffffffffffffffff1681526020015f81526020015f815260200161443060405180604001604052805f61ffff1681526020015f61ffff1681525090565b815260200161446060405180608001604052805f81526020015f81526020015f61ffff1681526020015f81525090565b905290565b50805461447190614fa0565b5f825580601f10614480575050565b601f0160209004905f5260205f20908101906124ac91906144bb565b60405180604001604052806144af6144d3565b81525f60209091015290565b5b808211156144cf575f81556001016144bc565b5090565b6040518061016001604052805f815260200161450860405180604001604052805f61ffff1681526020015f61ffff1681525090565b81525f60208201819052604082018190526060808301829052608083015260a0820181905260c0820181905260e0820181905261010082018190526101209091015290565b80357fffffffff000000000000000000000000000000000000000000000000000000008116811461457c575f5ffd5b919050565b5f60208284031215614591575f5ffd5b610d1c8261454d565b73ffffffffffffffffffffffffffffffffffffffff811681146124ac575f5ffd5b803561457c8161459a565b5f5f604083850312156145d7575f5ffd5b82356145e28161459a565b91506145f06020840161454d565b90509250929050565b5f60208284031215614609575f5ffd5b5035919050565b5f5f60408385031215614621575f5ffd5b823561462c8161459a565b946020939093013593505050565b5f5f5f6060848603121561464c575f5ffd5b83356146578161459a565b925060208401356146678161459a565b929592945050506040919091013590565b5f6101808284031215614689575f5ffd5b50919050565b5f5f604083850312156146a0575f5ffd5b823567ffffffffffffffff8111156146b6575f5ffd5b6146c285828601614678565b925050602083013567ffffffffffffffff8111156146de575f5ffd5b8301604081860312156146ef575f5ffd5b809150509250929050565b5f6020828403121561470a575f5ffd5b8135610d1c8161459a565b7f4e487b71000000000000000000000000000000000000000000000000000000005f52602160045260245ffd5b6006811061475257614752614715565b9052565b6003811061475257614752614715565b5f610200820190508251825260208301516020830152604083015161478e6040840182614742565b5060608301516147a16060840182614756565b5060808301516147c9608084018273ffffffffffffffffffffffffffffffffffffffff169052565b5060a08301516147f160a084018273ffffffffffffffffffffffffffffffffffffffff169052565b5060c083015161481960c084018273ffffffffffffffffffffffffffffffffffffffff169052565b5060e083015161484160e084018273ffffffffffffffffffffffffffffffffffffffff169052565b5061010083015161010083015261012083015161012083015261014083015161487f610140840182805161ffff908116835260209182015116910152565b506101609290920151805161018083015260208101516101a0830152604081015161ffff166101c0830152606001516101e09091015290565b5f81518084528060208401602086015e5f6020828601015260207fffffffffffffffffffffffffffffffffffffffffffffffffffffffffffffffe0601f83011685010191505092915050565b602081525f82516040602084015280516060840152602081015161493c6080850182805161ffff908116835260209182015116910152565b50604081015160c0840152606081015173ffffffffffffffffffffffffffffffffffffffff90811660e085015260808201511661010084015260a08101516101806101208501526149916101e08501826148b8565b905060c08201516149bb61014086018273ffffffffffffffffffffffffffffffffffffffff169052565b5060e082015161016085015261010082015161018085015261012082015173ffffffffffffffffffffffffffffffffffffffff166101a0850152610140909101517fffffffff00000000000000000000000000000000000000000000000000000000166101c08401526020840151801515604085015290949350505050565b5f5f60408385031215614a4b575f5ffd5b50508035926020909101359150565b5f60208284031215614a6a575f5ffd5b813567ffffffffffffffff811115614a80575f5ffd5b612f1a84828501614678565b80151581146124ac575f5ffd5b5f5f60408385031215614aaa575f5ffd5b8235614ab58161459a565b915060208301356146ef81614a8c565b7f4e487b71000000000000000000000000000000000000000000000000000000005f52604160045260245ffd5b604051610160810167ffffffffffffffff81118282101715614b1657614b16614ac5565b60405290565b6040805190810167ffffffffffffffff81118282101715614b1657614b16614ac5565b5f5f67ffffffffffffffff841115614b5957614b59614ac5565b506040517fffffffffffffffffffffffffffffffffffffffffffffffffffffffffffffffe0601f85018116603f0116810181811067ffffffffffffffff82111715614ba657614ba6614ac5565b604052838152905080828401851015614bbd575f5ffd5b838360208301375f60208583010152509392505050565b5f5f5f5f60808587031215614be7575f5ffd5b8435614bf28161459a565b93506020850135614c028161459a565b925060408501359150606085013567ffffffffffffffff811115614c24575f5ffd5b8501601f81018713614c34575f5ffd5b614c4387823560208401614b3f565b91505092959194509250565b5f5f60408385031215614c60575f5ffd5b8235915060208301356146ef8161459a565b5f815160408452614c8660408501826148b8565b905060208301518482036020860152614c9f82826148b8565b95945050505050565b602081525f610d1c6020830184614c72565b61ffff811681146124ac575f5ffd5b5f60208284031215614cd9575f5ffd5b8135610d1c81614cba565b5f5f60408385031215614cf5575f5ffd5b8235614d008161459a565b915060208301356146ef8161459a565b805161457c8161459a565b5f60208284031215614d2b575f5ffd5b8151610d1c8161459a565b80516006811061457c575f5ffd5b80516003811061457c575f5ffd5b5f610160828403128015614d64575f5ffd5b50614d6d614af2565b82518152602080840151908201526040808401519082015260608084015190820152614d9b60808401614d10565b6080820152614dac60a08401614d10565b60a0820152614dbd60c08401614d10565b60c0820152614dce60e08401614d10565b60e0820152614de06101008401614d10565b610100820152614df36101208401614d36565b610120820152614e066101408401614d44565b6101408201529392505050565b5f82601f830112614e22575f5ffd5b610d1c83833560208501614b3f565b5f60408236031215614e41575f5ffd5b614e49614b1c565b823567ffffffffffffffff811115614e5f575f5ffd5b614e6b36828601614e13565b825250602083013567ffffffffffffffff811115614e87575f5ffd5b614e9336828601614e13565b60208301525092915050565b7f4e487b71000000000000000000000000000000000000000000000000000000005f52601160045260245ffd5b8181038181111561094b5761094b614e9f565b8481526020808201859052835161ffff908116604084015290840151166060820152610100810182516080830152602083015160a0830152604083015161ffff1660c0830152606083015160e0830152614c9f565b5f6080828403128015614f45575f5ffd5b506040516080810167ffffffffffffffff81118282101715614f6957614f69614ac5565b60409081528351825260208085015190830152830151614f8881614cba565b60408201526060928301519281019290925250919050565b600181811c90821680614fb457607f821691505b602082108103614689577f4e487b71000000000000000000000000000000000000000000000000000000005f52602260045260245ffd5b5f60208284031215614ffb575f5ffd5b5051919050565b7f4e487b71000000000000000000000000000000000000000000000000000000005f52603260045260245ffd5b7f4e487b71000000000000000000000000000000000000000000000000000000005f52603160045260245ffd5b8082018082111561094b5761094b614e9f565b73ffffffffffffffffffffffffffffffffffffffff8616815273ffffffffffffffffffffffffffffffffffffffff8516602082015273ffffffffffffffffffffffffffffffffffffffff8416604082015282606082015260a060808201525f6150db60a08301846148b8565b979650505050505050565b5f602082840312156150f6575f5ffd5b8151610d1c81614a8c565b5f7fffffffffffffffffffffffffffffffffffffffffffffffffffffffffffffffff820361513157615131614e9f565b5060010190565b5f60408284031215615148575f5ffd5b615150614b1c565b9050813561515d81614cba565b8152602082013561516d81614cba565b602082015292915050565b5f6101808236031215615189575f5ffd5b615191614af2565b823581526151a23660208501615138565b6020820152606083013560408201526151bd608084016145bb565b60608201526151ce60a084016145bb565b608082015260c083013567ffffffffffffffff8111156151ec575f5ffd5b6151f836828601614e13565b60a08301525061520a60e084016145bb565b60c08201526101008381013560e08301526101208401359082015261523261014084016145bb565b610120820152615245610160840161454d565b61014082015292915050565b601f821115610b6b57805f5260205f20601f840160051c810160208510156152765750805b601f840160051c820191505b81811015612617575f8155600101615282565b815167ffffffffffffffff8111156152af576152af614ac5565b6152c3816152bd8454614fa0565b84615251565b6020601f821160018114615314575f83156152de5750848201515b7fffffffffffffffffffffffffffffffffffffffffffffffffffffffffffffffff600385901b1c1916600184901b178455612617565b5f848152602081207fffffffffffffffffffffffffffffffffffffffffffffffffffffffffffffffe08516915b828110156153615787850151825560209485019460019092019101615341565b508482101561539d57868401517fffffffffffffffffffffffffffffffffffffffffffffffffffffffffffffffff600387901b60f8161c191681555b50505050600190811b01905550565b80356153b781614cba565b61ffff16825260208101356153cb81614cba565b61ffff81166020840152505050565b5f5f83357fffffffffffffffffffffffffffffffffffffffffffffffffffffffffffffffe184360301811261540d575f5ffd5b830160208101925035905067ffffffffffffffff81111561542c575f5ffd5b80360382131561543a575f5ffd5b9250929050565b81835281816020850137505f602082840101525f60207fffffffffffffffffffffffffffffffffffffffffffffffffffffffffffffffe0601f840116840101905092915050565b60408082528335908201525f6154a460608301602086016153ac565b606084013560a08301526154ba608085016145bb565b73ffffffffffffffffffffffffffffffffffffffff1660c08301526154e160a085016145bb565b73ffffffffffffffffffffffffffffffffffffffff1660e083015261550960c08501856153da565b6101806101008501526155216101c085018284615441565b91505061553060e086016145bb565b73ffffffffffffffffffffffffffffffffffffffff811661012085015250610100850135610140848101919091526101208601356101608501526155759086016145bb565b73ffffffffffffffffffffffffffffffffffffffff1661018084015261559e610160860161454d565b7fffffffff00000000000000000000000000000000000000000000000000000000166101a08401528281036020840152614c9f8185614c72565b61ffff818116838216019081111561094b5761094b614e9f565b73ffffffffffffffffffffffffffffffffffffffff815116825273ffffffffffffffffffffffffffffffffffffffff6020820151166020830152604081015160408301525f606082015161010060608501526156526101008501826148b8565b9050608083015161567b608086018273ffffffffffffffffffffffffffffffffffffffff169052565b5060a083015161568e60a0860182614756565b5060c083015160c085015260e083015160e08501528091505092915050565b73ffffffffffffffffffffffffffffffffffffffff84168152606060208201525f6156db60608301856155f2565b82810360408401526156ed8185614c72565b9695505050505050565b73ffffffffffffffffffffffffffffffffffffffff83168152604060208201525f612f1a60408301846155f2565b828152604060208201525f612f1a6040830184614c72565b6040810161094b82846153ac565b7f4e487b71000000000000000000000000000000000000000000000000000000005f52601260045260245ffd5b5f82518060208501845e5f920191825250919050565b602081525f610d1c60208301846148b856fea2646970667358221220b55e5125fe6eee4858ffe9f3474b5e80b2e449326780aea341bd98efdf47b25164736f6c634300081e0033","linkReferences":{"src/libraries/CompoundInterestLib.sol":{"CompoundInterestLib":[{"start":5077,"length":20},{"start":17584,"length":20}]}}},"methodIdentifiers":{"_bullaClaim()":"2b538af5","acceptLoan(uint256)":"adfbe22f","acceptLoanWithReceiver(uint256,address)":"b9108c03","addToCallbackWhitelist(address,bytes4)":"307a8088","addToFeeTokenWhitelist(address)":"d4251f9e","admin()":"f851a440","approve(address,uint256)":"095ea7b3","balanceOf(address)":"70a08231","callbackWhitelist(address,bytes4)":"04dbf913","getApproved(uint256)":"081812fc","getLoan(uint256)":"504006ca","getLoanOffer(uint256)":"631f1a3c","getLoanOfferMetadata(uint256)":"db4e0899","getTotalAmountDue(uint256)":"1bc7cd3d","impairLoan(uint256)":"623fb7ce","isApprovedForAll(address,address)":"e985e9c5","isCallbackWhitelisted(address,bytes4)":"a64d6beb","loanOfferCount()":"150a6422","markLoanAsPaid(uint256)":"88046146","offerLoan((uint256,(uint16,uint16),uint256,address,address,string,address,uint256,uint256,address,bytes4))":"a15c24f3","offerLoanWithMetadata((uint256,(uint16,uint16),uint256,address,address,string,address,uint256,uint256,address,bytes4),(string,string))":"2d1982ff","owner()":"8da5cb5b","ownerOf(uint256)":"6352211e","payLoan(uint256,uint256)":"89306e61","protocolFeeBPS()":"96daa322","protocolFeeTokenWhitelist(address)":"a5cc6a7f","protocolFeesByToken(address)":"39737e07","rejectLoanOffer(uint256)":"6208d89c","removeFromCallbackWhitelist(address,bytes4)":"520eb076","removeFromFeeTokenWhitelist(address)":"82459995","renounceOwnership()":"715018a6","safeTransferFrom(address,address,uint256)":"42842e0e","safeTransferFrom(address,address,uint256,bytes)":"b88d4fde","setApprovalForAll(address,bool)":"a22cb465","setProtocolFee(uint16)":"e4467f35","supportsInterface(bytes4)":"01ffc9a7","transferFrom(address,address,uint256)":"23b872dd","transferOwnership(address)":"f2fde38b","whitelistedProtocolFeeTokens(uint256)":"4be18e94","withdrawAllFees()":"af236af4"},"id":91}