{"abi":[{"type":"constructor","inputs":[{"name":"_approvalRegistry","type":"address","internalType":"address"},{"name":"_lockState","type":"uint8","internalType":"enum LockState"},{"name":"_coreProtocolFee","type":"uint256","internalType":"uint256"},{"name":"_feeExemptions","type":"address","internalType":"address"}],"stateMutability":"nonpayable"},{"type":"function","name":"CORE_PROTOCOL_FEE","inputs":[],"outputs":[{"name":"","type":"uint256","internalType":"uint256"}],"stateMutability":"view"},{"type":"function","name":"approvalRegistry","inputs":[],"outputs":[{"name":"","type":"address","internalType":"contract IBullaApprovalRegistry"}],"stateMutability":"view"},{"type":"function","name":"approve","inputs":[{"name":"to","type":"address","internalType":"address"},{"name":"claimId","type":"uint256","internalType":"uint256"}],"outputs":[],"stateMutability":"nonpayable"},{"type":"function","name":"approveFrom","inputs":[{"name":"from","type":"address","internalType":"address"},{"name":"to","type":"address","internalType":"address"},{"name":"claimId","type":"uint256","internalType":"uint256"}],"outputs":[],"stateMutability":"nonpayable"},{"type":"function","name":"balanceOf","inputs":[{"name":"owner","type":"address","internalType":"address"}],"outputs":[{"name":"","type":"uint256","internalType":"uint256"}],"stateMutability":"view"},{"type":"function","name":"cancelClaim","inputs":[{"name":"claimId","type":"uint256","internalType":"uint256"},{"name":"note","type":"string","internalType":"string"}],"outputs":[],"stateMutability":"nonpayable"},{"type":"function","name":"cancelClaimFrom","inputs":[{"name":"from","type":"address","internalType":"address"},{"name":"claimId","type":"uint256","internalType":"uint256"},{"name":"note","type":"string","internalType":"string"}],"outputs":[],"stateMutability":"nonpayable"},{"type":"function","name":"claimMetadata","inputs":[{"name":"","type":"uint256","internalType":"uint256"}],"outputs":[{"name":"tokenURI","type":"string","internalType":"string"},{"name":"attachmentURI","type":"string","internalType":"string"}],"stateMutability":"view"},{"type":"function","name":"claimMetadataGenerator","inputs":[],"outputs":[{"name":"","type":"address","internalType":"contract IClaimMetadataGenerator"}],"stateMutability":"view"},{"type":"function","name":"createClaim","inputs":[{"name":"params","type":"tuple","internalType":"struct CreateClaimParams","components":[{"name":"creditor","type":"address","internalType":"address"},{"name":"debtor","type":"address","internalType":"address"},{"name":"claimAmount","type":"uint256","internalType":"uint256"},{"name":"description","type":"string","internalType":"string"},{"name":"token","type":"address","internalType":"address"},{"name":"binding","type":"uint8","internalType":"enum ClaimBinding"},{"name":"dueBy","type":"uint256","internalType":"uint256"},{"name":"impairmentGracePeriod","type":"uint256","internalType":"uint256"}]}],"outputs":[{"name":"","type":"uint256","internalType":"uint256"}],"stateMutability":"payable"},{"type":"function","name":"createClaimFrom","inputs":[{"name":"from","type":"address","internalType":"address"},{"name":"params","type":"tuple","internalType":"struct CreateClaimParams","components":[{"name":"creditor","type":"address","internalType":"address"},{"name":"debtor","type":"address","internalType":"address"},{"name":"claimAmount","type":"uint256","internalType":"uint256"},{"name":"description","type":"string","internalType":"string"},{"name":"token","type":"address","internalType":"address"},{"name":"binding","type":"uint8","internalType":"enum ClaimBinding"},{"name":"dueBy","type":"uint256","internalType":"uint256"},{"name":"impairmentGracePeriod","type":"uint256","internalType":"uint256"}]}],"outputs":[{"name":"","type":"uint256","internalType":"uint256"}],"stateMutability":"payable"},{"type":"function","name":"createClaimWithMetadata","inputs":[{"name":"params","type":"tuple","internalType":"struct CreateClaimParams","components":[{"name":"creditor","type":"address","internalType":"address"},{"name":"debtor","type":"address","internalType":"address"},{"name":"claimAmount","type":"uint256","internalType":"uint256"},{"name":"description","type":"string","internalType":"string"},{"name":"token","type":"address","internalType":"address"},{"name":"binding","type":"uint8","internalType":"enum ClaimBinding"},{"name":"dueBy","type":"uint256","internalType":"uint256"},{"name":"impairmentGracePeriod","type":"uint256","internalType":"uint256"}]},{"name":"metadata","type":"tuple","internalType":"struct ClaimMetadata","components":[{"name":"tokenURI","type":"string","internalType":"string"},{"name":"attachmentURI","type":"string","internalType":"string"}]}],"outputs":[{"name":"","type":"uint256","internalType":"uint256"}],"stateMutability":"payable"},{"type":"function","name":"createClaimWithMetadataFrom","inputs":[{"name":"from","type":"address","internalType":"address"},{"name":"params","type":"tuple","internalType":"struct CreateClaimParams","components":[{"name":"creditor","type":"address","internalType":"address"},{"name":"debtor","type":"address","internalType":"address"},{"name":"claimAmount","type":"uint256","internalType":"uint256"},{"name":"description","type":"string","internalType":"string"},{"name":"token","type":"address","internalType":"address"},{"name":"binding","type":"uint8","internalType":"enum ClaimBinding"},{"name":"dueBy","type":"uint256","internalType":"uint256"},{"name":"impairmentGracePeriod","type":"uint256","internalType":"uint256"}]},{"name":"metadata","type":"tuple","internalType":"struct ClaimMetadata","components":[{"name":"tokenURI","type":"string","internalType":"string"},{"name":"attachmentURI","type":"string","internalType":"string"}]}],"outputs":[{"name":"","type":"uint256","internalType":"uint256"}],"stateMutability":"payable"},{"type":"function","name":"currentClaimId","inputs":[],"outputs":[{"name":"","type":"uint256","internalType":"uint256"}],"stateMutability":"view"},{"type":"function","name":"feeExemptions","inputs":[],"outputs":[{"name":"","type":"address","internalType":"contract IPermissions"}],"stateMutability":"view"},{"type":"function","name":"getApproved","inputs":[{"name":"tokenId","type":"uint256","internalType":"uint256"}],"outputs":[{"name":"","type":"address","internalType":"address"}],"stateMutability":"view"},{"type":"function","name":"getClaim","inputs":[{"name":"claimId","type":"uint256","internalType":"uint256"}],"outputs":[{"name":"claim","type":"tuple","internalType":"struct Claim","components":[{"name":"claimAmount","type":"uint256","internalType":"uint256"},{"name":"paidAmount","type":"uint256","internalType":"uint256"},{"name":"dueBy","type":"uint256","internalType":"uint256"},{"name":"impairmentGracePeriod","type":"uint256","internalType":"uint256"},{"name":"originalCreditor","type":"address","internalType":"address"},{"name":"debtor","type":"address","internalType":"address"},{"name":"creditor","type":"address","internalType":"address"},{"name":"token","type":"address","internalType":"address"},{"name":"controller","type":"address","internalType":"address"},{"name":"status","type":"uint8","internalType":"enum Status"},{"name":"binding","type":"uint8","internalType":"enum ClaimBinding"}]}],"stateMutability":"view"},{"type":"function","name":"impairClaim","inputs":[{"name":"claimId","type":"uint256","internalType":"uint256"}],"outputs":[],"stateMutability":"nonpayable"},{"type":"function","name":"impairClaimFrom","inputs":[{"name":"from","type":"address","internalType":"address"},{"name":"claimId","type":"uint256","internalType":"uint256"}],"outputs":[],"stateMutability":"nonpayable"},{"type":"function","name":"isApprovedForAll","inputs":[{"name":"owner","type":"address","internalType":"address"},{"name":"operator","type":"address","internalType":"address"}],"outputs":[{"name":"","type":"bool","internalType":"bool"}],"stateMutability":"view"},{"type":"function","name":"lockState","inputs":[],"outputs":[{"name":"","type":"uint8","internalType":"enum LockState"}],"stateMutability":"view"},{"type":"function","name":"markClaimAsPaid","inputs":[{"name":"claimId","type":"uint256","internalType":"uint256"}],"outputs":[],"stateMutability":"nonpayable"},{"type":"function","name":"markClaimAsPaidFrom","inputs":[{"name":"from","type":"address","internalType":"address"},{"name":"claimId","type":"uint256","internalType":"uint256"}],"outputs":[],"stateMutability":"nonpayable"},{"type":"function","name":"name","inputs":[],"outputs":[{"name":"","type":"string","internalType":"string"}],"stateMutability":"view"},{"type":"function","name":"owner","inputs":[],"outputs":[{"name":"","type":"address","internalType":"address"}],"stateMutability":"view"},{"type":"function","name":"ownerOf","inputs":[{"name":"claimId","type":"uint256","internalType":"uint256"}],"outputs":[{"name":"","type":"address","internalType":"address"}],"stateMutability":"view"},{"type":"function","name":"payClaim","inputs":[{"name":"claimId","type":"uint256","internalType":"uint256"},{"name":"amount","type":"uint256","internalType":"uint256"}],"outputs":[],"stateMutability":"payable"},{"type":"function","name":"payClaimFrom","inputs":[{"name":"from","type":"address","internalType":"address"},{"name":"claimId","type":"uint256","internalType":"uint256"},{"name":"amount","type":"uint256","internalType":"uint256"}],"outputs":[],"stateMutability":"payable"},{"type":"function","name":"payClaimFromControllerWithoutTransfer","inputs":[{"name":"from","type":"address","internalType":"address"},{"name":"claimId","type":"uint256","internalType":"uint256"},{"name":"amount","type":"uint256","internalType":"uint256"}],"outputs":[],"stateMutability":"nonpayable"},{"type":"function","name":"renounceOwnership","inputs":[],"outputs":[],"stateMutability":"nonpayable"},{"type":"function","name":"safeTransferFrom","inputs":[{"name":"from","type":"address","internalType":"address"},{"name":"to","type":"address","internalType":"address"},{"name":"tokenId","type":"uint256","internalType":"uint256"}],"outputs":[],"stateMutability":"nonpayable"},{"type":"function","name":"safeTransferFrom","inputs":[{"name":"from","type":"address","internalType":"address"},{"name":"to","type":"address","internalType":"address"},{"name":"claimId","type":"uint256","internalType":"uint256"},{"name":"data","type":"bytes","internalType":"bytes"}],"outputs":[],"stateMutability":"nonpayable"},{"type":"function","name":"safeTransferFromFrom","inputs":[{"name":"fromAkaOriginalMsgSender","type":"address","internalType":"address"},{"name":"fromAkaNftOwner","type":"address","internalType":"address"},{"name":"to","type":"address","internalType":"address"},{"name":"claimId","type":"uint256","internalType":"uint256"},{"name":"data","type":"bytes","internalType":"bytes"}],"outputs":[],"stateMutability":"nonpayable"},{"type":"function","name":"setApprovalForAll","inputs":[{"name":"","type":"address","internalType":"address"},{"name":"","type":"bool","internalType":"bool"}],"outputs":[],"stateMutability":"pure"},{"type":"function","name":"setClaimMetadataGenerator","inputs":[{"name":"_metadataGenerator","type":"address","internalType":"address"}],"outputs":[],"stateMutability":"nonpayable"},{"type":"function","name":"setCoreProtocolFee","inputs":[{"name":"_coreProtocolFee","type":"uint256","internalType":"uint256"}],"outputs":[],"stateMutability":"nonpayable"},{"type":"function","name":"setFeeExemptions","inputs":[{"name":"_feeExemptions","type":"address","internalType":"address"}],"outputs":[],"stateMutability":"nonpayable"},{"type":"function","name":"setLockState","inputs":[{"name":"_lockState","type":"uint8","internalType":"enum LockState"}],"outputs":[],"stateMutability":"nonpayable"},{"type":"function","name":"supportsInterface","inputs":[{"name":"interfaceId","type":"bytes4","internalType":"bytes4"}],"outputs":[{"name":"","type":"bool","internalType":"bool"}],"stateMutability":"view"},{"type":"function","name":"symbol","inputs":[],"outputs":[{"name":"","type":"string","internalType":"string"}],"stateMutability":"view"},{"type":"function","name":"tokenURI","inputs":[{"name":"claimId","type":"uint256","internalType":"uint256"}],"outputs":[{"name":"","type":"string","internalType":"string"}],"stateMutability":"view"},{"type":"function","name":"transferFrom","inputs":[{"name":"from","type":"address","internalType":"address"},{"name":"to","type":"address","internalType":"address"},{"name":"claimId","type":"uint256","internalType":"uint256"}],"outputs":[],"stateMutability":"nonpayable"},{"type":"function","name":"transferFromFrom","inputs":[{"name":"fromAkaOriginalMsgSender","type":"address","internalType":"address"},{"name":"fromAkaNftOwner","type":"address","internalType":"address"},{"name":"to","type":"address","internalType":"address"},{"name":"claimId","type":"uint256","internalType":"uint256"}],"outputs":[],"stateMutability":"nonpayable"},{"type":"function","name":"transferOwnership","inputs":[{"name":"newOwner","type":"address","internalType":"address"}],"outputs":[],"stateMutability":"nonpayable"},{"type":"function","name":"updateBinding","inputs":[{"name":"claimId","type":"uint256","internalType":"uint256"},{"name":"binding","type":"uint8","internalType":"enum ClaimBinding"}],"outputs":[],"stateMutability":"nonpayable"},{"type":"function","name":"updateBindingFrom","inputs":[{"name":"from","type":"address","internalType":"address"},{"name":"claimId","type":"uint256","internalType":"uint256"},{"name":"binding","type":"uint8","internalType":"enum ClaimBinding"}],"outputs":[],"stateMutability":"nonpayable"},{"type":"function","name":"withdrawAllFees","inputs":[],"outputs":[],"stateMutability":"nonpayable"},{"type":"event","name":"Approval","inputs":[{"name":"owner","type":"address","indexed":true,"internalType":"address"},{"name":"approved","type":"address","indexed":true,"internalType":"address"},{"name":"tokenId","type":"uint256","indexed":true,"internalType":"uint256"}],"anonymous":false},{"type":"event","name":"ApprovalForAll","inputs":[{"name":"owner","type":"address","indexed":true,"internalType":"address"},{"name":"operator","type":"address","indexed":true,"internalType":"address"},{"name":"approved","type":"bool","indexed":false,"internalType":"bool"}],"anonymous":false},{"type":"event","name":"BindingUpdated","inputs":[{"name":"claimId","type":"uint256","indexed":true,"internalType":"uint256"},{"name":"from","type":"address","indexed":true,"internalType":"address"},{"name":"binding","type":"uint8","indexed":true,"internalType":"enum ClaimBinding"}],"anonymous":false},{"type":"event","name":"ClaimCreated","inputs":[{"name":"claimId","type":"uint256","indexed":true,"internalType":"uint256"},{"name":"from","type":"address","indexed":false,"internalType":"address"},{"name":"creditor","type":"address","indexed":true,"internalType":"address"},{"name":"debtor","type":"address","indexed":true,"internalType":"address"},{"name":"claimAmount","type":"uint256","indexed":false,"internalType":"uint256"},{"name":"dueBy","type":"uint256","indexed":false,"internalType":"uint256"},{"name":"description","type":"string","indexed":false,"internalType":"string"},{"name":"token","type":"address","indexed":false,"internalType":"address"},{"name":"controller","type":"address","indexed":false,"internalType":"address"},{"name":"binding","type":"uint8","indexed":false,"internalType":"enum ClaimBinding"}],"anonymous":false},{"type":"event","name":"ClaimImpaired","inputs":[{"name":"claimId","type":"uint256","indexed":true,"internalType":"uint256"}],"anonymous":false},{"type":"event","name":"ClaimMarkedAsPaid","inputs":[{"name":"claimId","type":"uint256","indexed":true,"internalType":"uint256"}],"anonymous":false},{"type":"event","name":"ClaimPayment","inputs":[{"name":"claimId","type":"uint256","indexed":true,"internalType":"uint256"},{"name":"paidBy","type":"address","indexed":true,"internalType":"address"},{"name":"paymentAmount","type":"uint256","indexed":false,"internalType":"uint256"},{"name":"totalPaidAmount","type":"uint256","indexed":false,"internalType":"uint256"}],"anonymous":false},{"type":"event","name":"ClaimRejected","inputs":[{"name":"claimId","type":"uint256","indexed":true,"internalType":"uint256"},{"name":"from","type":"address","indexed":true,"internalType":"address"},{"name":"note","type":"string","indexed":false,"internalType":"string"}],"anonymous":false},{"type":"event","name":"ClaimRescinded","inputs":[{"name":"claimId","type":"uint256","indexed":true,"internalType":"uint256"},{"name":"from","type":"address","indexed":true,"internalType":"address"},{"name":"note","type":"string","indexed":false,"internalType":"string"}],"anonymous":false},{"type":"event","name":"FeeWithdrawn","inputs":[{"name":"owner","type":"address","indexed":true,"internalType":"address"},{"name":"amount","type":"uint256","indexed":false,"internalType":"uint256"}],"anonymous":false},{"type":"event","name":"MetadataAdded","inputs":[{"name":"claimId","type":"uint256","indexed":true,"internalType":"uint256"},{"name":"tokenURI","type":"string","indexed":false,"internalType":"string"},{"name":"attachmentURI","type":"string","indexed":false,"internalType":"string"}],"anonymous":false},{"type":"event","name":"OwnershipTransferred","inputs":[{"name":"previousOwner","type":"address","indexed":true,"internalType":"address"},{"name":"newOwner","type":"address","indexed":true,"internalType":"address"}],"anonymous":false},{"type":"event","name":"Transfer","inputs":[{"name":"from","type":"address","indexed":true,"internalType":"address"},{"name":"to","type":"address","indexed":true,"internalType":"address"},{"name":"tokenId","type":"uint256","indexed":true,"internalType":"uint256"}],"anonymous":false},{"type":"error","name":"ApprovalExpired","inputs":[]},{"type":"error","name":"CannotBindClaim","inputs":[]},{"type":"error","name":"ClaimBound","inputs":[]},{"type":"error","name":"ClaimNotPending","inputs":[]},{"type":"error","name":"ClaimPending","inputs":[]},{"type":"error","name":"ERC721IncorrectOwner","inputs":[{"name":"sender","type":"address","internalType":"address"},{"name":"tokenId","type":"uint256","internalType":"uint256"},{"name":"owner","type":"address","internalType":"address"}]},{"type":"error","name":"ERC721InsufficientApproval","inputs":[{"name":"operator","type":"address","internalType":"address"},{"name":"tokenId","type":"uint256","internalType":"uint256"}]},{"type":"error","name":"ERC721InvalidApprover","inputs":[{"name":"approver","type":"address","internalType":"address"}]},{"type":"error","name":"ERC721InvalidOperator","inputs":[{"name":"operator","type":"address","internalType":"address"}]},{"type":"error","name":"ERC721InvalidOwner","inputs":[{"name":"owner","type":"address","internalType":"address"}]},{"type":"error","name":"ERC721InvalidReceiver","inputs":[{"name":"receiver","type":"address","internalType":"address"}]},{"type":"error","name":"ERC721InvalidSender","inputs":[{"name":"sender","type":"address","internalType":"address"}]},{"type":"error","name":"ERC721NonexistentToken","inputs":[{"name":"tokenId","type":"uint256","internalType":"uint256"}]},{"type":"error","name":"IncorrectFee","inputs":[]},{"type":"error","name":"IncorrectMsgValue","inputs":[]},{"type":"error","name":"InvalidInterface","inputs":[]},{"type":"error","name":"Locked","inputs":[]},{"type":"error","name":"MustBeControlledClaim","inputs":[]},{"type":"error","name":"NotApproved","inputs":[]},{"type":"error","name":"NotController","inputs":[{"name":"sender","type":"address","internalType":"address"}]},{"type":"error","name":"NotCreditor","inputs":[]},{"type":"error","name":"NotCreditorOrDebtor","inputs":[]},{"type":"error","name":"NotMinted","inputs":[]},{"type":"error","name":"NotOwner","inputs":[]},{"type":"error","name":"NotSupported","inputs":[]},{"type":"error","name":"OverPaying","inputs":[{"name":"paymentAmount","type":"uint256","internalType":"uint256"}]},{"type":"error","name":"OwnableInvalidOwner","inputs":[{"name":"owner","type":"address","internalType":"address"}]},{"type":"error","name":"OwnableUnauthorizedAccount","inputs":[{"name":"account","type":"address","internalType":"address"}]},{"type":"error","name":"PastApprovalDeadline","inputs":[]},{"type":"error","name":"PayingZero","inputs":[]},{"type":"error","name":"PaymentUnderApproved","inputs":[]},{"type":"error","name":"WithdrawalFailed","inputs":[]}],"bytecode":{"object":"0x608060405234801561000f575f5ffd5b50604051614c99380380614c9983398101604081905261002e9161019f565b336040518060400160405280600c81526020016b213ab63630a1b630b4b6ab1960a11b81525060405180604001604052806005815260200164434c41494d60d81b815250815f90816100809190610287565b50600161008d8282610287565b5050506001600160a01b0381166100bd57604051631e4fbdf760e01b81525f600482015260240160405180910390fd5b6100c681610133565b50600b80546001600160a01b0319166001600160a01b0386161790556009805484919060ff1916600183600281111561010157610101610341565b0217905550600d91909155600e80546001600160a01b0319166001600160a01b03909216919091179055506103559050565b600680546001600160a01b038381166001600160a01b0319831681179093556040519116919082907f8be0079c531659141344cd1fd0a4f28419497f9722a3daafe3b4186f6b6457e0905f90a35050565b80516001600160a01b038116811461019a575f5ffd5b919050565b5f5f5f5f608085870312156101b2575f5ffd5b6101bb85610184565b93506020850151600381106101ce575f5ffd5b604086015190935091506101e460608601610184565b905092959194509250565b634e487b7160e01b5f52604160045260245ffd5b600181811c9082168061021757607f821691505b60208210810361023557634e487b7160e01b5f52602260045260245ffd5b50919050565b601f82111561028257805f5260205f20601f840160051c810160208510156102605750805b601f840160051c820191505b8181101561027f575f815560010161026c565b50505b505050565b81516001600160401b038111156102a0576102a06101ef565b6102b4816102ae8454610203565b8461023b565b6020601f8211600181146102e6575f83156102cf5750848201515b5f19600385901b1c1916600184901b17845561027f565b5f84815260208120601f198516915b8281101561031557878501518255602094850194600190920191016102f5565b508482101561033257868401515f19600387901b60f8161c191681555b50505050600190811b01905550565b634e487b7160e01b5f52602160045260245ffd5b614937806103625f395ff3fe6080604052600436106102f6575f3560e01c80636418bde911610191578063af9fe4de116100dc578063c87b56dd11610087578063e985e9c511610062578063e985e9c51461085b578063f2fde38b146108af578063fcf391e0146108ce575f5ffd5b8063c87b56dd1461080a578063c99c444814610829578063d3e397501461083c575f5ffd5b8063ba9a8094116100b7578063ba9a8094146107c5578063c07cae88146107d8578063c1e04045146107f7575f5ffd5b8063af9fe4de1461075b578063b88d4fde1461077a578063b8f3426914610799575f5ffd5b806372806c5a1161013c57806395d89b411161011757806395d89b4114610714578063a22cb46514610728578063af236af414610747575f5ffd5b806372806c5a146106d65780638204c627146106eb5780638da5cb5b14610700575f5ffd5b8063708cf8321161016c578063708cf8321461068457806370a08231146106a3578063715018a6146106c2575f5ffd5b80636418bde91461060c57806364af66921461062b5780636d92837514610657575f5ffd5b806320d436d31161025157806343d073bb116101fc5780635aef2447116101d75780635aef2447146105a25780635edc84eb146105ce5780636352211e146105ed575f5ffd5b806343d073bb1461053e57806346be9c481461055d57806352ec852914610583575f5ffd5b80632a982aeb1161022c5780632a982aeb146104e15780633081ed8a1461050057806342842e0e1461051f575f5ffd5b806320d436d31461048457806323b872dd146104a357806328f60a7c146104c2575f5ffd5b8063081812fc116102b15780631461f1261161028c5780631461f1261461043f578063185a34f2146104525780631cecb25414610465575f5ffd5b8063081812fc146103e2578063083c818214610401578063095ea7b314610420575f5ffd5b806301a2cae8116102e157806301a2cae81461034157806301ffc9a71461039257806306fdde03146103c1575f5ffd5b80624b3829146102fa5780628c107514610320575b5f5ffd5b61030d6103083660046137fb565b6108ed565b6040519081526020015b60405180910390f35b34801561032b575f5ffd5b5061033f61033a36600461386f565b61099c565b005b34801561034c575f5ffd5b50600e5461036d9073ffffffffffffffffffffffffffffffffffffffff1681565b60405173ffffffffffffffffffffffffffffffffffffffff9091168152602001610317565b34801561039d575f5ffd5b506103b16103ac3660046138cc565b610a68565b6040519015158152602001610317565b3480156103cc575f5ffd5b506103d5610a78565b6040516103179190613933565b3480156103ed575f5ffd5b5061036d6103fc366004613945565b610b07565b34801561040c575f5ffd5b5061033f61041b36600461395c565b610b3b565b34801561042b575f5ffd5b5061033f61043a366004613975565b610b8a565b61030d61044d36600461399d565b610b99565b61030d6104603660046139e8565b610c46565b348015610470575f5ffd5b5061033f61047f366004613945565b610c51565b34801561048f575f5ffd5b5061033f61049e366004613945565b610c5e565b3480156104ae575f5ffd5b5061033f6104bd366004613a1a565b610c6b565b3480156104cd575f5ffd5b5061033f6104dc366004613945565b610c7c565b3480156104ec575f5ffd5b5061033f6104fb366004613975565b610c86565b34801561050b575f5ffd5b5061033f61051a366004613975565b610cec565b34801561052a575f5ffd5b5061033f610539366004613a1a565b610d52565b348015610549575f5ffd5b5061033f610558366004613a6b565b610d6c565b348015610568575f5ffd5b506009546105769060ff1681565b6040516103179190613ac3565b34801561058e575f5ffd5b5061033f61059d366004613a1a565b610db9565b3480156105ad575f5ffd5b506105c16105bc366004613945565b610e23565b6040516103179190613c08565b3480156105d9575f5ffd5b5061033f6105e8366004613c17565b611166565b3480156105f8575f5ffd5b5061036d610607366004613945565b611171565b348015610617575f5ffd5b5061033f610626366004613c45565b61119a565b348015610636575f5ffd5b50600b5461036d9073ffffffffffffffffffffffffffffffffffffffff1681565b348015610662575f5ffd5b50610676610671366004613945565b611201565b604051610317929190613c82565b34801561068f575f5ffd5b5061033f61069e366004613ceb565b611328565b3480156106ae575f5ffd5b5061030d6106bd36600461395c565b611390565b3480156106cd575f5ffd5b5061033f611408565b3480156106e1575f5ffd5b5061030d600a5481565b3480156106f6575f5ffd5b5061030d600d5481565b34801561070b575f5ffd5b5061036d61141b565b34801561071f575f5ffd5b506103d5611440565b348015610733575f5ffd5b5061033f610742366004613d4e565b61144f565b348015610752575f5ffd5b5061033f611481565b348015610766575f5ffd5b5061033f610775366004613d78565b611588565b348015610785575f5ffd5b5061033f610794366004613ed3565b6115fa565b3480156107a4575f5ffd5b50600c5461036d9073ffffffffffffffffffffffffffffffffffffffff1681565b61033f6107d336600461386f565b611607565b3480156107e3575f5ffd5b5061033f6107f2366004613f37565b611672565b61030d610805366004613f7f565b61167e565b348015610815575f5ffd5b506103d5610824366004613945565b61168a565b61033f610837366004613fda565b61182f565b348015610847575f5ffd5b5061033f61085636600461395c565b611847565b348015610866575f5ffd5b506103b1610875366004613ffa565b73ffffffffffffffffffffffffffffffffffffffff9182165f90815260056020908152604080832093909416825291909152205460ff1690565b3480156108ba575f5ffd5b5061033f6108c936600461395c565b611896565b3480156108d9575f5ffd5b5061033f6108e836600461402b565b6118f6565b600b545f9073ffffffffffffffffffffffffffffffffffffffff1663e5a39c92853361091c602088018861395c565b61092c6040890160208a0161395c565b61093c60c08a0160a08b01613a6b565b6040518663ffffffff1660e01b815260040161095c95949392919061409f565b5f604051808303815f87803b158015610973575f5ffd5b505af1158015610985573d5f5f3e3d5ffd5b5050505061099484848461196a565b949350505050565b5f6109a683610e23565b61010081015190915073ffffffffffffffffffffffffffffffffffffffff166109fb576040517f0e92b2c600000000000000000000000000000000000000000000000000000000815260040160405180910390fd5b61010081015173ffffffffffffffffffffffffffffffffffffffff163314610a56576040517f66719b7a0000000000000000000000000000000000000000000000000000000081523360048201526024015b60405180910390fd5b610a62848483856119ee565b50505050565b5f610a7282611b71565b92915050565b60605f8054610a86906140ed565b80601f0160208091040260200160405190810160405280929190818152602001828054610ab2906140ed565b8015610afd5780601f10610ad457610100808354040283529160200191610afd565b820191905f5260205f20905b815481529060010190602001808311610ae057829003601f168201915b5050505050905090565b5f610b1182611c53565b505f8281526004602052604090205473ffffffffffffffffffffffffffffffffffffffff16610a72565b610b43611cb1565b600e80547fffffffffffffffffffffffff00000000000000000000000000000000000000001673ffffffffffffffffffffffffffffffffffffffff92909216919091179055565b610b95338383611d09565b5050565b600b545f9073ffffffffffffffffffffffffffffffffffffffff1663e5a39c928433610bc8602087018761395c565b610bd8604088016020890161395c565b610be860c0890160a08a01613a6b565b6040518663ffffffff1660e01b8152600401610c0895949392919061409f565b5f604051808303815f87803b158015610c1f575f5ffd5b505af1158015610c31573d5f5f3e3d5ffd5b50505050610c3f8383611db5565b9392505050565b5f610a723383611db5565b610c5b33826122fe565b50565b610c66611cb1565b600d55565b610c77338484846124b4565b505050565b610c5b338261263e565b5f610c9082610e23565b610100015173ffffffffffffffffffffffffffffffffffffffff1603610ce2576040517f0e92b2c600000000000000000000000000000000000000000000000000000000815260040160405180910390fd5b610b9582826122fe565b5f610cf682610e23565b610100015173ffffffffffffffffffffffffffffffffffffffff1603610d48576040517f0e92b2c600000000000000000000000000000000000000000000000000000000815260040160405180910390fd5b610b95828261263e565b610c7783838360405180602001604052805f8152506115fa565b610d74611cb1565b600980548291907fffffffffffffffffffffffffffffffffffffffffffffffffffffffffffffff00166001836002811115610db157610db1613a86565b021790555050565b5f610dc382610e23565b61010081015190915073ffffffffffffffffffffffffffffffffffffffff16610e18576040517f0e92b2c600000000000000000000000000000000000000000000000000000000815260040160405180910390fd5b610a62848484611d09565b610e7f60408051610160810182525f80825260208201819052918101829052606081018290526080810182905260a0810182905260c0810182905260e0810182905261010081018290529061012082019081526020015f905290565b600a548210610eba576040517f4d5e5fb300000000000000000000000000000000000000000000000000000000815260040160405180910390fd5b5f82815260076020908152604080832081516101408101835281546fffffffffffffffffffffffffffffffff80821683527001000000000000000000000000000000009091041693810193909352600181015473ffffffffffffffffffffffffffffffffffffffff90811692840192909252600281015482166060840152600381015482166080840152600481015491821660a08401529060c083019074010000000000000000000000000000000000000000900460ff166005811115610f8357610f83613a86565b6005811115610f9457610f94613a86565b81526020016004820160159054906101000a900460ff166002811115610fbc57610fbc613a86565b6002811115610fcd57610fcd613a86565b81526004919091015464ffffffffff760100000000000000000000000000000000000000000000820481166020808501919091527b01000000000000000000000000000000000000000000000000000000909204811660409384015282516101608101845284516fffffffffffffffffffffffffffffffff9081168252858401511692810192909252610100840151811682840152610120840151166060808301919091529183015173ffffffffffffffffffffffffffffffffffffffff90811660808301529183015190911660a082015290915060c081016110d1855f9081526002602052604090205473ffffffffffffffffffffffffffffffffffffffff1690565b73ffffffffffffffffffffffffffffffffffffffff168152602001826080015173ffffffffffffffffffffffffffffffffffffffff1681526020018260a0015173ffffffffffffffffffffffffffffffffffffffff1681526020018260c00151600581111561114257611142613a86565b81526020018260e00151600281111561115d5761115d613a86565b90529392505050565b610b953383836127f4565b5f8181526002602052604081205473ffffffffffffffffffffffffffffffffffffffff16610a72565b5f6111a483610e23565b610100015173ffffffffffffffffffffffffffffffffffffffff16036111f6576040517f0e92b2c600000000000000000000000000000000000000000000000000000000815260040160405180910390fd5b610c778383836127f4565b60086020525f908152604090208054819061121b906140ed565b80601f0160208091040260200160405190810160405280929190818152602001828054611247906140ed565b80156112925780601f1061126957610100808354040283529160200191611292565b820191905f5260205f20905b81548152906001019060200180831161127557829003601f168201915b5050505050908060010180546112a7906140ed565b80601f01602080910402602001604051908101604052809291908181526020018280546112d3906140ed565b801561131e5780601f106112f55761010080835404028352916020019161131e565b820191905f5260205f20905b81548152906001019060200180831161130157829003601f168201915b5050505050905082565b5f61133284610e23565b610100015173ffffffffffffffffffffffffffffffffffffffff1603611384576040517f0e92b2c600000000000000000000000000000000000000000000000000000000815260040160405180910390fd5b610a62848484846129f0565b5f73ffffffffffffffffffffffffffffffffffffffff82166113e0576040517f89c62b640000000000000000000000000000000000000000000000000000000081525f6004820152602401610a4d565b5073ffffffffffffffffffffffffffffffffffffffff165f9081526003602052604090205490565b611410611cb1565b6114195f612cb7565b565b5f61143b60065473ffffffffffffffffffffffffffffffffffffffff1690565b905090565b606060018054610a86906140ed565b6040517fa038794000000000000000000000000000000000000000000000000000000000815260040160405180910390fd5b611489611cb1565b478015610c5b575f61149961141b565b73ffffffffffffffffffffffffffffffffffffffff16826040515f6040518083038185875af1925050503d805f81146114ed576040519150601f19603f3d011682016040523d82523d5f602084013e6114f2565b606091505b505090508061152d576040517f27fcd9d100000000000000000000000000000000000000000000000000000000815260040160405180910390fd5b61153561141b565b73ffffffffffffffffffffffffffffffffffffffff167f78473f3f373f7673597f4f0fa5873cb4d375fea6d4339ad6b56dbd411513cb3f8360405161157c91815260200190565b60405180910390a25050565b5f61159282610e23565b61010081015190915073ffffffffffffffffffffffffffffffffffffffff166115e7576040517f0e92b2c600000000000000000000000000000000000000000000000000000000815260040160405180910390fd5b6115f3858585856124b4565b5050505050565b610a623385858585612d2d565b5f61161183610e23565b61010081015190915073ffffffffffffffffffffffffffffffffffffffff16611666576040517f0e92b2c600000000000000000000000000000000000000000000000000000000815260040160405180910390fd5b610a6284848385612d46565b610c77338484846129f0565b5f610c3f33848461196a565b5f818152600860205260408120805460609291906116a7906140ed565b80601f01602080910402602001604051908101604052809291908181526020018280546116d3906140ed565b801561171e5780601f106116f55761010080835404028352916020019161171e565b820191905f5260205f20905b81548152906001019060200180831161170157829003601f168201915b505050505090505f815111156117345792915050565b5f61173e84610e23565b5f858152600260205260408120549192509073ffffffffffffffffffffffffffffffffffffffff16600c546040517fd993031e00000000000000000000000000000000000000000000000000000000815291925073ffffffffffffffffffffffffffffffffffffffff169063d993031e906117c190859089908690600401614138565b5f60405180830381865afa1580156117db573d5f5f3e3d5ffd5b505050506040513d5f823e601f3d9081017fffffffffffffffffffffffffffffffffffffffffffffffffffffffffffffffe01682016040526118209190810190614173565b95945050505050565b50919050565b5f61183983610e23565b9050610c7733848385612d46565b61184f611cb1565b600c80547fffffffffffffffffffffffff00000000000000000000000000000000000000001673ffffffffffffffffffffffffffffffffffffffff92909216919091179055565b61189e611cb1565b73ffffffffffffffffffffffffffffffffffffffff81166118ed576040517f1e4fbdf70000000000000000000000000000000000000000000000000000000081525f6004820152602401610a4d565b610c5b81612cb7565b5f61190083610e23565b61010081015190915073ffffffffffffffffffffffffffffffffffffffff16611955576040517f0e92b2c600000000000000000000000000000000000000000000000000000000815260040160405180910390fd5b6119628686868686612d2d565b505050505050565b5f5f6119768585611db5565b5f818152600860205260409020909150839061199282826143a3565b508190507f0762a30b2ec82141bc9ec23425f643036567b2e3a0971ed4850a968e10e5e8046119c185806141e8565b6119ce60208801886141e8565b6040516119de9493929190614523565b60405180910390a2949350505050565b6119f6612ebd565b5f5f73__$05a947d0c9e5506efad2f4be513ad6e054$__63cc11e50b8786866040518463ffffffff1660e01b8152600401611a3393929190614554565b6040805180830381865af4158015611a4d573d5f5f3e3d5ffd5b505050506040513d601f19601f82011682018060405250810190611a71919061458e565b5f87815260076020526040902080546fffffffffffffffffffffffffffffffff808516700100000000000000000000000000000000029116178155919350915081611abd576001611ac0565b60025b6004820180547fffffffffffffffffffffff00ffffffffffffffffffffffffffffffffffffffff1674010000000000000000000000000000000000000000836005811115611b1057611b10613a86565b0217905550604080518581526020810185905273ffffffffffffffffffffffffffffffffffffffff89169188917feb324fb7fa5e3c4895f81135dee55dabe780ab78ada3c673cd8d79969a509ac5910160405180910390a350505050505050565b5f7fffffffff0000000000000000000000000000000000000000000000000000000082167f80ac58cd000000000000000000000000000000000000000000000000000000001480611c0357507fffffffff0000000000000000000000000000000000000000000000000000000082167f5b5e139f00000000000000000000000000000000000000000000000000000000145b80610a7257507f01ffc9a7000000000000000000000000000000000000000000000000000000007fffffffff00000000000000000000000000000000000000000000000000000000831614610a72565b5f8181526002602052604081205473ffffffffffffffffffffffffffffffffffffffff1680610a72576040517f7e27328900000000000000000000000000000000000000000000000000000000815260048101849052602401610a4d565b33611cba61141b565b73ffffffffffffffffffffffffffffffffffffffff1614611419576040517f118cdaa7000000000000000000000000000000000000000000000000000000008152336004820152602401610a4d565b5f611d1382610e23565b61010081015190915073ffffffffffffffffffffffffffffffffffffffff1615801590611d71575080610100015173ffffffffffffffffffffffffffffffffffffffff163373ffffffffffffffffffffffffffffffffffffffff1614155b15611daa576040517f66719b7a000000000000000000000000000000000000000000000000000000008152336004820152602401610a4d565b610a62838386612f0d565b5f8060095460ff166002811115611dce57611dce613a86565b14611e05576040517f0f2e5b6c00000000000000000000000000000000000000000000000000000000815260040160405180910390fd5b600e54600d546040517f6bc7636f00000000000000000000000000000000000000000000000000000000815273__$05a947d0c9e5506efad2f4be513ad6e054$__92636bc7636f92611e78928892889273ffffffffffffffffffffffffffffffffffffffff909116913490600401614611565b5f6040518083038186803b158015611e8e575f5ffd5b505af4158015611ea0573d5f5f3e3d5ffd5b505050505f5f8473ffffffffffffffffffffffffffffffffffffffff163373ffffffffffffffffffffffffffffffffffffffff1614611edf5733611ee1565b5f5b600a8054600181019091555f818152600760205260409081902091945091925090611f0e90860135612f1a565b81547fffffffffffffffffffffffffffffffff00000000000000000000000000000000166fffffffffffffffffffffffffffffffff91909116178155611f5a604086016020870161395c565b6002820180547fffffffffffffffffffffffff00000000000000000000000000000000000000001673ffffffffffffffffffffffffffffffffffffffff92909216919091179055611fae602086018661395c565b6001820180547fffffffffffffffffffffffff00000000000000000000000000000000000000001673ffffffffffffffffffffffffffffffffffffffff929092169190911790555f61200660a087016080880161395c565b73ffffffffffffffffffffffffffffffffffffffff16146120795761203160a086016080870161395c565b6003820180547fffffffffffffffffffffffff00000000000000000000000000000000000000001673ffffffffffffffffffffffffffffffffffffffff929092169190911790555b73ffffffffffffffffffffffffffffffffffffffff8216156120d8576004810180547fffffffffffffffffffffffff00000000000000000000000000000000000000001673ffffffffffffffffffffffffffffffffffffffff84161790555b5f6120e960c0870160a08801613a6b565b60028111156120fa576120fa613a86565b146121665761210f60c0860160a08701613a6b565b6004820180547fffffffffffffffffffff00ffffffffffffffffffffffffffffffffffffffffff16750100000000000000000000000000000000000000000083600281111561216057612160613a86565b02179055505b60c0850135156121c1576004810180547fffffffffff0000000000ffffffffffffffffffffffffffffffffffffffffffff1676010000000000000000000000000000000000000000000060c088013564ffffffffff16021790555b60e08501351561221c576004810180547affffffffffffffffffffffffffffffffffffffffffffffffffffff167b0100000000000000000000000000000000000000000000000000000060e088013564ffffffffff16021790555b5061222d604085016020860161395c565b73ffffffffffffffffffffffffffffffffffffffff16612250602086018661395c565b73ffffffffffffffffffffffffffffffffffffffff16837f4a3269cbd2349d90096f8883573394f1da2aee3f8c0e5c4b29fbcab5c87efb4388604089013560c08a01356122a060608c018c6141e8565b6122b060a08e0160808f0161395c565b8a8e60a00160208101906122c49190613a6b565b6040516122d8989796959493929190614737565b60405180910390a46122f66122f0602086018661395c565b83612f3b565b509392505050565b612306612ebd565b5f61231082610e23565b5f8381526002602052604090205461010082015191925073ffffffffffffffffffffffffffffffffffffffff908116911615801590612380575081610100015173ffffffffffffffffffffffffffffffffffffffff163373ffffffffffffffffffffffffffffffffffffffff1614155b156123b9576040517f66719b7a000000000000000000000000000000000000000000000000000000008152336004820152602401610a4d565b6040517f3b5d591600000000000000000000000000000000000000000000000000000000815273__$05a947d0c9e5506efad2f4be513ad6e054$__90633b5d59169061240d908790869086906004016147c8565b5f6040518083038186803b158015612423575f5ffd5b505af4158015612435573d5f5f3e3d5ffd5b5050505f8481526007602052604080822060040180547fffffffffffffffffffffff00ffffffffffffffffffffffffffffffffffffffff1674020000000000000000000000000000000000000000179055518592507f9aef63ece5ceaa834c5017ecc62c1f130ae015e898d014a9e508cdf8d84848049190a250505050565b5f6124be82610e23565b61010081015190915073ffffffffffffffffffffffffffffffffffffffff161580159061251c575080610100015173ffffffffffffffffffffffffffffffffffffffff163373ffffffffffffffffffffffffffffffffffffffff1614155b15612555576040517f66719b7a000000000000000000000000000000000000000000000000000000008152336004820152602401610a4d565b73ffffffffffffffffffffffffffffffffffffffff83166125a4576040517f64a0ae920000000000000000000000000000000000000000000000000000000081525f6004820152602401610a4d565b5f6125b0848488612fe8565b90508473ffffffffffffffffffffffffffffffffffffffff168173ffffffffffffffffffffffffffffffffffffffff1614611962576040517f64283d7b00000000000000000000000000000000000000000000000000000000815273ffffffffffffffffffffffffffffffffffffffff80871660048301526024820185905282166044820152606401610a4d565b612646612ebd565b5f61265082610e23565b5f8381526002602052604090205461010082015191925073ffffffffffffffffffffffffffffffffffffffff9081169116158015906126c0575081610100015173ffffffffffffffffffffffffffffffffffffffff163373ffffffffffffffffffffffffffffffffffffffff1614155b156126f9576040517f66719b7a000000000000000000000000000000000000000000000000000000008152336004820152602401610a4d565b6040517f490080a600000000000000000000000000000000000000000000000000000000815273__$05a947d0c9e5506efad2f4be513ad6e054$__9063490080a69061274d908790869086906004016147c8565b5f6040518083038186803b158015612763575f5ffd5b505af4158015612775573d5f5f3e3d5ffd5b5050505f8481526007602052604080822060040180547fffffffffffffffffffffff00ffffffffffffffffffffffffffffffffffffffff1674050000000000000000000000000000000000000000179055518592507fbeff20e87296f95eda2707b98ff344c0c9c1dc3900f20dde29098241703286149190a250505050565b6127fc612ebd565b5f61280683610e23565b5f8481526002602052604090205461010082015191925073ffffffffffffffffffffffffffffffffffffffff908116911615801590612876575081610100015173ffffffffffffffffffffffffffffffffffffffff163373ffffffffffffffffffffffffffffffffffffffff1614155b156128af576040517f66719b7a000000000000000000000000000000000000000000000000000000008152336004820152602401610a4d565b6040517f81f0780e00000000000000000000000000000000000000000000000000000000815273__$05a947d0c9e5506efad2f4be513ad6e054$__906381f0780e90612905908890869086908990600401614818565b5f6040518083038186803b15801561291b575f5ffd5b505af415801561292d573d5f5f3e3d5ffd5b5050505f85815260076020526040902060040180548592507fffffffffffffffffffff00ffffffffffffffffffffffffffffffffffffffffff16750100000000000000000000000000000000000000000083600281111561299057612990613a86565b02179055508260028111156129a7576129a7613a86565b60405173ffffffffffffffffffffffffffffffffffffffff87169086907f3b17ddcb4df9a7a621005f492ba347528e1021e3ff0eb4d2b3040ad0354609c9905f90a45050505050565b6129f8612ebd565b5f612a0284610e23565b5f8581526002602052604090205461010082015191925073ffffffffffffffffffffffffffffffffffffffff908116911615801590612a72575081610100015173ffffffffffffffffffffffffffffffffffffffff163373ffffffffffffffffffffffffffffffffffffffff1614155b15612aab576040517f66719b7a000000000000000000000000000000000000000000000000000000008152336004820152602401610a4d565b6040517f20727a0d00000000000000000000000000000000000000000000000000000000815273__$05a947d0c9e5506efad2f4be513ad6e054$__906320727a0d90612aff908990869086906004016147c8565b5f6040518083038186803b158015612b15575f5ffd5b505af4158015612b27573d5f5f3e3d5ffd5b505050508160a0015173ffffffffffffffffffffffffffffffffffffffff168673ffffffffffffffffffffffffffffffffffffffff1603612c0c575f8581526007602052604090206004018054600391907fffffffffffffffffffffff00ffffffffffffffffffffffffffffffffffffffff16740100000000000000000000000000000000000000008302179055508573ffffffffffffffffffffffffffffffffffffffff16857f4682ef87b3db3f66192d1dc1efd5d2a314cdd9c61e14219f671c03e6f507823a8686604051612bff929190614879565b60405180910390a3611962565b5f858152600760205260409020600490810180547fffffffffffffffffffffff00ffffffffffffffffffffffffffffffffffffffff16740100000000000000000000000000000000000000008302179055508573ffffffffffffffffffffffffffffffffffffffff16857f84993de43f7886c435a01bf9d72095e6a0a03bad77d5ed2478d043e566e2c77c8686604051612ca7929190614879565b60405180910390a3505050505050565b6006805473ffffffffffffffffffffffffffffffffffffffff8381167fffffffffffffffffffffffff0000000000000000000000000000000000000000831681179093556040519116919082907f8be0079c531659141344cd1fd0a4f28419497f9722a3daafe3b4186f6b6457e0905f90a35050565b612d39858585856124b4565b6115f3858585858561315f565b61010082015173ffffffffffffffffffffffffffffffffffffffff1615801590612da1575081610100015173ffffffffffffffffffffffffffffffffffffffff163373ffffffffffffffffffffffffffffffffffffffff1614155b15612dda576040517f66719b7a000000000000000000000000000000000000000000000000000000008152336004820152602401610a4d565b60e082015173ffffffffffffffffffffffffffffffffffffffff16612e3257803414612e32576040517f26ea953d00000000000000000000000000000000000000000000000000000000815260040160405180910390fd5b612e3e848484846119ee565b60e082015173ffffffffffffffffffffffffffffffffffffffff1615612e9857612e93848360c00151838560e0015173ffffffffffffffffffffffffffffffffffffffff1661334c909392919063ffffffff16565b610a62565b60c0820151610a629073ffffffffffffffffffffffffffffffffffffffff1682613407565b600260095460ff166002811115612ed657612ed6613a86565b03611419576040517f0f2e5b6c00000000000000000000000000000000000000000000000000000000815260040160405180910390fd5b610c778383836001613479565b5f7001000000000000000000000000000000008210612f37575f5ffd5b5090565b73ffffffffffffffffffffffffffffffffffffffff8216612f8a576040517f64a0ae920000000000000000000000000000000000000000000000000000000081525f6004820152602401610a4d565b5f612f9683835f612fe8565b905073ffffffffffffffffffffffffffffffffffffffff811615610c77576040517f73c6ac6e0000000000000000000000000000000000000000000000000000000081525f6004820152602401610a4d565b5f8281526002602052604081205473ffffffffffffffffffffffffffffffffffffffff9081169083161561302157613021818486613641565b73ffffffffffffffffffffffffffffffffffffffff811615613094576130495f855f5f613479565b73ffffffffffffffffffffffffffffffffffffffff81165f90815260036020526040902080547fffffffffffffffffffffffffffffffffffffffffffffffffffffffffffffffff0190555b73ffffffffffffffffffffffffffffffffffffffff8516156130dc5773ffffffffffffffffffffffffffffffffffffffff85165f908152600360205260409020805460010190555b5f8481526002602052604080822080547fffffffffffffffffffffffff00000000000000000000000000000000000000001673ffffffffffffffffffffffffffffffffffffffff89811691821790925591518793918516917fddf252ad1be2c89b69c2b068fc378daa952ba7f163c4a11628f55a4df523b3ef91a4949350505050565b73ffffffffffffffffffffffffffffffffffffffff83163b156115f3576040517f150b7a0200000000000000000000000000000000000000000000000000000000815273ffffffffffffffffffffffffffffffffffffffff84169063150b7a02906131d490889088908790879060040161488c565b6020604051808303815f875af192505050801561322c575060408051601f3d9081017fffffffffffffffffffffffffffffffffffffffffffffffffffffffffffffffe0168201909252613229918101906148e6565b60015b6132b9573d808015613259576040519150601f19603f3d011682016040523d82523d5f602084013e61325e565b606091505b5080515f036132b1576040517f64a0ae9200000000000000000000000000000000000000000000000000000000815273ffffffffffffffffffffffffffffffffffffffff85166004820152602401610a4d565b805181602001fd5b7fffffffff0000000000000000000000000000000000000000000000000000000081167f150b7a020000000000000000000000000000000000000000000000000000000014611962576040517f64a0ae9200000000000000000000000000000000000000000000000000000000815273ffffffffffffffffffffffffffffffffffffffff85166004820152602401610a4d565b5f6040517f23b872dd00000000000000000000000000000000000000000000000000000000815284600482015283602482015282604482015260205f6064835f8a5af13d15601f3d1160015f5114161716915050806115f3576040517f08c379a000000000000000000000000000000000000000000000000000000000815260206004820152601460248201527f5452414e534645525f46524f4d5f4641494c45440000000000000000000000006044820152606401610a4d565b5f5f5f5f5f85875af1905080610c77576040517f08c379a000000000000000000000000000000000000000000000000000000000815260206004820152601360248201527f4554485f5452414e534645525f4641494c4544000000000000000000000000006044820152606401610a4d565b808061349a575073ffffffffffffffffffffffffffffffffffffffff821615155b156135ed575f6134a984611c53565b905073ffffffffffffffffffffffffffffffffffffffff8316158015906134fc57508273ffffffffffffffffffffffffffffffffffffffff168173ffffffffffffffffffffffffffffffffffffffff1614155b801561353a575073ffffffffffffffffffffffffffffffffffffffff8082165f9081526005602090815260408083209387168352929052205460ff16155b15613589576040517fa9fbf51f00000000000000000000000000000000000000000000000000000000815273ffffffffffffffffffffffffffffffffffffffff84166004820152602401610a4d565b81156135eb57838573ffffffffffffffffffffffffffffffffffffffff168273ffffffffffffffffffffffffffffffffffffffff167f8c5be1e5ebec7d5bd14f71427d1e84f3dd0314c0f7b2291e5b200ac8c7c3b92560405160405180910390a45b505b50505f90815260046020526040902080547fffffffffffffffffffffffff00000000000000000000000000000000000000001673ffffffffffffffffffffffffffffffffffffffff92909216919091179055565b61364c8383836136f1565b610c775773ffffffffffffffffffffffffffffffffffffffff83166136a0576040517f7e27328900000000000000000000000000000000000000000000000000000000815260048101829052602401610a4d565b6040517f177e802f00000000000000000000000000000000000000000000000000000000815273ffffffffffffffffffffffffffffffffffffffff8316600482015260248101829052604401610a4d565b5f73ffffffffffffffffffffffffffffffffffffffff83161580159061099457508273ffffffffffffffffffffffffffffffffffffffff168473ffffffffffffffffffffffffffffffffffffffff16148061377d575073ffffffffffffffffffffffffffffffffffffffff8085165f9081526005602090815260408083209387168352929052205460ff165b806109945750505f9081526004602052604090205473ffffffffffffffffffffffffffffffffffffffff908116911614919050565b803573ffffffffffffffffffffffffffffffffffffffff811681146137d5575f5ffd5b919050565b5f6101008284031215611829575f5ffd5b5f60408284031215611829575f5ffd5b5f5f5f6060848603121561380d575f5ffd5b613816846137b2565b9250602084013567ffffffffffffffff811115613831575f5ffd5b61383d868287016137da565b925050604084013567ffffffffffffffff811115613859575f5ffd5b613865868287016137eb565b9150509250925092565b5f5f5f60608486031215613881575f5ffd5b61388a846137b2565b95602085013595506040909401359392505050565b7fffffffff0000000000000000000000000000000000000000000000000000000081168114610c5b575f5ffd5b5f602082840312156138dc575f5ffd5b8135610c3f8161389f565b5f81518084528060208401602086015e5f6020828601015260207fffffffffffffffffffffffffffffffffffffffffffffffffffffffffffffffe0601f83011685010191505092915050565b602081525f610c3f60208301846138e7565b5f60208284031215613955575f5ffd5b5035919050565b5f6020828403121561396c575f5ffd5b610c3f826137b2565b5f5f60408385031215613986575f5ffd5b61398f836137b2565b946020939093013593505050565b5f5f604083850312156139ae575f5ffd5b6139b7836137b2565b9150602083013567ffffffffffffffff8111156139d2575f5ffd5b6139de858286016137da565b9150509250929050565b5f602082840312156139f8575f5ffd5b813567ffffffffffffffff811115613a0e575f5ffd5b610994848285016137da565b5f5f5f60608486031215613a2c575f5ffd5b613a35846137b2565b9250613a43602085016137b2565b929592945050506040919091013590565b60038110610c5b575f5ffd5b80356137d581613a54565b5f60208284031215613a7b575f5ffd5b8135610c3f81613a54565b7f4e487b71000000000000000000000000000000000000000000000000000000005f52602160045260245ffd5b60038110610c5b57610c5b613a86565b60208101613ad083613ab3565b91905290565b60068110613ae657613ae6613a86565b9052565b613ae681613ab3565b805182526020810151602083015260408101516040830152606081015160608301526080810151613b3c608084018273ffffffffffffffffffffffffffffffffffffffff169052565b5060a0810151613b6460a084018273ffffffffffffffffffffffffffffffffffffffff169052565b5060c0810151613b8c60c084018273ffffffffffffffffffffffffffffffffffffffff169052565b5060e0810151613bb460e084018273ffffffffffffffffffffffffffffffffffffffff169052565b50610100810151613bde61010084018273ffffffffffffffffffffffffffffffffffffffff169052565b50610120810151613bf3610120840182613ad6565b50610140810151610c77610140840182613aea565b6101608101610a728284613af3565b5f5f60408385031215613c28575f5ffd5b823591506020830135613c3a81613a54565b809150509250929050565b5f5f5f60608486031215613c57575f5ffd5b613c60846137b2565b9250602084013591506040840135613c7781613a54565b809150509250925092565b604081525f613c9460408301856138e7565b828103602084015261182081856138e7565b5f5f83601f840112613cb6575f5ffd5b50813567ffffffffffffffff811115613ccd575f5ffd5b602083019150836020828501011115613ce4575f5ffd5b9250929050565b5f5f5f5f60608587031215613cfe575f5ffd5b613d07856137b2565b935060208501359250604085013567ffffffffffffffff811115613d29575f5ffd5b613d3587828801613ca6565b95989497509550505050565b8015158114610c5b575f5ffd5b5f5f60408385031215613d5f575f5ffd5b613d68836137b2565b91506020830135613c3a81613d41565b5f5f5f5f60808587031215613d8b575f5ffd5b613d94856137b2565b9350613da2602086016137b2565b9250613db0604086016137b2565b9396929550929360600135925050565b7f4e487b71000000000000000000000000000000000000000000000000000000005f52604160045260245ffd5b604051601f82017fffffffffffffffffffffffffffffffffffffffffffffffffffffffffffffffe016810167ffffffffffffffff81118282101715613e3457613e34613dc0565b604052919050565b5f67ffffffffffffffff821115613e5557613e55613dc0565b50601f017fffffffffffffffffffffffffffffffffffffffffffffffffffffffffffffffe01660200190565b5f82601f830112613e90575f5ffd5b8135613ea3613e9e82613e3c565b613ded565b818152846020838601011115613eb7575f5ffd5b816020850160208301375f918101602001919091529392505050565b5f5f5f5f60808587031215613ee6575f5ffd5b613eef856137b2565b9350613efd602086016137b2565b925060408501359150606085013567ffffffffffffffff811115613f1f575f5ffd5b613f2b87828801613e81565b91505092959194509250565b5f5f5f60408486031215613f49575f5ffd5b83359250602084013567ffffffffffffffff811115613f66575f5ffd5b613f7286828701613ca6565b9497909650939450505050565b5f5f60408385031215613f90575f5ffd5b823567ffffffffffffffff811115613fa6575f5ffd5b613fb2858286016137da565b925050602083013567ffffffffffffffff811115613fce575f5ffd5b6139de858286016137eb565b5f5f60408385031215613feb575f5ffd5b50508035926020909101359150565b5f5f6040838503121561400b575f5ffd5b614014836137b2565b9150614022602084016137b2565b90509250929050565b5f5f5f5f5f60a0868803121561403f575f5ffd5b614048866137b2565b9450614056602087016137b2565b9350614064604087016137b2565b925060608601359150608086013567ffffffffffffffff811115614086575f5ffd5b61409288828901613e81565b9150509295509295909350565b73ffffffffffffffffffffffffffffffffffffffff8681168252858116602083015284811660408301528316606082015260a081016140dd83613ab3565b8260808301529695505050505050565b600181811c9082168061410157607f821691505b602082108103611829577f4e487b71000000000000000000000000000000000000000000000000000000005f52602260045260245ffd5b6101a081016141478286613af3565b8361016083015273ffffffffffffffffffffffffffffffffffffffff8316610180830152949350505050565b5f60208284031215614183575f5ffd5b815167ffffffffffffffff811115614199575f5ffd5b8201601f810184136141a9575f5ffd5b80516141b7613e9e82613e3c565b8181528560208385010111156141cb575f5ffd5b8160208401602083015e5f91810160200191909152949350505050565b5f5f83357fffffffffffffffffffffffffffffffffffffffffffffffffffffffffffffffe184360301811261421b575f5ffd5b83018035915067ffffffffffffffff821115614235575f5ffd5b602001915036819003821315613ce4575f5ffd5b601f821115610c7757805f5260205f20601f840160051c8101602085101561426e5750805b601f840160051c820191505b818110156115f3575f815560010161427a565b67ffffffffffffffff8311156142a5576142a5613dc0565b6142b9836142b383546140ed565b83614249565b5f601f841160018114614309575f85156142d35750838201355b7fffffffffffffffffffffffffffffffffffffffffffffffffffffffffffffffff600387901b1c1916600186901b1783556115f3565b5f838152602081207fffffffffffffffffffffffffffffffffffffffffffffffffffffffffffffffe08716915b828110156143565786850135825560209485019460019092019101614336565b5086821015614391577fffffffffffffffffffffffffffffffffffffffffffffffffffffffffffffffff60f88860031b161c19848701351681555b505060018560011b0183555050505050565b6143ad82836141e8565b67ffffffffffffffff8111156143c5576143c5613dc0565b6143d9816143d385546140ed565b85614249565b5f601f821160018114614429575f83156143f35750838201355b7fffffffffffffffffffffffffffffffffffffffffffffffffffffffffffffffff600385901b1c1916600184901b1785556144bd565b5f858152602081207fffffffffffffffffffffffffffffffffffffffffffffffffffffffffffffffe08516915b828110156144765786850135825560209485019460019092019101614456565b50848210156144b1577fffffffffffffffffffffffffffffffffffffffffffffffffffffffffffffffff60f88660031b161c19848701351681555b505060018360011b0185555b505050506144ce60208301836141e8565b610a6281836001860161428d565b81835281816020850137505f602082840101525f60207fffffffffffffffffffffffffffffffffffffffffffffffffffffffffffffffe0601f840116840101905092915050565b604081525f6145366040830186886144dc565b82810360208401526145498185876144dc565b979650505050505050565b73ffffffffffffffffffffffffffffffffffffffff841681526101a0810161457f6020830185613af3565b82610180830152949350505050565b5f5f6040838503121561459f575f5ffd5b825191506020830151613c3a81613d41565b5f5f83357fffffffffffffffffffffffffffffffffffffffffffffffffffffffffffffffe18436030181126145e4575f5ffd5b830160208101925035905067ffffffffffffffff811115614603575f5ffd5b803603821315613ce4575f5ffd5b73ffffffffffffffffffffffffffffffffffffffff8616815260a0602082015273ffffffffffffffffffffffffffffffffffffffff61464f866137b2565b1660a082015273ffffffffffffffffffffffffffffffffffffffff614676602087016137b2565b1660c0820152604085013560e08201525f61469460608701876145b1565b610100808501526146aa6101a0850182846144dc565b9150506146b9608088016137b2565b73ffffffffffffffffffffffffffffffffffffffff166101208401526146e160a08801613a60565b6146ef610140850182613aea565b5060c087013561016084015260e087013561018084015273ffffffffffffffffffffffffffffffffffffffff8616604084015290506060820193909352608001529392505050565b73ffffffffffffffffffffffffffffffffffffffff8916815287602082015286604082015260e060608201525f61477260e0830187896144dc565b905073ffffffffffffffffffffffffffffffffffffffff8516608083015273ffffffffffffffffffffffffffffffffffffffff841660a08301526147b583613ab3565b8260c08301529998505050505050505050565b73ffffffffffffffffffffffffffffffffffffffff841681526101a081016147f36020830185613af3565b73ffffffffffffffffffffffffffffffffffffffff8316610180830152949350505050565b73ffffffffffffffffffffffffffffffffffffffff851681526101c081016148436020830186613af3565b73ffffffffffffffffffffffffffffffffffffffff841661018083015261486983613ab3565b826101a083015295945050505050565b602081525f6109946020830184866144dc565b73ffffffffffffffffffffffffffffffffffffffff8516815273ffffffffffffffffffffffffffffffffffffffff84166020820152826040820152608060608201525f6148dc60808301846138e7565b9695505050505050565b5f602082840312156148f6575f5ffd5b8151610c3f8161389f56fea2646970667358221220978a3a323d5ca920eb1993df8eef23f1e5f19ca0413edbc197b8fbe14e45a26f64736f6c634300081e0033","linkReferences":{"src/libraries/BullaClaimValidationLib.sol":{"BullaClaimValidationLib":[{"start":7516,"length":20},{"start":8597,"length":20},{"start":10051,"length":20},{"start":10883,"length":20},{"start":11321,"length":20},{"start":11829,"length":20}]}}},"methodIdentifiers":{"CORE_PROTOCOL_FEE()":"8204c627","approvalRegistry()":"64af6692","approve(address,uint256)":"095ea7b3","approveFrom(address,address,uint256)":"52ec8529","balanceOf(address)":"70a08231","cancelClaim(uint256,string)":"c07cae88","cancelClaimFrom(address,uint256,string)":"708cf832","claimMetadata(uint256)":"6d928375","claimMetadataGenerator()":"b8f34269","createClaim((address,address,uint256,string,address,uint8,uint256,uint256))":"185a34f2","createClaimFrom(address,(address,address,uint256,string,address,uint8,uint256,uint256))":"1461f126","createClaimWithMetadata((address,address,uint256,string,address,uint8,uint256,uint256),(string,string))":"c1e04045","createClaimWithMetadataFrom(address,(address,address,uint256,string,address,uint8,uint256,uint256),(string,string))":"004b3829","currentClaimId()":"72806c5a","feeExemptions()":"01a2cae8","getApproved(uint256)":"081812fc","getClaim(uint256)":"5aef2447","impairClaim(uint256)":"28f60a7c","impairClaimFrom(address,uint256)":"3081ed8a","isApprovedForAll(address,address)":"e985e9c5","lockState()":"46be9c48","markClaimAsPaid(uint256)":"1cecb254","markClaimAsPaidFrom(address,uint256)":"2a982aeb","name()":"06fdde03","owner()":"8da5cb5b","ownerOf(uint256)":"6352211e","payClaim(uint256,uint256)":"c99c4448","payClaimFrom(address,uint256,uint256)":"ba9a8094","payClaimFromControllerWithoutTransfer(address,uint256,uint256)":"008c1075","renounceOwnership()":"715018a6","safeTransferFrom(address,address,uint256)":"42842e0e","safeTransferFrom(address,address,uint256,bytes)":"b88d4fde","safeTransferFromFrom(address,address,address,uint256,bytes)":"fcf391e0","setApprovalForAll(address,bool)":"a22cb465","setClaimMetadataGenerator(address)":"d3e39750","setCoreProtocolFee(uint256)":"20d436d3","setFeeExemptions(address)":"083c8182","setLockState(uint8)":"43d073bb","supportsInterface(bytes4)":"01ffc9a7","symbol()":"95d89b41","tokenURI(uint256)":"c87b56dd","transferFrom(address,address,uint256)":"23b872dd","transferFromFrom(address,address,address,uint256)":"af9fe4de","transferOwnership(address)":"f2fde38b","updateBinding(uint256,uint8)":"5edc84eb","updateBindingFrom(address,uint256,uint8)":"6418bde9","withdrawAllFees()":"af236af4"},"id":89}