{"abi":[{"type":"constructor","inputs":[{"name":"bullaClaim","type":"address","internalType":"address"},{"name":"_owner","type":"address","internalType":"address"},{"name":"_protocolFeeBPS","type":"uint16","internalType":"uint16"}],"stateMutability":"nonpayable"},{"type":"function","name":"EMPTY_METADATA","inputs":[],"outputs":[{"name":"tokenURI","type":"string","internalType":"string"},{"name":"attachmentURI","type":"string","internalType":"string"}],"stateMutability":"view"},{"type":"function","name":"_bullaClaim","inputs":[],"outputs":[{"name":"","type":"address","internalType":"contract IBullaClaimV2"}],"stateMutability":"view"},{"type":"function","name":"acceptPurchaseOrder","inputs":[{"name":"claimId","type":"uint256","internalType":"uint256"},{"name":"depositAmount","type":"uint256","internalType":"uint256"}],"outputs":[],"stateMutability":"payable"},{"type":"function","name":"addToFeeTokenWhitelist","inputs":[{"name":"token","type":"address","internalType":"address"}],"outputs":[],"stateMutability":"nonpayable"},{"type":"function","name":"admin","inputs":[],"outputs":[{"name":"","type":"address","internalType":"address"}],"stateMutability":"view"},{"type":"function","name":"approve","inputs":[{"name":"to","type":"address","internalType":"address"},{"name":"tokenId","type":"uint256","internalType":"uint256"}],"outputs":[],"stateMutability":"nonpayable"},{"type":"function","name":"balanceOf","inputs":[{"name":"owner","type":"address","internalType":"address"}],"outputs":[{"name":"","type":"uint256","internalType":"uint256"}],"stateMutability":"view"},{"type":"function","name":"cancelInvoice","inputs":[{"name":"claimId","type":"uint256","internalType":"uint256"},{"name":"note","type":"string","internalType":"string"}],"outputs":[],"stateMutability":"nonpayable"},{"type":"function","name":"createInvoice","inputs":[{"name":"params","type":"tuple","internalType":"struct CreateInvoiceParams","components":[{"name":"debtor","type":"address","internalType":"address"},{"name":"creditor","type":"address","internalType":"address"},{"name":"claimAmount","type":"uint256","internalType":"uint256"},{"name":"dueBy","type":"uint256","internalType":"uint256"},{"name":"deliveryDate","type":"uint256","internalType":"uint256"},{"name":"description","type":"string","internalType":"string"},{"name":"token","type":"address","internalType":"address"},{"name":"binding","type":"uint8","internalType":"enum ClaimBinding"},{"name":"lateFeeConfig","type":"tuple","internalType":"struct InterestConfig","components":[{"name":"interestRateBps","type":"uint16","internalType":"uint16"},{"name":"numberOfPeriodsPerYear","type":"uint16","internalType":"uint16"}]},{"name":"impairmentGracePeriod","type":"uint256","internalType":"uint256"},{"name":"depositAmount","type":"uint256","internalType":"uint256"}]}],"outputs":[{"name":"","type":"uint256","internalType":"uint256"}],"stateMutability":"payable"},{"type":"function","name":"createInvoiceWithMetadata","inputs":[{"name":"params","type":"tuple","internalType":"struct CreateInvoiceParams","components":[{"name":"debtor","type":"address","internalType":"address"},{"name":"creditor","type":"address","internalType":"address"},{"name":"claimAmount","type":"uint256","internalType":"uint256"},{"name":"dueBy","type":"uint256","internalType":"uint256"},{"name":"deliveryDate","type":"uint256","internalType":"uint256"},{"name":"description","type":"string","internalType":"string"},{"name":"token","type":"address","internalType":"address"},{"name":"binding","type":"uint8","internalType":"enum ClaimBinding"},{"name":"lateFeeConfig","type":"tuple","internalType":"struct InterestConfig","components":[{"name":"interestRateBps","type":"uint16","internalType":"uint16"},{"name":"numberOfPeriodsPerYear","type":"uint16","internalType":"uint16"}]},{"name":"impairmentGracePeriod","type":"uint256","internalType":"uint256"},{"name":"depositAmount","type":"uint256","internalType":"uint256"}]},{"name":"metadata","type":"tuple","internalType":"struct ClaimMetadata","components":[{"name":"tokenURI","type":"string","internalType":"string"},{"name":"attachmentURI","type":"string","internalType":"string"}]}],"outputs":[{"name":"","type":"uint256","internalType":"uint256"}],"stateMutability":"payable"},{"type":"function","name":"deliverPurchaseOrder","inputs":[{"name":"claimId","type":"uint256","internalType":"uint256"}],"outputs":[],"stateMutability":"nonpayable"},{"type":"function","name":"getApproved","inputs":[{"name":"tokenId","type":"uint256","internalType":"uint256"}],"outputs":[{"name":"","type":"address","internalType":"address"}],"stateMutability":"view"},{"type":"function","name":"getInvoice","inputs":[{"name":"claimId","type":"uint256","internalType":"uint256"}],"outputs":[{"name":"","type":"tuple","internalType":"struct Invoice","components":[{"name":"claimAmount","type":"uint256","internalType":"uint256"},{"name":"paidAmount","type":"uint256","internalType":"uint256"},{"name":"dueBy","type":"uint256","internalType":"uint256"},{"name":"creditor","type":"address","internalType":"address"},{"name":"debtor","type":"address","internalType":"address"},{"name":"token","type":"address","internalType":"address"},{"name":"status","type":"uint8","internalType":"enum Status"},{"name":"binding","type":"uint8","internalType":"enum ClaimBinding"},{"name":"purchaseOrder","type":"tuple","internalType":"struct PurchaseOrderState","components":[{"name":"deliveryDate","type":"uint256","internalType":"uint256"},{"name":"depositAmount","type":"uint256","internalType":"uint256"},{"name":"isDelivered","type":"bool","internalType":"bool"}]},{"name":"lateFeeConfig","type":"tuple","internalType":"struct InterestConfig","components":[{"name":"interestRateBps","type":"uint16","internalType":"uint16"},{"name":"numberOfPeriodsPerYear","type":"uint16","internalType":"uint16"}]},{"name":"interestComputationState","type":"tuple","internalType":"struct InterestComputationState","components":[{"name":"accruedInterest","type":"uint256","internalType":"uint256"},{"name":"latestPeriodNumber","type":"uint256","internalType":"uint256"},{"name":"protocolFeeBps","type":"uint16","internalType":"uint16"},{"name":"totalGrossInterestPaid","type":"uint256","internalType":"uint256"}]}]}],"stateMutability":"view"},{"type":"function","name":"getTotalAmountNeededForPurchaseOrderDeposit","inputs":[{"name":"claimId","type":"uint256","internalType":"uint256"}],"outputs":[{"name":"","type":"uint256","internalType":"uint256"}],"stateMutability":"nonpayable"},{"type":"function","name":"impairInvoice","inputs":[{"name":"claimId","type":"uint256","internalType":"uint256"}],"outputs":[],"stateMutability":"nonpayable"},{"type":"function","name":"isApprovedForAll","inputs":[{"name":"owner","type":"address","internalType":"address"},{"name":"operator","type":"address","internalType":"address"}],"outputs":[{"name":"","type":"bool","internalType":"bool"}],"stateMutability":"view"},{"type":"function","name":"markInvoiceAsPaid","inputs":[{"name":"claimId","type":"uint256","internalType":"uint256"}],"outputs":[],"stateMutability":"nonpayable"},{"type":"function","name":"owner","inputs":[],"outputs":[{"name":"","type":"address","internalType":"address"}],"stateMutability":"view"},{"type":"function","name":"ownerOf","inputs":[{"name":"tokenId","type":"uint256","internalType":"uint256"}],"outputs":[{"name":"","type":"address","internalType":"address"}],"stateMutability":"view"},{"type":"function","name":"payInvoice","inputs":[{"name":"claimId","type":"uint256","internalType":"uint256"},{"name":"paymentAmount","type":"uint256","internalType":"uint256"}],"outputs":[],"stateMutability":"payable"},{"type":"function","name":"protocolFeeBPS","inputs":[],"outputs":[{"name":"","type":"uint16","internalType":"uint16"}],"stateMutability":"view"},{"type":"function","name":"protocolFeeTokenWhitelist","inputs":[{"name":"","type":"address","internalType":"address"}],"outputs":[{"name":"","type":"bool","internalType":"bool"}],"stateMutability":"view"},{"type":"function","name":"protocolFeesByToken","inputs":[{"name":"","type":"address","internalType":"address"}],"outputs":[{"name":"","type":"uint256","internalType":"uint256"}],"stateMutability":"view"},{"type":"function","name":"removeFromFeeTokenWhitelist","inputs":[{"name":"token","type":"address","internalType":"address"}],"outputs":[],"stateMutability":"nonpayable"},{"type":"function","name":"renounceOwnership","inputs":[],"outputs":[],"stateMutability":"nonpayable"},{"type":"function","name":"safeTransferFrom","inputs":[{"name":"from","type":"address","internalType":"address"},{"name":"to","type":"address","internalType":"address"},{"name":"tokenId","type":"uint256","internalType":"uint256"}],"outputs":[],"stateMutability":"nonpayable"},{"type":"function","name":"safeTransferFrom","inputs":[{"name":"from","type":"address","internalType":"address"},{"name":"to","type":"address","internalType":"address"},{"name":"tokenId","type":"uint256","internalType":"uint256"},{"name":"data","type":"bytes","internalType":"bytes"}],"outputs":[],"stateMutability":"nonpayable"},{"type":"function","name":"setApprovalForAll","inputs":[{"name":"operator","type":"address","internalType":"address"},{"name":"approved","type":"bool","internalType":"bool"}],"outputs":[],"stateMutability":"nonpayable"},{"type":"function","name":"setProtocolFee","inputs":[{"name":"_protocolFeeBPS","type":"uint16","internalType":"uint16"}],"outputs":[],"stateMutability":"nonpayable"},{"type":"function","name":"supportsInterface","inputs":[{"name":"interfaceId","type":"bytes4","internalType":"bytes4"}],"outputs":[{"name":"","type":"bool","internalType":"bool"}],"stateMutability":"view"},{"type":"function","name":"transferFrom","inputs":[{"name":"from","type":"address","internalType":"address"},{"name":"to","type":"address","internalType":"address"},{"name":"tokenId","type":"uint256","internalType":"uint256"}],"outputs":[],"stateMutability":"nonpayable"},{"type":"function","name":"transferOwnership","inputs":[{"name":"newOwner","type":"address","internalType":"address"}],"outputs":[],"stateMutability":"nonpayable"},{"type":"function","name":"updateBinding","inputs":[{"name":"claimId","type":"uint256","internalType":"uint256"},{"name":"binding","type":"uint8","internalType":"enum ClaimBinding"}],"outputs":[],"stateMutability":"nonpayable"},{"type":"function","name":"whitelistedProtocolFeeTokens","inputs":[{"name":"","type":"uint256","internalType":"uint256"}],"outputs":[{"name":"","type":"address","internalType":"address"}],"stateMutability":"view"},{"type":"function","name":"withdrawAllFees","inputs":[],"outputs":[],"stateMutability":"nonpayable"},{"type":"event","name":"Approval","inputs":[{"name":"owner","type":"address","indexed":true,"internalType":"address"},{"name":"approved","type":"address","indexed":true,"internalType":"address"},{"name":"tokenId","type":"uint256","indexed":true,"internalType":"uint256"}],"anonymous":false},{"type":"event","name":"ApprovalForAll","inputs":[{"name":"owner","type":"address","indexed":true,"internalType":"address"},{"name":"operator","type":"address","indexed":true,"internalType":"address"},{"name":"approved","type":"bool","indexed":false,"internalType":"bool"}],"anonymous":false},{"type":"event","name":"FeeWithdrawn","inputs":[{"name":"admin","type":"address","indexed":true,"internalType":"address"},{"name":"token","type":"address","indexed":true,"internalType":"address"},{"name":"amount","type":"uint256","indexed":false,"internalType":"uint256"}],"anonymous":false},{"type":"event","name":"InvoiceCreated","inputs":[{"name":"claimId","type":"uint256","indexed":true,"internalType":"uint256"},{"name":"invoiceDetails","type":"tuple","indexed":false,"internalType":"struct InvoiceDetails","components":[{"name":"requestedByCreditor","type":"bool","internalType":"bool"},{"name":"isProtocolFeeExempt","type":"bool","internalType":"bool"},{"name":"purchaseOrder","type":"tuple","internalType":"struct PurchaseOrderState","components":[{"name":"deliveryDate","type":"uint256","internalType":"uint256"},{"name":"depositAmount","type":"uint256","internalType":"uint256"},{"name":"isDelivered","type":"bool","internalType":"bool"}]},{"name":"lateFeeConfig","type":"tuple","internalType":"struct InterestConfig","components":[{"name":"interestRateBps","type":"uint16","internalType":"uint16"},{"name":"numberOfPeriodsPerYear","type":"uint16","internalType":"uint16"}]},{"name":"interestComputationState","type":"tuple","internalType":"struct InterestComputationState","components":[{"name":"accruedInterest","type":"uint256","internalType":"uint256"},{"name":"latestPeriodNumber","type":"uint256","internalType":"uint256"},{"name":"protocolFeeBps","type":"uint16","internalType":"uint16"},{"name":"totalGrossInterestPaid","type":"uint256","internalType":"uint256"}]}]},{"name":"fee","type":"uint256","indexed":false,"internalType":"uint256"},{"name":"metadata","type":"tuple","indexed":false,"internalType":"struct ClaimMetadata","components":[{"name":"tokenURI","type":"string","internalType":"string"},{"name":"attachmentURI","type":"string","internalType":"string"}]}],"anonymous":false},{"type":"event","name":"InvoicePaid","inputs":[{"name":"claimId","type":"uint256","indexed":true,"internalType":"uint256"},{"name":"grossInterestPaid","type":"uint256","indexed":false,"internalType":"uint256"},{"name":"principalPaid","type":"uint256","indexed":false,"internalType":"uint256"},{"name":"protocolFee","type":"uint256","indexed":false,"internalType":"uint256"}],"anonymous":false},{"type":"event","name":"OwnershipTransferred","inputs":[{"name":"previousOwner","type":"address","indexed":true,"internalType":"address"},{"name":"newOwner","type":"address","indexed":true,"internalType":"address"}],"anonymous":false},{"type":"event","name":"ProtocolFeeUpdated","inputs":[{"name":"oldFee","type":"uint16","indexed":false,"internalType":"uint16"},{"name":"newFee","type":"uint16","indexed":false,"internalType":"uint16"}],"anonymous":false},{"type":"event","name":"PurchaseOrderAccepted","inputs":[{"name":"claimId","type":"uint256","indexed":true,"internalType":"uint256"},{"name":"debtor","type":"address","indexed":true,"internalType":"address"},{"name":"depositAmount","type":"uint256","indexed":false,"internalType":"uint256"},{"name":"bound","type":"bool","indexed":false,"internalType":"bool"}],"anonymous":false},{"type":"event","name":"PurchaseOrderDelivered","inputs":[{"name":"claimId","type":"uint256","indexed":true,"internalType":"uint256"}],"anonymous":false},{"type":"event","name":"TokenAddedToFeesWhitelist","inputs":[{"name":"token","type":"address","indexed":true,"internalType":"address"}],"anonymous":false},{"type":"event","name":"TokenRemovedFromFeesWhitelist","inputs":[{"name":"token","type":"address","indexed":true,"internalType":"address"}],"anonymous":false},{"type":"event","name":"Transfer","inputs":[{"name":"from","type":"address","indexed":true,"internalType":"address"},{"name":"to","type":"address","indexed":true,"internalType":"address"},{"name":"tokenId","type":"uint256","indexed":true,"internalType":"uint256"}],"anonymous":false},{"type":"error","name":"IncorrectFee","inputs":[]},{"type":"error","name":"IncorrectMsgValue","inputs":[]},{"type":"error","name":"InvalidDeliveryDate","inputs":[]},{"type":"error","name":"InvalidDepositAmount","inputs":[]},{"type":"error","name":"InvalidMsgValue","inputs":[]},{"type":"error","name":"InvalidProtocolFee","inputs":[]},{"type":"error","name":"InvoiceNotPending","inputs":[]},{"type":"error","name":"NotAuthorizedForBinding","inputs":[]},{"type":"error","name":"NotController","inputs":[{"name":"sender","type":"address","internalType":"address"}]},{"type":"error","name":"NotCreditorOrDebtor","inputs":[]},{"type":"error","name":"NotOriginalCreditor","inputs":[]},{"type":"error","name":"NotPurchaseOrder","inputs":[]},{"type":"error","name":"OwnableInvalidOwner","inputs":[{"name":"owner","type":"address","internalType":"address"}]},{"type":"error","name":"OwnableUnauthorizedAccount","inputs":[{"name":"account","type":"address","internalType":"address"}]},{"type":"error","name":"PayingZero","inputs":[]},{"type":"error","name":"PurchaseOrderAlreadyDelivered","inputs":[]}],"bytecode":{"object":"0x5f60e081815260a081815261012060405261010092835260c092909252600190819061002b90826101e1565b506020820151600182019061004090826101e1565b50505034801561004e575f5ffd5b506040516155f63803806155f683398101604081905261006d916102b6565b6001600160a01b03808416608052829081166100a257604051631e4fbdf760e01b81525f600482015260240160405180910390fd5b6100ab816100fa565b5061271061ffff821611156100d357604051631752ff0760e31b815260040160405180910390fd5b5f805461ffff909216600160a01b0261ffff60a01b19909216919091179055506103009050565b5f80546001600160a01b038381166001600160a01b0319831681178455604051919092169283917f8be0079c531659141344cd1fd0a4f28419497f9722a3daafe3b4186f6b6457e09190a35050565b634e487b7160e01b5f52604160045260245ffd5b600181811c9082168061017157607f821691505b60208210810361018f57634e487b7160e01b5f52602260045260245ffd5b50919050565b601f8211156101dc57805f5260205f20601f840160051c810160208510156101ba5750805b601f840160051c820191505b818110156101d9575f81556001016101c6565b50505b505050565b81516001600160401b038111156101fa576101fa610149565b61020e81610208845461015d565b84610195565b6020601f821160018114610240575f83156102295750848201515b5f19600385901b1c1916600184901b1784556101d9565b5f84815260208120601f198516915b8281101561026f578785015182556020948501946001909201910161024f565b508482101561028c57868401515f19600387901b60f8161c191681555b50505050600190811b01905550565b80516001600160a01b03811681146102b1575f5ffd5b919050565b5f5f5f606084860312156102c8575f5ffd5b6102d18461029b565b92506102df6020850161029b565b9150604084015161ffff811681146102f5575f5ffd5b809150509250925092565b6080516151f06104065f395f8181610334015281816107d20152818161088201528181610963015281816109f201528181610ab601528181610b5801528181610c1c01528181610c9101528181610d7a01528181610ea401528181611207015281816112d3015281816114c20152818161158e015281816115f80152818161166d015281816119a901528181611ca001528181611f88015281816121ff015281816122cb0152818161236e015281816126020152818161271301528181612bfd01528181612c99015281816130c70152818161325c0152818161335a015281816135e80152818161370b01528181613833015281816139d80152613a9301526151f05ff3fe608060405260043610610229575f3560e01c8063715018a611610131578063b88d4fde116100ac578063e985e9c51161007c578063f2fde38b11610062578063f2fde38b1461067c578063f851a440146104f9578063fac6f2151461069b575f5ffd5b8063e985e9c51461064a578063f02f03fc14610669575f5ffd5b8063b88d4fde146105da578063cc368b1d146105f9578063d4251f9e1461060c578063e4467f351461062b575f5ffd5b806396daa32211610101578063a4a1d84e116100e7578063a4a1d84e14610585578063a5cc6a7f14610598578063af236af4146105c6575f5ffd5b806396daa32214610522578063a22cb46514610566575f5ffd5b8063715018a6146104a757806382459995146104bb57806389339744146104da5780638da5cb5b146104f9575f5ffd5b80633a23cc0a116101c15780634ef5494e116101915780636352211e116101775780636352211e1461044a57806367d1f0621461046957806370a0823114610488575f5ffd5b80634ef5494e146104185780635edc84eb1461042b575f5ffd5b80633a23cc0a1461038f5780633f97833b146103bb57806342842e0e146103da5780634be18e94146103f9575f5ffd5b80631be4c4d4116101fc5780631be4c4d4146102e557806323b872dd146103045780632b538af51461032357806339737e0714610356575f5ffd5b806301ffc9a71461022d578063081812fc14610261578063095ea7b3146102a55780630f2c513d146102c6575b5f5ffd5b348015610238575f5ffd5b5061024c61024736600461438a565b6106bd565b60405190151581526020015b60405180910390f35b34801561026c575f5ffd5b5061028061027b3660046143c9565b6107a1565b60405173ffffffffffffffffffffffffffffffffffffffff9091168152602001610258565b3480156102b0575f5ffd5b506102c46102bf366004614411565b610851565b005b3480156102d1575f5ffd5b506102c46102e03660046143c9565b6109c1565b3480156102f0575f5ffd5b506102c46102ff3660046143c9565b610b27565b34801561030f575f5ffd5b506102c461031e36600461443b565b610c60565b34801561032e575f5ffd5b506102807f000000000000000000000000000000000000000000000000000000000000000081565b348015610361575f5ffd5b50610381610370366004614479565b60046020525f908152604090205481565b604051908152602001610258565b34801561039a575f5ffd5b506103ae6103a93660046143c9565b610dd8565b60405161025891906144e5565b3480156103c6575f5ffd5b506102c46103d5366004614756565b6111d6565b3480156103e5575f5ffd5b506102c46103f436600461443b565b61130c565b348015610404575f5ffd5b506102806104133660046143c9565b611326565b6103816104263660046148d6565b61135b565b348015610436575f5ffd5b506102c4610445366004614908565b611491565b348015610455575f5ffd5b506102806104643660046143c9565b6115c7565b348015610474575f5ffd5b506102c46104833660046143c9565b61163c565b348015610493575f5ffd5b506103816104a2366004614479565b611962565b3480156104b2575f5ffd5b506102c4611a14565b3480156104c6575f5ffd5b506102c46104d5366004614479565b611a27565b3480156104e5575f5ffd5b506103816104f43660046143c9565b611c58565b348015610504575f5ffd5b505f5473ffffffffffffffffffffffffffffffffffffffff16610280565b34801561052d575f5ffd5b505f546105539074010000000000000000000000000000000000000000900461ffff1681565b60405161ffff9091168152602001610258565b348015610571575f5ffd5b506102c4610580366004614943565b611f3b565b61038161059336600461496f565b611fbb565b3480156105a3575f5ffd5b5061024c6105b2366004614479565b60056020525f908152604090205460ff1681565b3480156105d1575f5ffd5b506102c4611fcd565b3480156105e5575f5ffd5b506102c46105f4366004614a33565b6121ce565b6102c4610607366004614aae565b61233d565b348015610617575f5ffd5b506102c4610626366004614479565b6129b8565b348015610636575f5ffd5b506102c4610645366004614ace565b612ad7565b348015610655575f5ffd5b5061024c610664366004614ae9565b612bae565b6102c4610677366004614aae565b612c68565b348015610687575f5ffd5b506102c4610696366004614479565b61340f565b3480156106a6575f5ffd5b506106af613477565b604051610258929190614b61565b5f7fffffffff0000000000000000000000000000000000000000000000000000000082167f3df2ca5b00000000000000000000000000000000000000000000000000000000148061074f57507f80ac58cd000000000000000000000000000000000000000000000000000000007fffffffff000000000000000000000000000000000000000000000000000000008316145b8061079b57507f01ffc9a7000000000000000000000000000000000000000000000000000000007fffffffff000000000000000000000000000000000000000000000000000000008316145b92915050565b6040517f081812fc000000000000000000000000000000000000000000000000000000008152600481018290525f907f000000000000000000000000000000000000000000000000000000000000000073ffffffffffffffffffffffffffffffffffffffff169063081812fc906024015b602060405180830381865afa15801561082d573d5f5f3e3d5ffd5b505050506040513d601f19601f8201168201806040525081019061079b9190614b90565b6040517f5aef2447000000000000000000000000000000000000000000000000000000008152600481018290525f907f000000000000000000000000000000000000000000000000000000000000000073ffffffffffffffffffffffffffffffffffffffff1690635aef24479060240161016060405180830381865afa1580156108dd573d5f5f3e3d5ffd5b505050506040513d601f19601f820116820180604052508101906109019190614bc4565b9050610911816101000151613593565b6040517f52ec852900000000000000000000000000000000000000000000000000000000815233600482015273ffffffffffffffffffffffffffffffffffffffff8481166024830152604482018490527f000000000000000000000000000000000000000000000000000000000000000016906352ec8529906064015b5f604051808303815f87803b1580156109a5575f5ffd5b505af11580156109b7573d5f5f3e3d5ffd5b505050505b505050565b6040517f5aef2447000000000000000000000000000000000000000000000000000000008152600481018290525f907f000000000000000000000000000000000000000000000000000000000000000073ffffffffffffffffffffffffffffffffffffffff1690635aef24479060240161016060405180830381865afa158015610a4d573d5f5f3e3d5ffd5b505050506040513d601f19601f82011682018060405250810190610a719190614bc4565b9050610a81816101000151613593565b6040517f2a982aeb000000000000000000000000000000000000000000000000000000008152336004820152602481018390527f000000000000000000000000000000000000000000000000000000000000000073ffffffffffffffffffffffffffffffffffffffff1690632a982aeb906044015b5f604051808303815f87803b158015610b0d575f5ffd5b505af1158015610b1f573d5f5f3e3d5ffd5b505050505050565b6040517f5aef2447000000000000000000000000000000000000000000000000000000008152600481018290525f907f000000000000000000000000000000000000000000000000000000000000000073ffffffffffffffffffffffffffffffffffffffff1690635aef24479060240161016060405180830381865afa158015610bb3573d5f5f3e3d5ffd5b505050506040513d601f19601f82011682018060405250810190610bd79190614bc4565b9050610be7816101000151613593565b6040517f3081ed8a000000000000000000000000000000000000000000000000000000008152336004820152602481018390527f000000000000000000000000000000000000000000000000000000000000000073ffffffffffffffffffffffffffffffffffffffff1690633081ed8a90604401610af6565b6040517f5aef2447000000000000000000000000000000000000000000000000000000008152600481018290525f907f000000000000000000000000000000000000000000000000000000000000000073ffffffffffffffffffffffffffffffffffffffff1690635aef24479060240161016060405180830381865afa158015610cec573d5f5f3e3d5ffd5b505050506040513d601f19601f82011682018060405250810190610d109190614bc4565b9050610d20816101000151613593565b6040517faf9fe4de00000000000000000000000000000000000000000000000000000000815233600482015273ffffffffffffffffffffffffffffffffffffffff85811660248301528481166044830152606482018490527f0000000000000000000000000000000000000000000000000000000000000000169063af9fe4de906084015f604051808303815f87803b158015610dbb575f5ffd5b505af1158015610dcd573d5f5f3e3d5ffd5b505050505b50505050565b610e7360408051610160810182525f80825260208083018290528284018290526060808401839052608080850184905260a0850184905260c0850184905260e08501849052855180830187528481528084018590528087018590526101008601528551808701875284815280840185905261012086015285519081018652838152918201839052938101829052928301529061014082015290565b6040517f5aef2447000000000000000000000000000000000000000000000000000000008152600481018390525f907f000000000000000000000000000000000000000000000000000000000000000073ffffffffffffffffffffffffffffffffffffffff1690635aef24479060240161016060405180830381865afa158015610eff573d5f5f3e3d5ffd5b505050506040513d601f19601f82011682018060405250810190610f239190614bc4565b9050610f33816101000151613593565b5f838152600660208181526040808420815160a081018352815460ff8082161515835261010090910481161515828601528351606080820186526001850154825260028501548288015260038501549092161515818601528285015283518085018552600484015461ffff8082168352620100009091048116828801528284019190915284516080818101875260058601548252978501549681019690965260078401541693850193909352600890910154918301919091529182015290826101200151600581111561100857611008614494565b148061102a57506001826101200151600581111561102857611028614494565b145b8061104b57506005826101200151600581111561104957611049614494565b145b156110f05773__$4bbbaa6d90f42a60403c514cce5191a63a$__63ff7f44438360200151845f015161107d9190614cb2565b8460400151846060015185608001516040518563ffffffff1660e01b81526004016110ab9493929190614cc5565b608060405180830381865af41580156110c6573d5f5f3e3d5ffd5b505050506040513d601f19601f820116820180604052508101906110ea9190614d1a565b60808201525b604051806101600160405280835f0151815260200183602001518152602001836040015181526020018360c0015173ffffffffffffffffffffffffffffffffffffffff1681526020018360a0015173ffffffffffffffffffffffffffffffffffffffff1681526020018360e0015173ffffffffffffffffffffffffffffffffffffffff168152602001836101200151600581111561119057611190614494565b815260200183610140015160028111156111ac576111ac614494565b81526020018260400151815260200182606001518152602001826080015181525092505050919050565b6040517f5aef2447000000000000000000000000000000000000000000000000000000008152600481018390525f907f000000000000000000000000000000000000000000000000000000000000000073ffffffffffffffffffffffffffffffffffffffff1690635aef24479060240161016060405180830381865afa158015611262573d5f5f3e3d5ffd5b505050506040513d601f19601f820116820180604052508101906112869190614bc4565b9050611296816101000151613593565b6040517f708cf83200000000000000000000000000000000000000000000000000000000815273ffffffffffffffffffffffffffffffffffffffff7f0000000000000000000000000000000000000000000000000000000000000000169063708cf8329061098e90339087908790600401614d86565b6109bc83838360405180602001604052805f8152506121ce565b60038181548110611335575f80fd5b5f9182526020909120015473ffffffffffffffffffffffffffffffffffffffff16905081565b5f61079b8260016040518060400160405290815f8201805461137c90614dba565b80601f01602080910402602001604051908101604052809291908181526020018280546113a890614dba565b80156113f35780601f106113ca576101008083540402835291602001916113f3565b820191905f5260205f20905b8154815290600101906020018083116113d657829003601f168201915b5050505050815260200160018201805461140c90614dba565b80601f016020809104026020016040519081016040528092919081815260200182805461143890614dba565b80156114835780601f1061145a57610100808354040283529160200191611483565b820191905f5260205f20905b81548152906001019060200180831161146657829003601f168201915b5050505050815250506135e4565b6040517f5aef2447000000000000000000000000000000000000000000000000000000008152600481018390525f907f000000000000000000000000000000000000000000000000000000000000000073ffffffffffffffffffffffffffffffffffffffff1690635aef24479060240161016060405180830381865afa15801561151d573d5f5f3e3d5ffd5b505050506040513d601f19601f820116820180604052508101906115419190614bc4565b9050611551816101000151613593565b6040517f6418bde900000000000000000000000000000000000000000000000000000000815273ffffffffffffffffffffffffffffffffffffffff7f00000000000000000000000000000000000000000000000000000000000000001690636418bde99061098e90339087908790600401614e0b565b6040517f6352211e000000000000000000000000000000000000000000000000000000008152600481018290525f907f000000000000000000000000000000000000000000000000000000000000000073ffffffffffffffffffffffffffffffffffffffff1690636352211e90602401610812565b6040517f5aef2447000000000000000000000000000000000000000000000000000000008152600481018290525f907f000000000000000000000000000000000000000000000000000000000000000073ffffffffffffffffffffffffffffffffffffffff1690635aef24479060240161016060405180830381865afa1580156116c8573d5f5f3e3d5ffd5b505050506040513d601f19601f820116820180604052508101906116ec9190614bc4565b90506116fc816101000151613593565b5f82815260066020818152604092839020835160a081018552815460ff8082161515835261010090910481161515828501528551606080820188526001850154825260028501548287015260038501549092161515818801528287015285518087018752600484015461ffff8082168352620100009091048116828701528284019190915286516080818101895260058601548252968501549581019590955260078401541695840195909552600890910154938201939093528183015282015173ffffffffffffffffffffffffffffffffffffffff16331461180b576040517f0522212c00000000000000000000000000000000000000000000000000000000815260040160405180910390fd5b6040810151515f03611849576040517f23e70d2000000000000000000000000000000000000000000000000000000000815260040160405180910390fd5b80604001516040015115611889576040517fb626b50000000000000000000000000000000000000000000000000000000000815260040160405180910390fd5b5f82610120015160058111156118a1576118a1614494565b141580156118c65750600182610120015160058111156118c3576118c3614494565b14155b156118fd576040517f75bc465a00000000000000000000000000000000000000000000000000000000815260040160405180910390fd5b5f8381526006602052604080822060030180547fffffffffffffffffffffffffffffffffffffffffffffffffffffffffffffff001660011790555184917f13840a69aa8d3b45706f548e51e80334bbba1a83284633b2af26778afa692d3591a2505050565b6040517f70a0823100000000000000000000000000000000000000000000000000000000815273ffffffffffffffffffffffffffffffffffffffff82811660048301525f917f0000000000000000000000000000000000000000000000000000000000000000909116906370a0823190602401602060405180830381865afa1580156119f0573d5f5f3e3d5ffd5b505050506040513d601f19601f8201168201806040525081019061079b9190614e3c565b611a1c613d6e565b611a255f613dc0565b565b611a2f613d6e565b73ffffffffffffffffffffffffffffffffffffffff81165f9081526005602052604090205460ff1615611c155773ffffffffffffffffffffffffffffffffffffffff81165f90815260056020526040812080547fffffffffffffffffffffffffffffffffffffffffffffffffffffffffffffff001690555b600354811015611c13578173ffffffffffffffffffffffffffffffffffffffff1660038281548110611adb57611adb614e53565b5f9182526020909120015473ffffffffffffffffffffffffffffffffffffffff1603611c0b5760038054611b1190600190614cb2565b81548110611b2157611b21614e53565b5f918252602090912001546003805473ffffffffffffffffffffffffffffffffffffffff9092169183908110611b5957611b59614e53565b905f5260205f20015f6101000a81548173ffffffffffffffffffffffffffffffffffffffff021916908373ffffffffffffffffffffffffffffffffffffffff1602179055506003805480611baf57611baf614e80565b5f8281526020902081017fffffffffffffffffffffffffffffffffffffffffffffffffffffffffffffffff90810180547fffffffffffffffffffffffff0000000000000000000000000000000000000000169055019055611c13565b600101611aa7565b505b60405173ffffffffffffffffffffffffffffffffffffffff8216907fceeec53cbb10af8d416c74d15b37f2c8761d65af488132f6de71b01176ad2334905f90a250565b6040517f5aef2447000000000000000000000000000000000000000000000000000000008152600481018290525f90819073ffffffffffffffffffffffffffffffffffffffff7f00000000000000000000000000000000000000000000000000000000000000001690635aef24479060240161016060405180830381865afa158015611ce6573d5f5f3e3d5ffd5b505050506040513d601f19601f82011682018060405250810190611d0a9190614bc4565b9050611d1a816101000151613593565b5f83815260066020818152604092839020835160a081018552815460ff80821615158352610100909104811615158285015285516060808201885260018501548252600285015482870152600385015490921615158188015282870190815286518088018852600485015461ffff80821683526201000090910481168288015283850191909152875160808181018a5260058701548252978601549681019690965260078501541696850196909652600890920154918301919091529182015290515115801590611df15750806040015160400151155b15611f325781602001518160400151602001511115611f32575f73__$4bbbaa6d90f42a60403c514cce5191a63a$__63ff7f44438460200151855f0151611e389190614cb2565b8560400151856060015186608001516040518563ffffffff1660e01b8152600401611e669493929190614cc5565b608060405180830381865af4158015611e81573d5f5f3e3d5ffd5b505050506040513d601f19601f82011682018060405250810190611ea59190614d1a565b60608301515190915061ffff1615611f1e575f85815260066020818152604092839020845160058201559084015191810191909155908201516007820180547fffffffffffffffffffffffffffffffffffffffffffffffffffffffffffff00001661ffff90921691909117905560608201516008909101555b611f29838383613e34565b95945050505050565b505f9392505050565b6040517fa22cb46500000000000000000000000000000000000000000000000000000000815273ffffffffffffffffffffffffffffffffffffffff838116600483015282151560248301527f0000000000000000000000000000000000000000000000000000000000000000169063a22cb46590604401610af6565b5050565b5f611fc683836135e4565b9392505050565b611fd5613d6e565b4780156120825761201a81611ffe5f5473ffffffffffffffffffffffffffffffffffffffff1690565b73ffffffffffffffffffffffffffffffffffffffff1690613e92565b5f805473ffffffffffffffffffffffffffffffffffffffff1673ffffffffffffffffffffffffffffffffffffffff167eed5939179dc194223f0edd1517ecee2210b22da7f82c8e4b1795e93b9f06aa8360405161207991815260200190565b60405180910390a35b5f5b600354811015611fb7575f600382815481106120a2576120a2614e53565b5f91825260208083209091015473ffffffffffffffffffffffffffffffffffffffff16808352600490915260409091205490915080156121c45773ffffffffffffffffffffffffffffffffffffffff82165f908152600460205260408120556121406121225f5473ffffffffffffffffffffffffffffffffffffffff1690565b73ffffffffffffffffffffffffffffffffffffffff84169083613f04565b8173ffffffffffffffffffffffffffffffffffffffff166121755f5473ffffffffffffffffffffffffffffffffffffffff1690565b73ffffffffffffffffffffffffffffffffffffffff167eed5939179dc194223f0edd1517ecee2210b22da7f82c8e4b1795e93b9f06aa836040516121bb91815260200190565b60405180910390a35b5050600101612084565b6040517f5aef2447000000000000000000000000000000000000000000000000000000008152600481018390525f907f000000000000000000000000000000000000000000000000000000000000000073ffffffffffffffffffffffffffffffffffffffff1690635aef24479060240161016060405180830381865afa15801561225a573d5f5f3e3d5ffd5b505050506040513d601f19601f8201168201806040525081019061227e9190614bc4565b905061228e816101000151613593565b6040517ffcf391e000000000000000000000000000000000000000000000000000000000815273ffffffffffffffffffffffffffffffffffffffff7f0000000000000000000000000000000000000000000000000000000000000000169063fcf391e0906123089033908990899089908990600401614ead565b5f604051808303815f87803b15801561231f575f5ffd5b505af1158015612331573d5f5f3e3d5ffd5b505050505b5050505050565b6040517f5aef2447000000000000000000000000000000000000000000000000000000008152600481018390525f907f000000000000000000000000000000000000000000000000000000000000000073ffffffffffffffffffffffffffffffffffffffff1690635aef24479060240161016060405180830381865afa1580156123c9573d5f5f3e3d5ffd5b505050506040513d601f19601f820116820180604052508101906123ed9190614bc4565b90506123fd816101000151613593565b5f838152600660208181526040808420815160a081018352815460ff8082161515835261010090910481161515828601528351606080820186526001850154825260028501548288015260038501549092161515818601528285015283518085018552600484015461ffff808216835262010000909104811682880152828401919091528451608081810187526005860154825297850154818801526007850154909116948101949094526008909201549183019190915292830152830151835191929173__$4bbbaa6d90f42a60403c514cce5191a63a$__9163ff7f4443916124e79190614cb2565b8560400151856060015186608001516040518563ffffffff1660e01b81526004016125159493929190614cc5565b608060405180830381865af4158015612530573d5f5f3e3d5ffd5b505050506040513d601f19601f820116820180604052508101906125549190614d1a565b90505f61256485835f0151613fb9565b90505f61258a6125748388614cb2565b602087015187516125859190614cb2565b613fb9565b90506125968282614f24565b9550855f036125d1576040517f924614c700000000000000000000000000000000000000000000000000000000815260040160405180910390fd5b6040517f6352211e000000000000000000000000000000000000000000000000000000008152600481018890525f907f000000000000000000000000000000000000000000000000000000000000000073ffffffffffffffffffffffffffffffffffffffff1690636352211e90602401602060405180830381865afa15801561265c573d5f5f3e3d5ffd5b505050506040513d601f19601f820116820180604052508101906126809190614b90565b90505f856020015180612691575083155b6126b4576126af8487606001515f0151886080015160400151613fc8565b6126b6565b5f5b90505f6126c38286614cb2565b90505f6126d08583614f24565b9050841561277f576040517e8c1075000000000000000000000000000000000000000000000000000000008152336004820152602481018c9052604481018690527f000000000000000000000000000000000000000000000000000000000000000073ffffffffffffffffffffffffffffffffffffffff1690628c1075906064015f604051808303815f87803b158015612768575f5ffd5b505af115801561277a573d5f5f3e3d5ffd5b505050505b60608801515161ffff161561284757604051806080016040528087895f01516127a89190614cb2565b81526020018860200151815260200189608001516040015161ffff168152602001878a60800151606001516127dd9190614f24565b90525f8c815260066020818152604092839020845160058201559084015191810191909155908201516007820180547fffffffffffffffffffffffffffffffffffffffffffffffffffffffffffff00001661ffff9092169190911790556060909101516008909101555b89156129ab5760e089015173ffffffffffffffffffffffffffffffffffffffff166128d0578934146128a5576040517f26ea953d00000000000000000000000000000000000000000000000000000000815260040160405180910390fd5b80156128cb576128cb73ffffffffffffffffffffffffffffffffffffffff851682613e92565b612967565b82156129145760e089015173ffffffffffffffffffffffffffffffffffffffff165f908152600460205260408120805485929061290e908490614f24565b90915550505b60e089015161293b9073ffffffffffffffffffffffffffffffffffffffff1633308d613fed565b80156129675760e08901516129679073ffffffffffffffffffffffffffffffffffffffff168583613f04565b60408051878152602081018790529081018490528b907fcb45df05119b18cc11d631cba00e4efd64b2cd9b92ab174d4a7b7678d416f9b29060600160405180910390a25b5050505050505050505050565b6129c0613d6e565b73ffffffffffffffffffffffffffffffffffffffff81165f9081526005602052604090205460ff16612a945773ffffffffffffffffffffffffffffffffffffffff81165f81815260056020526040812080547fffffffffffffffffffffffffffffffffffffffffffffffffffffffffffffff001660019081179091556003805491820181559091527fc2575a0e9e593c00f959f8c92f12db2869c3395a3b0502d05e2516446f71f85b0180547fffffffffffffffffffffffff00000000000000000000000000000000000000001690911790555b60405173ffffffffffffffffffffffffffffffffffffffff8216907f8ac7e85f445e8ee1c850abbfcd9da63ccb7b527c076290946108a7c280247096905f90a250565b612adf613d6e565b61271061ffff82161115612b1f576040517fba97f83800000000000000000000000000000000000000000000000000000000815260040160405180910390fd5b5f805461ffff838116740100000000000000000000000000000000000000008181027fffffffffffffffffffff0000ffffffffffffffffffffffffffffffffffffffff85161790945560408051949093049091168084526020840191909152917f26bc4a9b6ef30ec448ec7094c0f1002b0c6b8363d6a56be88ce399f1ac3d92f9910160405180910390a15050565b6040517fe985e9c500000000000000000000000000000000000000000000000000000000815273ffffffffffffffffffffffffffffffffffffffff838116600483015282811660248301525f917f00000000000000000000000000000000000000000000000000000000000000009091169063e985e9c590604401602060405180830381865afa158015612c44573d5f5f3e3d5ffd5b505050506040513d601f19601f82011682018060405250810190611fc69190614f37565b6040517f5aef2447000000000000000000000000000000000000000000000000000000008152600481018390525f907f000000000000000000000000000000000000000000000000000000000000000073ffffffffffffffffffffffffffffffffffffffff1690635aef24479060240161016060405180830381865afa158015612cf4573d5f5f3e3d5ffd5b505050506040513d601f19601f82011682018060405250810190612d189190614bc4565b9050612d28816101000151613593565b5f838152600660208181526040808420815160a081018352815460ff80821615158352610100909104811615158286015283516060808201865260018501548252600285015482880152600385015490921615158186015282850190815284518086018652600485015461ffff808216835262010000909104811682890152838501919091528551608081810188526005870154825298860154978101979097526007850154169486019490945260089092015491840191909152928301919091525151909103612e25576040517f23e70d2000000000000000000000000000000000000000000000000000000000815260040160405180910390fd5b8160a0015173ffffffffffffffffffffffffffffffffffffffff163373ffffffffffffffffffffffffffffffffffffffff1614612e8e576040517fb7cb8b5b00000000000000000000000000000000000000000000000000000000815260040160405180910390fd5b602082015182515f91612ea091614cb2565b905080841115612edc576040517ffe9ba5cd00000000000000000000000000000000000000000000000000000000815260040160405180910390fd5b5f73__$4bbbaa6d90f42a60403c514cce5191a63a$__63ff7f44438560200151865f0151612f0a9190614cb2565b8660400151866060015187608001516040518563ffffffff1660e01b8152600401612f389493929190614cc5565b608060405180830381865af4158015612f53573d5f5f3e3d5ffd5b505050506040513d601f19601f82011682018060405250810190612f779190614d1a565b60608401515190915061ffff1615612ff0575f86815260066020818152604092839020845160058201559084015191810191909155908201516007820180547fffffffffffffffffffffffffffffffffffffffffffffffffffffffffffff00001661ffff90921691909117905560608201516008909101555b5f85156132d05760e085015173ffffffffffffffffffffffffffffffffffffffff166130545785341461304f576040517f1841b4e100000000000000000000000000000000000000000000000000000000815260040160405180910390fd5b61308c565b341561308c576040517f1841b4e100000000000000000000000000000000000000000000000000000000815260040160405180910390fd5b613096878761233d565b6040517f5aef2447000000000000000000000000000000000000000000000000000000008152600481018890525f907f000000000000000000000000000000000000000000000000000000000000000073ffffffffffffffffffffffffffffffffffffffff1690635aef24479060240161016060405180830381865afa158015613122573d5f5f3e3d5ffd5b505050506040513d601f19601f820116820180604052508101906131469190614bc4565b5f898152600660208181526040808420815160a081018352815460ff8082161515835261010090910481161515828601528351606080820186526001850154825260028501548288015260038501549092161515818601528285015283518085018552600484015461ffff808216835262010000909104811682880152828401919091528451608081810187526005860154825297850154968101969096526007840154169385019390935260089091015491830191909152918201819052929350916132169084908490613e34565b9050805f036132c8576040517f6418bde900000000000000000000000000000000000000000000000000000000815273ffffffffffffffffffffffffffffffffffffffff7f00000000000000000000000000000000000000000000000000000000000000001690636418bde9906132969033908e90600290600401614e0b565b5f604051808303815f87803b1580156132ad575f5ffd5b505af11580156132bf573d5f5f3e3d5ffd5b50505050600193505b5050506133c8565b3415613308576040517f1841b4e100000000000000000000000000000000000000000000000000000000815260040160405180910390fd5b5f613314868685613e34565b9050805f036133c6576040517f6418bde900000000000000000000000000000000000000000000000000000000815273ffffffffffffffffffffffffffffffffffffffff7f00000000000000000000000000000000000000000000000000000000000000001690636418bde9906133949033908c90600290600401614e0b565b5f604051808303815f87803b1580156133ab575f5ffd5b505af11580156133bd573d5f5f3e3d5ffd5b50505050600191505b505b604080518781528215156020820152339189917f66a6a86a5c930b3a42f66989d8a24892cdb4a959c55279cdf81733205bb3d64f910160405180910390a350505050505050565b613417613d6e565b73ffffffffffffffffffffffffffffffffffffffff811661346b576040517f1e4fbdf70000000000000000000000000000000000000000000000000000000081525f60048201526024015b60405180910390fd5b61347481613dc0565b50565b60018054819061348690614dba565b80601f01602080910402602001604051908101604052809291908181526020018280546134b290614dba565b80156134fd5780601f106134d4576101008083540402835291602001916134fd565b820191905f5260205f20905b8154815290600101906020018083116134e057829003601f168201915b50505050509080600101805461351290614dba565b80601f016020809104026020016040519081016040528092919081815260200182805461353e90614dba565b80156135895780601f1061356057610100808354040283529160200191613589565b820191905f5260205f20905b81548152906001019060200180831161356c57829003601f168201915b5050505050905082565b73ffffffffffffffffffffffffffffffffffffffff81163014613474576040517f66719b7a000000000000000000000000000000000000000000000000000000008152336004820152602401613462565b5f5f7f000000000000000000000000000000000000000000000000000000000000000073ffffffffffffffffffffffffffffffffffffffff166301a2cae86040518163ffffffff1660e01b8152600401602060405180830381865afa15801561364f573d5f5f3e3d5ffd5b505050506040513d601f19601f820116820180604052508101906136739190614b90565b84516040517fbabcc53900000000000000000000000000000000000000000000000000000000815273ffffffffffffffffffffffffffffffffffffffff918216600482015291169063babcc53990602401602060405180830381865afa1580156136df573d5f5f3e3d5ffd5b505050506040513d601f19601f820116820180604052508101906137039190614f37565b8061382957507f000000000000000000000000000000000000000000000000000000000000000073ffffffffffffffffffffffffffffffffffffffff166301a2cae86040518163ffffffff1660e01b8152600401602060405180830381865afa158015613772573d5f5f3e3d5ffd5b505050506040513d601f19601f820116820180604052508101906137969190614b90565b60208501516040517fbabcc53900000000000000000000000000000000000000000000000000000000815273ffffffffffffffffffffffffffffffffffffffff918216600482015291169063babcc53990602401602060405180830381865afa158015613805573d5f5f3e3d5ffd5b505050506040513d601f19601f820116820180604052508101906138299190614f37565b90505f816138c3577f000000000000000000000000000000000000000000000000000000000000000073ffffffffffffffffffffffffffffffffffffffff16638204c6276040518163ffffffff1660e01b8152600401602060405180830381865afa15801561389a573d5f5f3e3d5ffd5b505050506040513d601f19601f820116820180604052508101906138be9190614e3c565b6138c5565b5f5b90506138d185826140a8565b5f604051806101000160405280876020015173ffffffffffffffffffffffffffffffffffffffff168152602001875f015173ffffffffffffffffffffffffffffffffffffffff168152602001876040015181526020018760a0015181526020018760c0015173ffffffffffffffffffffffffffffffffffffffff1681526020018760e00151600281111561396757613967614494565b81526020018760600151815260200187610120015181525090505f5f866020015151118015613997575085515115155b613a57576040517f1461f12600000000000000000000000000000000000000000000000000000000815273ffffffffffffffffffffffffffffffffffffffff7f00000000000000000000000000000000000000000000000000000000000000001690631461f126908590613a11903390879060040161500d565b60206040518083038185885af1158015613a2d573d5f5f3e3d5ffd5b50505050506040513d601f19601f82011682018060405250810190613a529190614e3c565b613b0e565b6040517e4b382900000000000000000000000000000000000000000000000000000000815273ffffffffffffffffffffffffffffffffffffffff7f00000000000000000000000000000000000000000000000000000000000000001690624b3829908590613acd90339087908c90600401615068565b60206040518083038185885af1158015613ae9573d5f5f3e3d5ffd5b50505050506040513d601f19601f82011682018060405250810190613b0e9190614e3c565b90505f6040518060a00160405280896020015173ffffffffffffffffffffffffffffffffffffffff163373ffffffffffffffffffffffffffffffffffffffff161415158152602001861515815260200160405180606001604052808b6080015181526020018b610140015181526020015f15158152508152602001896101000151815260200160405180608001604052805f81526020015f815260200188613bd3575f5474010000000000000000000000000000000000000000900461ffff16613bd5565b5f5b61ffff90811682525f602092830181905292909352858252600680825260409283902085518154878501511515610100027fffffffffffffffffffffffffffffffffffffffffffffffffffffffffffff00ff921515929092167fffffffffffffffffffffffffffffffffffffffffffffffffffffffffffff00009182161791909117825584870151805160018401558085015160028401558501516003830180549115157fffffffffffffffffffffffffffffffffffffffffffffffffffffffffffffff00929092169190911790556060808801518051600485018054928801518a1662010000027fffffffffffffffffffffffffffffffffffffffffffffffffffffffff00000000909316918a16919091179190911790556080880151805160058501559485015193830193909355838501516007830180549190971691161790945501516008909201919091555190915082907fb6dfbc3da80493595ba218d832d250d3eb44a42999a31cbef77bd27ccd9038b590613d5b90849088908c906150b2565b60405180910390a2509695505050505050565b5f5473ffffffffffffffffffffffffffffffffffffffff163314611a25576040517f118cdaa7000000000000000000000000000000000000000000000000000000008152336004820152602401613462565b5f805473ffffffffffffffffffffffffffffffffffffffff8381167fffffffffffffffffffffffff0000000000000000000000000000000000000000831681178455604051919092169283917f8be0079c531659141344cd1fd0a4f28419497f9722a3daafe3b4186f6b6457e09190a35050565b6040820151515f9015801590613e505750826040015160400151155b15611f325783602001518360400151602001511115611f32575f8460200151846040015160200151613e829190614cb2565b8351909150611f29908290614f24565b5f5f5f5f5f85875af19050806109bc576040517f08c379a000000000000000000000000000000000000000000000000000000000815260206004820152601360248201527f4554485f5452414e534645525f4641494c4544000000000000000000000000006044820152606401613462565b5f6040517fa9059cbb00000000000000000000000000000000000000000000000000000000815283600482015282602482015260205f6044835f895af13d15601f3d1160015f511416171691505080610dd2576040517f08c379a000000000000000000000000000000000000000000000000000000000815260206004820152600f60248201527f5452414e534645525f4641494c454400000000000000000000000000000000006044820152606401613462565b5f828218828410028218611fc6565b5f613fe58461ffff8416613fdc8587615154565b61ffff1661428e565b949350505050565b5f6040517f23b872dd00000000000000000000000000000000000000000000000000000000815284600482015283602482015282604482015260205f6064835f8a5af13d15601f3d1160015f511416171691505080612336576040517f08c379a000000000000000000000000000000000000000000000000000000000815260206004820152601460248201527f5452414e534645525f46524f4d5f4641494c45440000000000000000000000006044820152606401613462565b815173ffffffffffffffffffffffffffffffffffffffff1633148015906140ff5750816020015173ffffffffffffffffffffffffffffffffffffffff163373ffffffffffffffffffffffffffffffffffffffff1614155b15614136576040517f5d6db4c200000000000000000000000000000000000000000000000000000000815260040160405180910390fd5b60808201511580159061415e5750428260800151108061415e5750608082015164ffffffffff105b15614195576040517f415291e400000000000000000000000000000000000000000000000000000000815260040160405180910390fd5b816040015182610140015111156141d8576040517ffe9ba5cd00000000000000000000000000000000000000000000000000000000815260040160405180910390fd5b803414614211576040517fcd3cb2bb00000000000000000000000000000000000000000000000000000000815260040160405180910390fd5b6101008201516040517f9d6c6ae700000000000000000000000000000000000000000000000000000000815273__$4bbbaa6d90f42a60403c514cce5191a63a$__91639d6c6ae791614266919060040161516e565b5f6040518083038186803b15801561427c575f5ffd5b505af4158015610b1f573d5f5f3e3d5ffd5b5f5f5f61429b868661433e565b91509150815f036142bf578381816142b5576142b561518d565b0492505050611fc6565b8184116142d6576142d66003851502601118614379565b5f848688095f868103871696879004966002600389028118808a02820302808a02820302808a02820302808a02820302808a02820302808a02909103029181900381900460010185841190960395909502919093039390930492909217029150509392505050565b5f807fffffffffffffffffffffffffffffffffffffffffffffffffffffffffffffffff83850993909202808410938190039390930393915050565b634e487b715f52806020526024601cfd5b5f6020828403121561439a575f5ffd5b81357fffffffff0000000000000000000000000000000000000000000000000000000081168114611fc6575f5ffd5b5f602082840312156143d9575f5ffd5b5035919050565b73ffffffffffffffffffffffffffffffffffffffff81168114613474575f5ffd5b803561440c816143e0565b919050565b5f5f60408385031215614422575f5ffd5b823561442d816143e0565b946020939093013593505050565b5f5f5f6060848603121561444d575f5ffd5b8335614458816143e0565b92506020840135614468816143e0565b929592945050506040919091013590565b5f60208284031215614489575f5ffd5b8135611fc6816143e0565b7f4e487b71000000000000000000000000000000000000000000000000000000005f52602160045260245ffd5b600681106144d1576144d1614494565b9052565b600381106144d1576144d1614494565b5f61022082019050825182526020830151602083015260408301516040830152606083015161452c606084018273ffffffffffffffffffffffffffffffffffffffff169052565b506080830151614554608084018273ffffffffffffffffffffffffffffffffffffffff169052565b5060a083015161457c60a084018273ffffffffffffffffffffffffffffffffffffffff169052565b5060c083015161458f60c08401826144c1565b5060e08301516145a260e08401826144d5565b506101008301516145cd61010084018280518252602080820151908301526040908101511515910152565b50610120830151805161ffff9081166101608501526020820151166101808401525061014083015180516101a084015260208101516101c0840152604081015161ffff166101e084015260608101516102008401525092915050565b7f4e487b71000000000000000000000000000000000000000000000000000000005f52604160045260245ffd5b6040805190810167ffffffffffffffff8111828210171561467957614679614629565b60405290565b604051610160810167ffffffffffffffff8111828210171561467957614679614629565b5f5f67ffffffffffffffff8411156146bd576146bd614629565b506040517fffffffffffffffffffffffffffffffffffffffffffffffffffffffffffffffe0601f85018116603f0116810181811067ffffffffffffffff8211171561470a5761470a614629565b604052838152905080828401851015614721575f5ffd5b838360208301375f60208583010152509392505050565b5f82601f830112614747575f5ffd5b611fc6838335602085016146a3565b5f5f60408385031215614767575f5ffd5b82359150602083013567ffffffffffffffff811115614784575f5ffd5b61479085828601614738565b9150509250929050565b60038110613474575f5ffd5b803561440c8161479a565b61ffff81168114613474575f5ffd5b5f604082840312156147d0575f5ffd5b6147d8614656565b905081356147e5816147b1565b815260208201356147f5816147b1565b602082015292915050565b5f6101808284031215614811575f5ffd5b61481961467f565b905061482482614401565b815261483260208301614401565b602082015260408281013590820152606080830135908201526080808301359082015260a082013567ffffffffffffffff81111561486e575f5ffd5b61487a84828501614738565b60a08301525061488c60c08301614401565b60c082015261489d60e083016147a6565b60e08201526148b08361010084016147c0565b610100820152610140828101356101208301526101609092013591810191909152919050565b5f602082840312156148e6575f5ffd5b813567ffffffffffffffff8111156148fc575f5ffd5b613fe584828501614800565b5f5f60408385031215614919575f5ffd5b82359150602083013561492b8161479a565b809150509250929050565b8015158114613474575f5ffd5b5f5f60408385031215614954575f5ffd5b823561495f816143e0565b9150602083013561492b81614936565b5f5f60408385031215614980575f5ffd5b823567ffffffffffffffff811115614996575f5ffd5b6149a285828601614800565b925050602083013567ffffffffffffffff8111156149be575f5ffd5b8301604081860312156149cf575f5ffd5b6149d7614656565b813567ffffffffffffffff8111156149ed575f5ffd5b6149f987828501614738565b825250602082013567ffffffffffffffff811115614a15575f5ffd5b614a2187828501614738565b60208301525080925050509250929050565b5f5f5f5f60808587031215614a46575f5ffd5b8435614a51816143e0565b93506020850135614a61816143e0565b925060408501359150606085013567ffffffffffffffff811115614a83575f5ffd5b8501601f81018713614a93575f5ffd5b614aa2878235602084016146a3565b91505092959194509250565b5f5f60408385031215614abf575f5ffd5b50508035926020909101359150565b5f60208284031215614ade575f5ffd5b8135611fc6816147b1565b5f5f60408385031215614afa575f5ffd5b8235614b05816143e0565b9150602083013561492b816143e0565b5f81518084528060208401602086015e5f6020828601015260207fffffffffffffffffffffffffffffffffffffffffffffffffffffffffffffffe0601f83011685010191505092915050565b604081525f614b736040830185614b15565b8281036020840152611f298185614b15565b805161440c816143e0565b5f60208284031215614ba0575f5ffd5b8151611fc6816143e0565b80516006811061440c575f5ffd5b805161440c8161479a565b5f610160828403128015614bd6575f5ffd5b50614bdf61467f565b82518152602080840151908201526040808401519082015260608084015190820152614c0d60808401614b85565b6080820152614c1e60a08401614b85565b60a0820152614c2f60c08401614b85565b60c0820152614c4060e08401614b85565b60e0820152614c526101008401614b85565b610100820152614c656101208401614bab565b610120820152614c786101408401614bb9565b6101408201529392505050565b7f4e487b71000000000000000000000000000000000000000000000000000000005f52601160045260245ffd5b8181038181111561079b5761079b614c85565b8481526020808201859052835161ffff908116604084015290840151166060820152610100810182516080830152602083015160a0830152604083015161ffff1660c0830152606083015160e0830152611f29565b5f6080828403128015614d2b575f5ffd5b506040516080810167ffffffffffffffff81118282101715614d4f57614d4f614629565b60409081528351825260208085015190830152830151614d6e816147b1565b60408201526060928301519281019290925250919050565b73ffffffffffffffffffffffffffffffffffffffff84168152826020820152606060408201525f611f296060830184614b15565b600181811c90821680614dce57607f821691505b602082108103614e05577f4e487b71000000000000000000000000000000000000000000000000000000005f52602260045260245ffd5b50919050565b73ffffffffffffffffffffffffffffffffffffffff841681526020810183905260608101613fe560408301846144d5565b5f60208284031215614e4c575f5ffd5b5051919050565b7f4e487b71000000000000000000000000000000000000000000000000000000005f52603260045260245ffd5b7f4e487b71000000000000000000000000000000000000000000000000000000005f52603160045260245ffd5b73ffffffffffffffffffffffffffffffffffffffff8616815273ffffffffffffffffffffffffffffffffffffffff8516602082015273ffffffffffffffffffffffffffffffffffffffff8416604082015282606082015260a060808201525f614f1960a0830184614b15565b979650505050505050565b8082018082111561079b5761079b614c85565b5f60208284031215614f47575f5ffd5b8151611fc681614936565b73ffffffffffffffffffffffffffffffffffffffff815116825273ffffffffffffffffffffffffffffffffffffffff6020820151166020830152604081015160408301525f60608201516101006060850152614fb2610100850182614b15565b90506080830151614fdb608086018273ffffffffffffffffffffffffffffffffffffffff169052565b5060a0830151614fee60a08601826144d5565b5060c083015160c085015260e083015160e08501528091505092915050565b73ffffffffffffffffffffffffffffffffffffffff83168152604060208201525f613fe56040830184614f52565b5f81516040845261504f6040850182614b15565b905060208301518482036020860152611f298282614b15565b73ffffffffffffffffffffffffffffffffffffffff84168152606060208201525f6150966060830185614f52565b82810360408401526150a8818561503b565b9695505050505050565b835115158152602080850151151581830152604080860151805182850152918201516060840152810151151560808301525f90506060850151805161ffff90811660a085015260208201511660c0840152506080850151805160e08401526020810151610100840152604081015161ffff16610120840152606081015161014084015250836101608301526101a0610180830152611f296101a083018461503b565b61ffff818116838216019081111561079b5761079b614c85565b6040810161079b8284805161ffff908116835260209182015116910152565b7f4e487b71000000000000000000000000000000000000000000000000000000005f52601260045260245ffdfea2646970667358221220cabbf0d6eb828d7177ff13eec857005b9edb55236fd7f2534b402958262a557f64736f6c634300081e0033","linkReferences":{"src/libraries/CompoundInterestLib.sol":{"CompoundInterestLib":[{"start":5208,"length":20},{"start":8723,"length":20},{"start":10441,"length":20},{"start":13029,"length":20},{"start":17989,"length":20}]}}},"methodIdentifiers":{"EMPTY_METADATA()":"fac6f215","_bullaClaim()":"2b538af5","acceptPurchaseOrder(uint256,uint256)":"f02f03fc","addToFeeTokenWhitelist(address)":"d4251f9e","admin()":"f851a440","approve(address,uint256)":"095ea7b3","balanceOf(address)":"70a08231","cancelInvoice(uint256,string)":"3f97833b","createInvoice((address,address,uint256,uint256,uint256,string,address,uint8,(uint16,uint16),uint256,uint256))":"4ef5494e","createInvoiceWithMetadata((address,address,uint256,uint256,uint256,string,address,uint8,(uint16,uint16),uint256,uint256),(string,string))":"a4a1d84e","deliverPurchaseOrder(uint256)":"67d1f062","getApproved(uint256)":"081812fc","getInvoice(uint256)":"3a23cc0a","getTotalAmountNeededForPurchaseOrderDeposit(uint256)":"89339744","impairInvoice(uint256)":"1be4c4d4","isApprovedForAll(address,address)":"e985e9c5","markInvoiceAsPaid(uint256)":"0f2c513d","owner()":"8da5cb5b","ownerOf(uint256)":"6352211e","payInvoice(uint256,uint256)":"cc368b1d","protocolFeeBPS()":"96daa322","protocolFeeTokenWhitelist(address)":"a5cc6a7f","protocolFeesByToken(address)":"39737e07","removeFromFeeTokenWhitelist(address)":"82459995","renounceOwnership()":"715018a6","safeTransferFrom(address,address,uint256)":"42842e0e","safeTransferFrom(address,address,uint256,bytes)":"b88d4fde","setApprovalForAll(address,bool)":"a22cb465","setProtocolFee(uint16)":"e4467f35","supportsInterface(bytes4)":"01ffc9a7","transferFrom(address,address,uint256)":"23b872dd","transferOwnership(address)":"f2fde38b","updateBinding(uint256,uint8)":"5edc84eb","whitelistedProtocolFeeTokens(uint256)":"4be18e94","withdrawAllFees()":"af236af4"},"id":92}